{
  "address": "0x11ac5eedd77f5F5Cf50f0BEd8273724cbDB56c8c",
  "abi": [
    {
      "inputs": [],
      "name": "InvalidInitialization",
      "type": "error"
    },
    {
      "inputs": [],
      "name": "NotInitializing",
      "type": "error"
    },
    {
      "inputs": [
        {
          "internalType": "address",
          "name": "owner",
          "type": "address"
        }
      ],
      "name": "OwnableInvalidOwner",
      "type": "error"
    },
    {
      "inputs": [
        {
          "internalType": "address",
          "name": "account",
          "type": "address"
        }
      ],
      "name": "OwnableUnauthorizedAccount",
      "type": "error"
    },
    {
      "anonymous": false,
      "inputs": [
        {
          "indexed": false,
          "internalType": "bytes32",
          "name": "_letterId",
          "type": "bytes32"
        }
      ],
      "name": "Claim",
      "type": "event"
    },
    {
      "anonymous": false,
      "inputs": [
        {
          "indexed": false,
          "internalType": "uint64",
          "name": "version",
          "type": "uint64"
        }
      ],
      "name": "Initialized",
      "type": "event"
    },
    {
      "anonymous": false,
      "inputs": [
        {
          "indexed": true,
          "internalType": "address",
          "name": "previousOwner",
          "type": "address"
        },
        {
          "indexed": true,
          "internalType": "address",
          "name": "newOwner",
          "type": "address"
        }
      ],
      "name": "OwnershipTransferred",
      "type": "event"
    },
    {
      "anonymous": false,
      "inputs": [
        {
          "indexed": false,
          "internalType": "bytes32",
          "name": "_letterId",
          "type": "bytes32"
        },
        {
          "indexed": false,
          "internalType": "address",
          "name": "_sender",
          "type": "address"
        },
        {
          "indexed": false,
          "internalType": "address",
          "name": "_receiver",
          "type": "address"
        },
        {
          "indexed": false,
          "internalType": "bytes[]",
          "name": "_annexKeys",
          "type": "bytes[]"
        }
      ],
      "name": "SendLetter",
      "type": "event"
    },
    {
      "anonymous": false,
      "inputs": [
        {
          "indexed": false,
          "internalType": "bytes32",
          "name": "_letterId",
          "type": "bytes32"
        }
      ],
      "name": "TimeoutClaim",
      "type": "event"
    },
    {
      "inputs": [],
      "name": "BLAST_YIELD",
      "outputs": [
        {
          "internalType": "address",
          "name": "",
          "type": "address"
        }
      ],
      "stateMutability": "view",
      "type": "function"
    },
    {
      "inputs": [],
      "name": "ERC1155_TYPE",
      "outputs": [
        {
          "internalType": "uint8",
          "name": "",
          "type": "uint8"
        }
      ],
      "stateMutability": "view",
      "type": "function"
    },
    {
      "inputs": [],
      "name": "ERC20_TYPE",
      "outputs": [
        {
          "internalType": "uint8",
          "name": "",
          "type": "uint8"
        }
      ],
      "stateMutability": "view",
      "type": "function"
    },
    {
      "inputs": [],
      "name": "ERC721_TYPE",
      "outputs": [
        {
          "internalType": "uint8",
          "name": "",
          "type": "uint8"
        }
      ],
      "stateMutability": "view",
      "type": "function"
    },
    {
      "inputs": [],
      "name": "ETH_TYPE",
      "outputs": [
        {
          "internalType": "uint8",
          "name": "",
          "type": "uint8"
        }
      ],
      "stateMutability": "view",
      "type": "function"
    },
    {
      "inputs": [],
      "name": "USDB",
      "outputs": [
        {
          "internalType": "contract IERC20Rebasing",
          "name": "",
          "type": "address"
        }
      ],
      "stateMutability": "view",
      "type": "function"
    },
    {
      "inputs": [],
      "name": "WETH",
      "outputs": [
        {
          "internalType": "contract IERC20Rebasing",
          "name": "",
          "type": "address"
        }
      ],
      "stateMutability": "view",
      "type": "function"
    },
    {
      "inputs": [
        {
          "internalType": "bytes",
          "name": "",
          "type": "bytes"
        }
      ],
      "name": "annex",
      "outputs": [
        {
          "internalType": "uint8",
          "name": "_type",
          "type": "uint8"
        },
        {
          "internalType": "address",
          "name": "_address",
          "type": "address"
        },
        {
          "internalType": "uint256",
          "name": "_amount",
          "type": "uint256"
        },
        {
          "internalType": "uint256",
          "name": "_id",
          "type": "uint256"
        }
      ],
      "stateMutability": "view",
      "type": "function"
    },
    {
      "inputs": [
        {
          "components": [
            {
              "internalType": "uint8",
              "name": "_type",
              "type": "uint8"
            },
            {
              "internalType": "address",
              "name": "_address",
              "type": "address"
            },
            {
              "internalType": "uint256",
              "name": "_amount",
              "type": "uint256"
            },
            {
              "internalType": "uint256",
              "name": "_id",
              "type": "uint256"
            }
          ],
          "internalType": "struct PostOffice.Annex[]",
          "name": "_annex",
          "type": "tuple[]"
        },
        {
          "components": [
            {
              "internalType": "address",
              "name": "_token",
              "type": "address"
            },
            {
              "internalType": "uint256",
              "name": "_amount",
              "type": "uint256"
            }
          ],
          "internalType": "struct PostOffice.PayInfo",
          "name": "_payInfo",
          "type": "tuple"
        },
        {
          "internalType": "address",
          "name": "_receiver",
          "type": "address"
        },
        {
          "internalType": "uint256",
          "name": "_deadline",
          "type": "uint256"
        }
      ],
      "name": "buildId",
      "outputs": [
        {
          "internalType": "bytes32",
          "name": "",
          "type": "bytes32"
        }
      ],
      "stateMutability": "view",
      "type": "function"
    },
    {
      "inputs": [
        {
          "internalType": "bytes32",
          "name": "_id",
          "type": "bytes32"
        }
      ],
      "name": "claim",
      "outputs": [],
      "stateMutability": "nonpayable",
      "type": "function"
    },
    {
      "inputs": [
        {
          "internalType": "address",
          "name": "recipient",
          "type": "address"
        }
      ],
      "name": "claimAllYield",
      "outputs": [],
      "stateMutability": "nonpayable",
      "type": "function"
    },
    {
      "inputs": [],
      "name": "claimMyContractsGas",
      "outputs": [],
      "stateMutability": "nonpayable",
      "type": "function"
    },
    {
      "inputs": [
        {
          "internalType": "address",
          "name": "recipient",
          "type": "address"
        },
        {
          "internalType": "uint256",
          "name": "amount",
          "type": "uint256"
        }
      ],
      "name": "claimYield",
      "outputs": [],
      "stateMutability": "nonpayable",
      "type": "function"
    },
    {
      "inputs": [],
      "name": "initialize",
      "outputs": [],
      "stateMutability": "nonpayable",
      "type": "function"
    },
    {
      "inputs": [
        {
          "internalType": "bytes32",
          "name": "",
          "type": "bytes32"
        }
      ],
      "name": "letters",
      "outputs": [
        {
          "internalType": "address",
          "name": "_sender",
          "type": "address"
        },
        {
          "internalType": "address",
          "name": "_receiver",
          "type": "address"
        },
        {
          "internalType": "uint256",
          "name": "_annexAmount",
          "type": "uint256"
        },
        {
          "components": [
            {
              "internalType": "address",
              "name": "_token",
              "type": "address"
            },
            {
              "internalType": "uint256",
              "name": "_amount",
              "type": "uint256"
            }
          ],
          "internalType": "struct PostOffice.PayInfo",
          "name": "_payInfo",
          "type": "tuple"
        },
        {
          "internalType": "uint256",
          "name": "_deadline",
          "type": "uint256"
        }
      ],
      "stateMutability": "view",
      "type": "function"
    },
    {
      "inputs": [
        {
          "internalType": "address",
          "name": "",
          "type": "address"
        },
        {
          "internalType": "address",
          "name": "",
          "type": "address"
        },
        {
          "internalType": "uint256[]",
          "name": "",
          "type": "uint256[]"
        },
        {
          "internalType": "uint256[]",
          "name": "",
          "type": "uint256[]"
        },
        {
          "internalType": "bytes",
          "name": "",
          "type": "bytes"
        }
      ],
      "name": "onERC1155BatchReceived",
      "outputs": [
        {
          "internalType": "bytes4",
          "name": "",
          "type": "bytes4"
        }
      ],
      "stateMutability": "nonpayable",
      "type": "function"
    },
    {
      "inputs": [
        {
          "internalType": "address",
          "name": "",
          "type": "address"
        },
        {
          "internalType": "address",
          "name": "",
          "type": "address"
        },
        {
          "internalType": "uint256",
          "name": "",
          "type": "uint256"
        },
        {
          "internalType": "uint256",
          "name": "",
          "type": "uint256"
        },
        {
          "internalType": "bytes",
          "name": "",
          "type": "bytes"
        }
      ],
      "name": "onERC1155Received",
      "outputs": [
        {
          "internalType": "bytes4",
          "name": "",
          "type": "bytes4"
        }
      ],
      "stateMutability": "nonpayable",
      "type": "function"
    },
    {
      "inputs": [
        {
          "internalType": "address",
          "name": "",
          "type": "address"
        },
        {
          "internalType": "address",
          "name": "",
          "type": "address"
        },
        {
          "internalType": "uint256",
          "name": "",
          "type": "uint256"
        },
        {
          "internalType": "bytes",
          "name": "",
          "type": "bytes"
        }
      ],
      "name": "onERC721Received",
      "outputs": [
        {
          "internalType": "bytes4",
          "name": "",
          "type": "bytes4"
        }
      ],
      "stateMutability": "nonpayable",
      "type": "function"
    },
    {
      "inputs": [],
      "name": "owner",
      "outputs": [
        {
          "internalType": "address",
          "name": "",
          "type": "address"
        }
      ],
      "stateMutability": "view",
      "type": "function"
    },
    {
      "inputs": [],
      "name": "renounceOwnership",
      "outputs": [],
      "stateMutability": "nonpayable",
      "type": "function"
    },
    {
      "inputs": [
        {
          "components": [
            {
              "internalType": "uint8",
              "name": "_type",
              "type": "uint8"
            },
            {
              "internalType": "address",
              "name": "_address",
              "type": "address"
            },
            {
              "internalType": "uint256",
              "name": "_amount",
              "type": "uint256"
            },
            {
              "internalType": "uint256",
              "name": "_id",
              "type": "uint256"
            }
          ],
          "internalType": "struct PostOffice.Annex[]",
          "name": "_annex",
          "type": "tuple[]"
        },
        {
          "components": [
            {
              "internalType": "address",
              "name": "_token",
              "type": "address"
            },
            {
              "internalType": "uint256",
              "name": "_amount",
              "type": "uint256"
            }
          ],
          "internalType": "struct PostOffice.PayInfo",
          "name": "_payInfo",
          "type": "tuple"
        },
        {
          "internalType": "address",
          "name": "_receiver",
          "type": "address"
        },
        {
          "internalType": "uint256",
          "name": "_deadline",
          "type": "uint256"
        }
      ],
      "name": "sendLetter",
      "outputs": [
        {
          "internalType": "bytes32",
          "name": "_letterId",
          "type": "bytes32"
        }
      ],
      "stateMutability": "payable",
      "type": "function"
    },
    {
      "inputs": [
        {
          "internalType": "bytes4",
          "name": "interfaceId",
          "type": "bytes4"
        }
      ],
      "name": "supportsInterface",
      "outputs": [
        {
          "internalType": "bool",
          "name": "",
          "type": "bool"
        }
      ],
      "stateMutability": "view",
      "type": "function"
    },
    {
      "inputs": [
        {
          "internalType": "bytes32",
          "name": "_id",
          "type": "bytes32"
        }
      ],
      "name": "timeoutClaim",
      "outputs": [],
      "stateMutability": "nonpayable",
      "type": "function"
    },
    {
      "inputs": [
        {
          "internalType": "address",
          "name": "newOwner",
          "type": "address"
        }
      ],
      "name": "transferOwnership",
      "outputs": [],
      "stateMutability": "nonpayable",
      "type": "function"
    },
    {
      "stateMutability": "payable",
      "type": "receive"
    }
  ],
  "transactionHash": "0xe85b1be3d4c0957459b2b8934148d22ee160e3b4a8cf10c375e4a7d05c1c2921",
  "args": [],
  "numDeployments": 1,
  "solcInputHash": "e0f816e88b3c009af7682571fd8a711d",
  "bytecode": "0x60806040523480156200001157600080fd5b506200001c62000022565b6200047b565b7ff0c57e16840df040f15088dc2f81fe391c3923bec73e23a9662efc9c229c6a00805468010000000000000000810460ff1615906001600160401b03166000811580156200006d5750825b90506000826001600160401b031660011480156200008a5750303b155b90508115801562000099575080155b15620000b85760405163f92ee8a960e01b815260040160405180910390fd5b84546001600160401b03191660011785558315620000e757845460ff60401b1916680100000000000000001785555b620000f2336200014a565b620000fc62000162565b83156200014357845460ff60401b19168555604051600181527fc7f505b2f371ae2175ee4913f4499e1f2633a7b5936321eed1cdaeb6115181d29060200160405180910390a15b5050505050565b6200015462000338565b6200015f8162000389565b50565b604051631a33757d60e01b815273420000000000000000000000000000000000002290631a33757d906200019c9060029060040162000438565b6020604051808303816000875af1158015620001bc573d6000803e3d6000fd5b505050506040513d601f19601f82011682018060405250810190620001e2919062000461565b50604051631a33757d60e01b815273420000000000000000000000000000000000002390631a33757d906200021d9060029060040162000438565b6020604051808303816000875af11580156200023d573d6000803e3d6000fd5b505050506040513d601f19601f8201168201806040525081019062000263919062000461565b507343000000000000000000000000000000000000026001600160a01b031663f098767a6040518163ffffffff1660e01b8152600401600060405180830381600087803b158015620002b457600080fd5b505af1158015620002c9573d6000803e3d6000fd5b505050507343000000000000000000000000000000000000026001600160a01b0316634e606c476040518163ffffffff1660e01b8152600401600060405180830381600087803b1580156200031d57600080fd5b505af115801562000332573d6000803e3d6000fd5b50505050565b7ff0c57e16840df040f15088dc2f81fe391c3923bec73e23a9662efc9c229c6a005468010000000000000000900460ff166200038757604051631afcd79f60e31b815260040160405180910390fd5b565b6200039362000338565b6001600160a01b038116620003c257604051631e4fbdf760e01b81526000600482015260240160405180910390fd5b6200015f817f9016d09d72d40fdae2fd8ceac6b6234c7706214fd39c1cd1e609a0528c19930080546001600160a01b031981166001600160a01b03848116918217845560405192169182907f8be0079c531659141344cd1fd0a4f28419497f9722a3daafe3b4186f6b6457e090600090a3505050565b60208101600383106200045b57634e487b7160e01b600052602160045260246000fd5b91905290565b6000602082840312156200047457600080fd5b5051919050565b6122d9806200048b6000396000f3fe60806040526004361061014f5760003560e01c806377d5d2dc116100b6578063bc197c811161006f578063bc197c811461048f578063bd66528a146104bb578063c2d94aec146104db578063cfc37a6e146104fb578063f23a6e6114610516578063f2fde38b1461054257600080fd5b806377d5d2dc146103d85780638129fc1c146103ed5780638da5cb5b14610402578063916e4ed11461043f578063ad5c464814610454578063b79744711461046f57600080fd5b80633be3f445116101085780633be3f445146102da57806354b69269146103085780636a59fb34146103865780636f3769c014610399578063715018a6146103ae57806372798a89146103c357600080fd5b806301ffc9a71461015b57806304f335cf14610190578063150b7a021461021a5780631869ebda1461025e5780632480aa421461028057806331a0edec146102a757600080fd5b3661015657005b600080fd5b34801561016757600080fd5b5061017b610176366004611a82565b610562565b60405190151581526020015b60405180910390f35b34801561019c57600080fd5b506101ee6101ab366004611b90565b80516020818301810180516001808352938301929094019190912092905281549082015460029092015460ff8216926101009092046001600160a01b0316919084565b6040805160ff90951685526001600160a01b039093166020850152918301526060820152608001610187565b34801561022657600080fd5b50610245610235366004611be8565b630a85bd0160e11b949350505050565b6040516001600160e01b03199091168152602001610187565b34801561026a57600080fd5b5061027e610279366004611c4f565b610599565b005b34801561028c57600080fd5b50610295600081565b60405160ff9091168152602001610187565b3480156102b357600080fd5b506102c26022602160991b0181565b6040516001600160a01b039091168152602001610187565b3480156102e657600080fd5b506102fa6102f5366004611cf2565b610617565b604051908152602001610187565b34801561031457600080fd5b50610375610323366004611e02565b60006020818152918152604090819020805460018201546002830154845180860190955260038401546001600160a01b0390811686526004850154968601969096526005909301549185169416929085565b604051610187959493929190611e1b565b6102fa610394366004611cf2565b610654565b3480156103a557600080fd5b50610295600181565b3480156103ba57600080fd5b5061027e610bf8565b3480156103cf57600080fd5b50610295600281565b3480156103e457600080fd5b5061027e610c0c565b3480156103f957600080fd5b5061027e610c85565b34801561040e57600080fd5b507f9016d09d72d40fdae2fd8ceac6b6234c7706214fd39c1cd1e609a0528c199300546001600160a01b03166102c2565b34801561044b57600080fd5b50610295600381565b34801561046057600080fd5b506102c26023602160991b0181565b34801561047b57600080fd5b5061027e61048a366004611e02565b610d9a565b34801561049b57600080fd5b506102456104aa366004611ed0565b63bc197c8160e01b95945050505050565b3480156104c757600080fd5b5061027e6104d6366004611e02565b611219565b3480156104e757600080fd5b5061027e6104f6366004611f79565b611702565b34801561050757600080fd5b506102c26002604360981b0181565b34801561052257600080fd5b50610245610531366004611f94565b63f23a6e6160e01b95945050505050565b34801561054e57600080fd5b5061027e61055d366004611f79565b611785565b60006001600160e01b03198216630271189760e51b148061059357506301ffc9a760e01b6001600160e01b03198316145b92915050565b6105a16117c0565b604051637cb8cb3160e11b81526002604360981b019063f9719662906105cf90309086908690600401611ff8565b6020604051808303816000875af11580156105ee573d6000803e3d6000fd5b505050506040513d601f19601f82011682018060405250810190610612919061201c565b505050565b600084848484444260405160200161063496959493929190612035565b604051602081830303815290604052805190602001209050949350505050565b600061066285858585610617565b9050600085516001600160401b0381111561067f5761067f611ab3565b6040519080825280602002602001820160405280156106b257816020015b606081526020019060019003908161069d5790505b50905060005b8651811015610b1657600060ff168782815181106106d8576106d86120e7565b60200260200101516000015160ff160361076d578681815181106106fe576106fe6120e7565b60200260200101516040015134101561076d5760405162461bcd60e51b815260206004820152602660248201527f506f73744f66666963653a20496e73756666696369656e7420616d6f756e74206044820152650decc40cae8d60d31b60648201526084015b60405180910390fd5b600160ff16878281518110610784576107846120e7565b60200260200101516000015160ff1603610847578681815181106107aa576107aa6120e7565b6020026020010151602001516001600160a01b03166323b872dd33308a85815181106107d8576107d86120e7565b6020026020010151604001516040518463ffffffff1660e01b815260040161080293929190611ff8565b6020604051808303816000875af1158015610821573d6000803e3d6000fd5b505050506040513d601f19601f8201168201806040525081019061084591906120fd565b505b600260ff1687828151811061085e5761085e6120e7565b60200260200101516000015160ff160361090f57868181518110610884576108846120e7565b6020026020010151602001516001600160a01b03166323b872dd33308a85815181106108b2576108b26120e7565b6020026020010151606001516040518463ffffffff1660e01b81526004016108dc93929190611ff8565b600060405180830381600087803b1580156108f657600080fd5b505af115801561090a573d6000803e3d6000fd5b505050505b600360ff16878281518110610926576109266120e7565b60200260200101516000015160ff1603610a3b5786818151811061094c5761094c6120e7565b6020026020010151602001516001600160a01b031663f242432a33308a858151811061097a5761097a6120e7565b6020026020010151606001518b8681518110610998576109986120e7565b60200260200101516040015160006001600160401b038111156109bd576109bd611ab3565b6040519080825280601f01601f1916602001820160405280156109e7576020820181803683370190505b506040518663ffffffff1660e01b8152600401610a0895949392919061216f565b600060405180830381600087803b158015610a2257600080fd5b505af1158015610a36573d6000803e3d6000fd5b505050505b60408051602081018590529081018290526000906060016040516020818303038152906040529050878281518110610a7557610a756120e7565b6020026020010151600182604051610a8d91906121b4565b9081526040805191829003602090810190922083518154938501516001600160a01b0316610100026001600160a81b031990941660ff90911617929092178255820151600182015560609091015160029091015582518190849084908110610af757610af76120e7565b6020026020010181905250508080610b0e906121d0565b9150506106b8565b506040805160a081018252338082526001600160a01b0387811660208085019182528b51858701908152606086018c8152608087018b815260008b8152808552899020885181549088166001600160a01b0319918216178255955160018201805491891691881691909117905592516002840155905180516003840180549190971695169490941790945591015160048201559051600590910155915190917fe681dee53a4e870bcaef63970bc1fb77925267c7e4c14f60e54725272d8cb79891610be6918691899087906121f7565b60405180910390a15050949350505050565b610c006117c0565b610c0a600061181b565b565b610c146117c0565b604051634aa7d2f760e11b81523060048201523360248201526002604360981b019063954fa5ee906044016020604051808303816000875af1158015610c5e573d6000803e3d6000fd5b505050506040513d601f19601f82011682018060405250810190610c82919061201c565b50565b7ff0c57e16840df040f15088dc2f81fe391c3923bec73e23a9662efc9c229c6a008054600160401b810460ff1615906001600160401b0316600081158015610cca5750825b90506000826001600160401b03166001148015610ce65750303b155b905081158015610cf4575080155b15610d125760405163f92ee8a960e01b815260040160405180910390fd5b845467ffffffffffffffff191660011785558315610d3c57845460ff60401b1916600160401b1785555b610d453361188c565b610d4d61189d565b8315610d9357845460ff60401b19168555604051600181527fc7f505b2f371ae2175ee4913f4499e1f2633a7b5936321eed1cdaeb6115181d29060200160405180910390a15b5050505050565b600081815260208181526040808320815160a08101835281546001600160a01b038082168352600184018054808316858901526002860180548689015287518089019098526003870180548086168a526004890180548b8d0152606089019a909a5260058901805460808a01528d8d529a8c90526001600160a01b031996871690985591851690925590889055919093169055918490559290915580519091163314610e935760405162461bcd60e51b815260206004820152602260248201527f506f73744f66666963653a20596f7520617265206e6f74207468652073656e6460448201526132b960f11b6064820152608401610764565b42816080015110610ef95760405162461bcd60e51b815260206004820152602a60248201527f506f73744f66666963653a20546865206c657474657220686173206e6f7420656044820152691e1c1a5c9959081e595d60b21b6064820152608401610764565b60005b81604001518110156111e057604080516020810185905290810182905260009060600160405160208183030381529060405290506000600182604051610f4291906121b4565b9081526040805160209281900383018120608082018352805460ff81168084526101009091046001600160a01b03169483019490945260018101549282019290925260029091015460608201529150610fc7576040808201519051339180156108fc02916000818181858888f19350505050158015610fc5573d6000803e3d6000fd5b505b805160ff1660001901611053576020810151604080830151905163a9059cbb60e01b815233600482015260248101919091526001600160a01b039091169063a9059cbb906044016020604051808303816000875af115801561102d573d6000803e3d6000fd5b505050506040513d601f19601f8201168201806040525081019061105191906120fd565b505b805160ff16600119016110cc5760208101516060820151604051632142170760e11b81526001600160a01b03909216916342842e0e916110999130913391600401611ff8565b600060405180830381600087803b1580156110b357600080fd5b505af11580156110c7573d6000803e3d6000fd5b505050505b805160ff166002190161118f5780602001516001600160a01b031663f242432a30338460600151856040015160006001600160401b0381111561111157611111611ab3565b6040519080825280601f01601f19166020018201604052801561113b576020820181803683370190505b506040518663ffffffff1660e01b815260040161115c95949392919061216f565b600060405180830381600087803b15801561117657600080fd5b505af115801561118a573d6000803e3d6000fd5b505050505b60018260405161119f91906121b4565b90815260405190819003602001902080546001600160a81b0319168155600060018201819055600290910155508190506111d8816121d0565b915050610efc565b506040518281527fb7b05d3a6508c3fc98e29961e39eff690a7e939862c71ad741250a5d2d30d04c906020015b60405180910390a15050565b600081815260208181526040808320815160a08101835281546001600160a01b038082168352600184018054808316858901908152600287018054878a01528851808a019099526003880180548087168b5260048a0180548c8e015260608a019b909b5260058a01805460808b01528e8e529b8d90526001600160a01b03199788169099559286169093559189905592909416909155928590559390925590511633146113165760405162461bcd60e51b815260206004820152602560248201527f506f73744f66666963653a20596f7520617265206e6f742074686520726563696044820152641c1a595b9d60da1b6064820152608401610764565b428160800151116113695760405162461bcd60e51b815260206004820181905260248201527f506f73744f66666963653a204c6574746572206861732074696d6564206f75746044820152606401610764565b6060810151805182516020909201516040516323b872dd60e01b81526001600160a01b03909216926323b872dd926113a692339291600401611ff8565b6020604051808303816000875af11580156113c5573d6000803e3d6000fd5b505050506040513d601f19601f820116820180604052508101906113e991906120fd565b5060005b81604001518110156116d15760408051602081018590529081018290526000906060016040516020818303038152906040529050600060018260405161143391906121b4565b9081526040805160209281900383018120608082018352805460ff81168084526101009091046001600160a01b031694830194909452600181015492820192909252600290910154606082015291506114b8576040808201519051339180156108fc02916000818181858888f193505050501580156114b6573d6000803e3d6000fd5b505b805160ff1660001901611544576020810151604080830151905163a9059cbb60e01b815233600482015260248101919091526001600160a01b039091169063a9059cbb906044016020604051808303816000875af115801561151e573d6000803e3d6000fd5b505050506040513d601f19601f8201168201806040525081019061154291906120fd565b505b805160ff16600119016115bd5760208101516060820151604051632142170760e11b81526001600160a01b03909216916342842e0e9161158a9130913391600401611ff8565b600060405180830381600087803b1580156115a457600080fd5b505af11580156115b8573d6000803e3d6000fd5b505050505b805160ff16600219016116805780602001516001600160a01b031663f242432a30338460600151856040015160006001600160401b0381111561160257611602611ab3565b6040519080825280601f01601f19166020018201604052801561162c576020820181803683370190505b506040518663ffffffff1660e01b815260040161164d95949392919061216f565b600060405180830381600087803b15801561166757600080fd5b505af115801561167b573d6000803e3d6000fd5b505050505b60018260405161169091906121b4565b90815260405190819003602001902080546001600160a81b0319168155600060018201819055600290910155508190506116c9816121d0565b9150506113ed565b506040518281527f8c1d64e3bd87387709175b9ef4e7a1d7a8364559fc0e2ad9d77953909a0d1eb39060200161120d565b61170a6117c0565b60405163430021db60e11b81523060048201526001600160a01b03821660248201526002604360981b019063860043b6906044016020604051808303816000875af115801561175d573d6000803e3d6000fd5b505050506040513d601f19601f82011682018060405250810190611781919061201c565b5050565b61178d6117c0565b6001600160a01b0381166117b757604051631e4fbdf760e01b815260006004820152602401610764565b610c828161181b565b336117f27f9016d09d72d40fdae2fd8ceac6b6234c7706214fd39c1cd1e609a0528c199300546001600160a01b031690565b6001600160a01b031614610c0a5760405163118cdaa760e01b8152336004820152602401610764565b7f9016d09d72d40fdae2fd8ceac6b6234c7706214fd39c1cd1e609a0528c19930080546001600160a01b031981166001600160a01b03848116918217845560405192169182907f8be0079c531659141344cd1fd0a4f28419497f9722a3daafe3b4186f6b6457e090600090a3505050565b611894611a31565b610c8281611a7a565b604051631a33757d60e01b81526022602160991b0190631a33757d906118c89060029060040161227b565b6020604051808303816000875af11580156118e7573d6000803e3d6000fd5b505050506040513d601f19601f8201168201806040525081019061190b919061201c565b50604051631a33757d60e01b81526023602160991b0190631a33757d906119379060029060040161227b565b6020604051808303816000875af1158015611956573d6000803e3d6000fd5b505050506040513d601f19601f8201168201806040525081019061197a919061201c565b506002604360981b016001600160a01b031663f098767a6040518163ffffffff1660e01b8152600401600060405180830381600087803b1580156119bd57600080fd5b505af11580156119d1573d6000803e3d6000fd5b505050506002604360981b016001600160a01b0316634e606c476040518163ffffffff1660e01b8152600401600060405180830381600087803b158015611a1757600080fd5b505af1158015611a2b573d6000803e3d6000fd5b50505050565b7ff0c57e16840df040f15088dc2f81fe391c3923bec73e23a9662efc9c229c6a0054600160401b900460ff16610c0a57604051631afcd79f60e31b815260040160405180910390fd5b61178d611a31565b600060208284031215611a9457600080fd5b81356001600160e01b031981168114611aac57600080fd5b9392505050565b634e487b7160e01b600052604160045260246000fd5b604051608081016001600160401b0381118282101715611aeb57611aeb611ab3565b60405290565b604051601f8201601f191681016001600160401b0381118282101715611b1957611b19611ab3565b604052919050565b600082601f830112611b3257600080fd5b81356001600160401b03811115611b4b57611b4b611ab3565b611b5e601f8201601f1916602001611af1565b818152846020838601011115611b7357600080fd5b816020850160208301376000918101602001919091529392505050565b600060208284031215611ba257600080fd5b81356001600160401b03811115611bb857600080fd5b611bc484828501611b21565b949350505050565b80356001600160a01b0381168114611be357600080fd5b919050565b60008060008060808587031215611bfe57600080fd5b611c0785611bcc565b9350611c1560208601611bcc565b92506040850135915060608501356001600160401b03811115611c3757600080fd5b611c4387828801611b21565b91505092959194509250565b60008060408385031215611c6257600080fd5b611c6b83611bcc565b946020939093013593505050565b60006001600160401b03821115611c9257611c92611ab3565b5060051b60200190565b600060408284031215611cae57600080fd5b604051604081018181106001600160401b0382111715611cd057611cd0611ab3565b604052905080611cdf83611bcc565b8152602083013560208201525092915050565b60008060008060a08587031215611d0857600080fd5b84356001600160401b03811115611d1e57600080fd5b8501601f81018713611d2f57600080fd5b80356020611d44611d3f83611c79565b611af1565b82815260079290921b8301810191818101908a841115611d6357600080fd5b938201935b83851015611dd1576080858c031215611d815760008081fd5b611d89611ac9565b853560ff81168114611d9b5760008081fd5b8152611da8868501611bcc565b818501526040868101359082015260608087013590820152825260809094019390820190611d68565b9750611de1905089898301611c9c565b9550505050611df260608601611bcc565b9396929550929360800135925050565b600060208284031215611e1457600080fd5b5035919050565b6001600160a01b038681168252851660208201526040810184905260c08101611e5a606083018580516001600160a01b03168252602090810151910152565b8260a08301529695505050505050565b600082601f830112611e7b57600080fd5b81356020611e8b611d3f83611c79565b82815260059290921b84018101918181019086841115611eaa57600080fd5b8286015b84811015611ec55780358352918301918301611eae565b509695505050505050565b600080600080600060a08688031215611ee857600080fd5b611ef186611bcc565b9450611eff60208701611bcc565b935060408601356001600160401b0380821115611f1b57600080fd5b611f2789838a01611e6a565b94506060880135915080821115611f3d57600080fd5b611f4989838a01611e6a565b93506080880135915080821115611f5f57600080fd5b50611f6c88828901611b21565b9150509295509295909350565b600060208284031215611f8b57600080fd5b611aac82611bcc565b600080600080600060a08688031215611fac57600080fd5b611fb586611bcc565b9450611fc360208701611bcc565b9350604086013592506060860135915060808601356001600160401b03811115611fec57600080fd5b611f6c88828901611b21565b6001600160a01b039384168152919092166020820152604081019190915260600190565b60006020828403121561202e57600080fd5b5051919050565b60e08082528751908201819052600090602090610100840190828b01845b8281101561209b578151805160ff168552858101516001600160a01b031686860152604080820151908601526060908101519085015260809093019290840190600101612053565b505089516001600160a01b03168584019081526020808c0151910152509150506001600160a01b03861660608301528460808301528360a08301528260c0830152979650505050505050565b634e487b7160e01b600052603260045260246000fd5b60006020828403121561210f57600080fd5b81518015158114611aac57600080fd5b60005b8381101561213a578181015183820152602001612122565b50506000910152565b6000815180845261215b81602086016020860161211f565b601f01601f19169290920160200192915050565b6001600160a01b03868116825285166020820152604081018490526060810183905260a0608082018190526000906121a990830184612143565b979650505050505050565b600082516121c681846020870161211f565b9190910192915050565b6000600182016121f057634e487b7160e01b600052601160045260246000fd5b5060010190565b600060808201868352602060018060a01b03808816828601528087166040860152506080606085015281855180845260a08601915060a08160051b870101935082870160005b8281101561226b57609f19888703018452612259868351612143565b9550928401929084019060010161223d565b50939a9950505050505050505050565b602081016003831061229d57634e487b7160e01b600052602160045260246000fd5b9190529056fea2646970667358221220c0881d134f6461c4ca5e722d3a4135b79f5e90718ff7f95abc47e3a9afa405cb64736f6c63430008140033",
  "devdoc": {
    "errors": {
      "InvalidInitialization()": [
        {
          "details": "The contract is already initialized."
        }
      ],
      "NotInitializing()": [
        {
          "details": "The contract is not initializing."
        }
      ],
      "OwnableInvalidOwner(address)": [
        {
          "details": "The owner is not a valid owner account. (eg. `address(0)`)"
        }
      ],
      "OwnableUnauthorizedAccount(address)": [
        {
          "details": "The caller account is not authorized to perform an operation."
        }
      ]
    },
    "events": {
      "Initialized(uint64)": {
        "details": "Triggered when the contract has been initialized or reinitialized."
      }
    },
    "kind": "dev",
    "methods": {
      "onERC721Received(address,address,uint256,bytes)": {
        "details": "See {IERC721Receiver-onERC721Received}. Always returns `IERC721Receiver.onERC721Received.selector`."
      },
      "owner()": {
        "details": "Returns the address of the current owner."
      },
      "renounceOwnership()": {
        "details": "Leaves the contract without owner. It will not be possible to call `onlyOwner` functions. Can only be called by the current owner. NOTE: Renouncing ownership will leave the contract without an owner, thereby disabling any functionality that is only available to the owner."
      },
      "supportsInterface(bytes4)": {
        "details": "See {IERC165-supportsInterface}."
      },
      "transferOwnership(address)": {
        "details": "Transfers ownership of the contract to a new account (`newOwner`). Can only be called by the current owner."
      }
    },
    "version": 1
  },
  "userdoc": {
    "kind": "user",
    "methods": {},
    "version": 1
  },
  "storageLayout": {
    "storage": [
      {
        "astId": 1093,
        "contract": "contracts/PostOffice.sol:PostOffice",
        "label": "letters",
        "offset": 0,
        "slot": "0",
        "type": "t_mapping(t_bytes32,t_struct(Letter)1088_storage)"
      },
      {
        "astId": 1098,
        "contract": "contracts/PostOffice.sol:PostOffice",
        "label": "annex",
        "offset": 0,
        "slot": "1",
        "type": "t_mapping(t_bytes_memory_ptr,t_struct(Annex)1071_storage)"
      }
    ],
    "types": {
      "t_address": {
        "encoding": "inplace",
        "label": "address",
        "numberOfBytes": "20"
      },
      "t_bytes32": {
        "encoding": "inplace",
        "label": "bytes32",
        "numberOfBytes": "32"
      },
      "t_bytes_memory_ptr": {
        "encoding": "bytes",
        "label": "bytes",
        "numberOfBytes": "32"
      },
      "t_mapping(t_bytes32,t_struct(Letter)1088_storage)": {
        "encoding": "mapping",
        "key": "t_bytes32",
        "label": "mapping(bytes32 => struct PostOffice.Letter)",
        "numberOfBytes": "32",
        "value": "t_struct(Letter)1088_storage"
      },
      "t_mapping(t_bytes_memory_ptr,t_struct(Annex)1071_storage)": {
        "encoding": "mapping",
        "key": "t_bytes_memory_ptr",
        "label": "mapping(bytes => struct PostOffice.Annex)",
        "numberOfBytes": "32",
        "value": "t_struct(Annex)1071_storage"
      },
      "t_struct(Annex)1071_storage": {
        "encoding": "inplace",
        "label": "struct PostOffice.Annex",
        "members": [
          {
            "astId": 1064,
            "contract": "contracts/PostOffice.sol:PostOffice",
            "label": "_type",
            "offset": 0,
            "slot": "0",
            "type": "t_uint8"
          },
          {
            "astId": 1066,
            "contract": "contracts/PostOffice.sol:PostOffice",
            "label": "_address",
            "offset": 1,
            "slot": "0",
            "type": "t_address"
          },
          {
            "astId": 1068,
            "contract": "contracts/PostOffice.sol:PostOffice",
            "label": "_amount",
            "offset": 0,
            "slot": "1",
            "type": "t_uint256"
          },
          {
            "astId": 1070,
            "contract": "contracts/PostOffice.sol:PostOffice",
            "label": "_id",
            "offset": 0,
            "slot": "2",
            "type": "t_uint256"
          }
        ],
        "numberOfBytes": "96"
      },
      "t_struct(Letter)1088_storage": {
        "encoding": "inplace",
        "label": "struct PostOffice.Letter",
        "members": [
          {
            "astId": 1078,
            "contract": "contracts/PostOffice.sol:PostOffice",
            "label": "_sender",
            "offset": 0,
            "slot": "0",
            "type": "t_address"
          },
          {
            "astId": 1080,
            "contract": "contracts/PostOffice.sol:PostOffice",
            "label": "_receiver",
            "offset": 0,
            "slot": "1",
            "type": "t_address"
          },
          {
            "astId": 1082,
            "contract": "contracts/PostOffice.sol:PostOffice",
            "label": "_annexAmount",
            "offset": 0,
            "slot": "2",
            "type": "t_uint256"
          },
          {
            "astId": 1085,
            "contract": "contracts/PostOffice.sol:PostOffice",
            "label": "_payInfo",
            "offset": 0,
            "slot": "3",
            "type": "t_struct(PayInfo)1076_storage"
          },
          {
            "astId": 1087,
            "contract": "contracts/PostOffice.sol:PostOffice",
            "label": "_deadline",
            "offset": 0,
            "slot": "5",
            "type": "t_uint256"
          }
        ],
        "numberOfBytes": "192"
      },
      "t_struct(PayInfo)1076_storage": {
        "encoding": "inplace",
        "label": "struct PostOffice.PayInfo",
        "members": [
          {
            "astId": 1073,
            "contract": "contracts/PostOffice.sol:PostOffice",
            "label": "_token",
            "offset": 0,
            "slot": "0",
            "type": "t_address"
          },
          {
            "astId": 1075,
            "contract": "contracts/PostOffice.sol:PostOffice",
            "label": "_amount",
            "offset": 0,
            "slot": "1",
            "type": "t_uint256"
          }
        ],
        "numberOfBytes": "64"
      },
      "t_uint256": {
        "encoding": "inplace",
        "label": "uint256",
        "numberOfBytes": "32"
      },
      "t_uint8": {
        "encoding": "inplace",
        "label": "uint8",
        "numberOfBytes": "1"
      }
    }
  }
}