{
  "address": "0xabba4D35cCb5da1A0daaaF171C0480A25d802eD7",
  "abi": [
    {
      "inputs": [],
      "name": "InvalidInitialization",
      "type": "error"
    },
    {
      "inputs": [],
      "name": "NotInitializing",
      "type": "error"
    },
    {
      "anonymous": false,
      "inputs": [
        {
          "indexed": false,
          "internalType": "bytes32",
          "name": "_letterId",
          "type": "bytes32"
        }
      ],
      "name": "Claim",
      "type": "event"
    },
    {
      "anonymous": false,
      "inputs": [
        {
          "indexed": false,
          "internalType": "uint64",
          "name": "version",
          "type": "uint64"
        }
      ],
      "name": "Initialized",
      "type": "event"
    },
    {
      "anonymous": false,
      "inputs": [
        {
          "indexed": false,
          "internalType": "bytes32",
          "name": "_letterId",
          "type": "bytes32"
        },
        {
          "indexed": false,
          "internalType": "address",
          "name": "_sender",
          "type": "address"
        },
        {
          "indexed": false,
          "internalType": "address",
          "name": "_receiver",
          "type": "address"
        }
      ],
      "name": "SendLetter",
      "type": "event"
    },
    {
      "anonymous": false,
      "inputs": [
        {
          "indexed": false,
          "internalType": "bytes32",
          "name": "_letterId",
          "type": "bytes32"
        }
      ],
      "name": "TimeoutClaim",
      "type": "event"
    },
    {
      "inputs": [],
      "name": "ERC1155_TYPE",
      "outputs": [
        {
          "internalType": "uint8",
          "name": "",
          "type": "uint8"
        }
      ],
      "stateMutability": "view",
      "type": "function"
    },
    {
      "inputs": [],
      "name": "ERC20_TYPE",
      "outputs": [
        {
          "internalType": "uint8",
          "name": "",
          "type": "uint8"
        }
      ],
      "stateMutability": "view",
      "type": "function"
    },
    {
      "inputs": [],
      "name": "ERC721_TYPE",
      "outputs": [
        {
          "internalType": "uint8",
          "name": "",
          "type": "uint8"
        }
      ],
      "stateMutability": "view",
      "type": "function"
    },
    {
      "inputs": [],
      "name": "ETH_TYPE",
      "outputs": [
        {
          "internalType": "uint8",
          "name": "",
          "type": "uint8"
        }
      ],
      "stateMutability": "view",
      "type": "function"
    },
    {
      "inputs": [
        {
          "components": [
            {
              "internalType": "uint8",
              "name": "_type",
              "type": "uint8"
            },
            {
              "internalType": "address",
              "name": "_address",
              "type": "address"
            },
            {
              "internalType": "uint256",
              "name": "_amount",
              "type": "uint256"
            },
            {
              "internalType": "uint256",
              "name": "_id",
              "type": "uint256"
            }
          ],
          "internalType": "struct PostOffice.Annex[]",
          "name": "_annex",
          "type": "tuple[]"
        },
        {
          "components": [
            {
              "internalType": "address",
              "name": "_token",
              "type": "address"
            },
            {
              "internalType": "uint256",
              "name": "_amount",
              "type": "uint256"
            }
          ],
          "internalType": "struct PostOffice.PayInfo",
          "name": "_payInfo",
          "type": "tuple"
        },
        {
          "internalType": "address",
          "name": "_receiver",
          "type": "address"
        },
        {
          "internalType": "uint256",
          "name": "_deadline",
          "type": "uint256"
        }
      ],
      "name": "buildId",
      "outputs": [
        {
          "internalType": "bytes32",
          "name": "",
          "type": "bytes32"
        }
      ],
      "stateMutability": "view",
      "type": "function"
    },
    {
      "inputs": [
        {
          "internalType": "bytes32",
          "name": "_id",
          "type": "bytes32"
        }
      ],
      "name": "claim",
      "outputs": [],
      "stateMutability": "nonpayable",
      "type": "function"
    },
    {
      "inputs": [],
      "name": "initialize",
      "outputs": [],
      "stateMutability": "nonpayable",
      "type": "function"
    },
    {
      "inputs": [
        {
          "internalType": "bytes32",
          "name": "",
          "type": "bytes32"
        }
      ],
      "name": "letters",
      "outputs": [
        {
          "internalType": "address",
          "name": "_sender",
          "type": "address"
        },
        {
          "internalType": "address",
          "name": "_receiver",
          "type": "address"
        },
        {
          "internalType": "uint256",
          "name": "_annexAmount",
          "type": "uint256"
        },
        {
          "components": [
            {
              "internalType": "address",
              "name": "_token",
              "type": "address"
            },
            {
              "internalType": "uint256",
              "name": "_amount",
              "type": "uint256"
            }
          ],
          "internalType": "struct PostOffice.PayInfo",
          "name": "_payInfo",
          "type": "tuple"
        },
        {
          "internalType": "uint256",
          "name": "_deadline",
          "type": "uint256"
        }
      ],
      "stateMutability": "view",
      "type": "function"
    },
    {
      "inputs": [
        {
          "internalType": "address",
          "name": "",
          "type": "address"
        },
        {
          "internalType": "address",
          "name": "",
          "type": "address"
        },
        {
          "internalType": "uint256[]",
          "name": "",
          "type": "uint256[]"
        },
        {
          "internalType": "uint256[]",
          "name": "",
          "type": "uint256[]"
        },
        {
          "internalType": "bytes",
          "name": "",
          "type": "bytes"
        }
      ],
      "name": "onERC1155BatchReceived",
      "outputs": [
        {
          "internalType": "bytes4",
          "name": "",
          "type": "bytes4"
        }
      ],
      "stateMutability": "nonpayable",
      "type": "function"
    },
    {
      "inputs": [
        {
          "internalType": "address",
          "name": "",
          "type": "address"
        },
        {
          "internalType": "address",
          "name": "",
          "type": "address"
        },
        {
          "internalType": "uint256",
          "name": "",
          "type": "uint256"
        },
        {
          "internalType": "uint256",
          "name": "",
          "type": "uint256"
        },
        {
          "internalType": "bytes",
          "name": "",
          "type": "bytes"
        }
      ],
      "name": "onERC1155Received",
      "outputs": [
        {
          "internalType": "bytes4",
          "name": "",
          "type": "bytes4"
        }
      ],
      "stateMutability": "nonpayable",
      "type": "function"
    },
    {
      "inputs": [
        {
          "internalType": "address",
          "name": "",
          "type": "address"
        },
        {
          "internalType": "address",
          "name": "",
          "type": "address"
        },
        {
          "internalType": "uint256",
          "name": "",
          "type": "uint256"
        },
        {
          "internalType": "bytes",
          "name": "",
          "type": "bytes"
        }
      ],
      "name": "onERC721Received",
      "outputs": [
        {
          "internalType": "bytes4",
          "name": "",
          "type": "bytes4"
        }
      ],
      "stateMutability": "nonpayable",
      "type": "function"
    },
    {
      "inputs": [
        {
          "components": [
            {
              "internalType": "uint8",
              "name": "_type",
              "type": "uint8"
            },
            {
              "internalType": "address",
              "name": "_address",
              "type": "address"
            },
            {
              "internalType": "uint256",
              "name": "_amount",
              "type": "uint256"
            },
            {
              "internalType": "uint256",
              "name": "_id",
              "type": "uint256"
            }
          ],
          "internalType": "struct PostOffice.Annex[]",
          "name": "_annex",
          "type": "tuple[]"
        },
        {
          "components": [
            {
              "internalType": "address",
              "name": "_token",
              "type": "address"
            },
            {
              "internalType": "uint256",
              "name": "_amount",
              "type": "uint256"
            }
          ],
          "internalType": "struct PostOffice.PayInfo",
          "name": "_payInfo",
          "type": "tuple"
        },
        {
          "internalType": "address",
          "name": "_receiver",
          "type": "address"
        },
        {
          "internalType": "uint256",
          "name": "_deadline",
          "type": "uint256"
        }
      ],
      "name": "sendLetter",
      "outputs": [
        {
          "internalType": "bytes32",
          "name": "_letterId",
          "type": "bytes32"
        }
      ],
      "stateMutability": "payable",
      "type": "function"
    },
    {
      "inputs": [
        {
          "internalType": "bytes4",
          "name": "interfaceId",
          "type": "bytes4"
        }
      ],
      "name": "supportsInterface",
      "outputs": [
        {
          "internalType": "bool",
          "name": "",
          "type": "bool"
        }
      ],
      "stateMutability": "view",
      "type": "function"
    },
    {
      "inputs": [
        {
          "internalType": "bytes32",
          "name": "_id",
          "type": "bytes32"
        }
      ],
      "name": "timeoutClaim",
      "outputs": [],
      "stateMutability": "nonpayable",
      "type": "function"
    },
    {
      "stateMutability": "payable",
      "type": "receive"
    }
  ],
  "transactionHash": "0x91f35353ecf099e9128662913cab5b831b503eebf6ca29574818747e28ed0dfb",
  "args": [],
  "numDeployments": 1,
  "solcInputHash": "8e9b5075ee950bfa076361d86ec68770",
  "bytecode": "0x608060405234801561001057600080fd5b50611ae2806100206000396000f3fe6080604052600436106100e15760003560e01c806372798a891161007f578063b797447111610059578063b7974471146102a2578063bc197c81146102c2578063bd66528a146102ee578063f23a6e611461030e57600080fd5b806372798a89146102615780638129fc1c14610276578063916e4ed11461028d57600080fd5b80633be3f445116100bb5780633be3f4451461018d57806354b69269146101bb5780636a59fb34146102395780636f3769c01461024c57600080fd5b806301ffc9a7146100ed578063150b7a02146101225780632480aa421461016657600080fd5b366100e857005b600080fd5b3480156100f957600080fd5b5061010d6101083660046113a2565b61033a565b60405190151581526020015b60405180910390f35b34801561012e57600080fd5b5061014d61013d3660046114cc565b630a85bd0160e11b949350505050565b6040516001600160e01b03199091168152602001610119565b34801561017257600080fd5b5061017b600081565b60405160ff9091168152602001610119565b34801561019957600080fd5b506101ad6101a83660046115ac565b610371565b604051908152602001610119565b3480156101c757600080fd5b506102286101d63660046116bc565b60006020818152918152604090819020805460018201546002830154845180860190955260038401546001600160a01b0390811686526004850154968601969096526005909301549185169416929085565b6040516101199594939291906116d5565b6101ad6102473660046115ac565b6103ae565b34801561025857600080fd5b5061017b600181565b34801561026d57600080fd5b5061017b600281565b34801561028257600080fd5b5061028b6108e3565b005b34801561029957600080fd5b5061017b600381565b3480156102ae57600080fd5b5061028b6102bd3660046116bc565b6109e7565b3480156102ce57600080fd5b5061014d6102dd36600461178a565b63bc197c8160e01b95945050505050565b3480156102fa57600080fd5b5061028b6103093660046116bc565b610e8e565b34801561031a57600080fd5b5061014d610329366004611833565b63f23a6e6160e01b95945050505050565b60006001600160e01b03198216630271189760e51b148061036b57506301ffc9a760e01b6001600160e01b03198316145b92915050565b600084848484444260405160200161038e96959493929190611897565b604051602081830303815290604052805190602001209050949350505050565b60006103bc85858585610371565b905060005b85518110156107fc57600060ff168682815181106103e1576103e1611949565b60200260200101516000015160ff16036104765785818151811061040757610407611949565b6020026020010151604001513410156104765760405162461bcd60e51b815260206004820152602660248201527f506f73744f66666963653a20496e73756666696369656e7420616d6f756e74206044820152650decc40cae8d60d31b60648201526084015b60405180910390fd5b600160ff1686828151811061048d5761048d611949565b60200260200101516000015160ff1603610550578581815181106104b3576104b3611949565b6020026020010151602001516001600160a01b03166323b872dd33308985815181106104e1576104e1611949565b6020026020010151604001516040518463ffffffff1660e01b815260040161050b9392919061195f565b6020604051808303816000875af115801561052a573d6000803e3d6000fd5b505050506040513d601f19601f8201168201806040525081019061054e9190611983565b505b600260ff1686828151811061056757610567611949565b60200260200101516000015160ff16036106185785818151811061058d5761058d611949565b6020026020010151602001516001600160a01b03166323b872dd33308985815181106105bb576105bb611949565b6020026020010151606001516040518463ffffffff1660e01b81526004016105e59392919061195f565b600060405180830381600087803b1580156105ff57600080fd5b505af1158015610613573d6000803e3d6000fd5b505050505b600360ff1686828151811061062f5761062f611949565b60200260200101516000015160ff16036107445785818151811061065557610655611949565b6020026020010151602001516001600160a01b031663f242432a333089858151811061068357610683611949565b6020026020010151606001518a86815181106106a1576106a1611949565b60200260200101516040015160006001600160401b038111156106c6576106c66113ef565b6040519080825280601f01601f1916602001820160405280156106f0576020820181803683370190505b506040518663ffffffff1660e01b81526004016107119594939291906119c9565b600060405180830381600087803b15801561072b57600080fd5b505af115801561073f573d6000803e3d6000fd5b505050505b85818151811061075657610756611949565b60200260200101516001838360405160200161077c929190918252602082015260400190565b60408051601f198184030181529082905261079691611a24565b9081526040805191829003602090810190922083518154938501516001600160a01b0316610100026001600160a81b031990941660ff909116179290921782558201516001820155606090910151600290910155806107f481611a40565b9150506103c1565b506040805160a081018252338082526001600160a01b0386811660208085018281528b5186880190815260608088018d8152608089018c815260008c81528087528b90208a5181546001600160a01b0319908116918b1691909117825595516001820180548816918b16919091179055935160028501559051805160038501805490961698169790971790935594830151600482015590516005909101558551878152908101939093529382019390935290917fada4ef1c495169666d81d25d1642fd527340c2a57ee91092a54a098dfd2b3644910160405180910390a150949350505050565b7ff0c57e16840df040f15088dc2f81fe391c3923bec73e23a9662efc9c229c6a008054600160401b810460ff1615906001600160401b03166000811580156109285750825b90506000826001600160401b031660011480156109445750303b155b905081158015610952575080155b156109705760405163f92ee8a960e01b815260040160405180910390fd5b845467ffffffffffffffff19166001178555831561099a57845460ff60401b1916600160401b1785555b83156109e057845460ff60401b19168555604051600181527fc7f505b2f371ae2175ee4913f4499e1f2633a7b5936321eed1cdaeb6115181d29060200160405180910390a15b5050505050565b600081815260208181526040808320815160a08101835281546001600160a01b038082168352600184018054808316858901526002860180548689015287518089019098526003870180548086168a526004890180548b8d0152606089019a909a5260058901805460808a01528d8d529a8c90526001600160a01b0319968716909855918516909255908890559190931690559184905592909155805190911615610aa45760405162461bcd60e51b815260040161046d90611a67565b80516001600160a01b03163314610b085760405162461bcd60e51b815260206004820152602260248201527f506f73744f66666963653a20596f7520617265206e6f74207468652073656e6460448201526132b960f11b606482015260840161046d565b42816080015111610b6e5760405162461bcd60e51b815260206004820152602a60248201527f506f73744f66666963653a20546865206c657474657220686173206e6f7420656044820152691e1c1a5c9959081e595d60b21b606482015260840161046d565b60005b8160400151811015610e5557604080516020810185905290810182905260009060600160405160208183030381529060405290506000600182604051610bb79190611a24565b9081526040805160209281900383018120608082018352805460ff81168084526101009091046001600160a01b03169483019490945260018101549282019290925260029091015460608201529150610c3c576040808201519051339180156108fc02916000818181858888f19350505050158015610c3a573d6000803e3d6000fd5b505b805160ff1660001901610cc8576020810151604080830151905163a9059cbb60e01b815233600482015260248101919091526001600160a01b039091169063a9059cbb906044016020604051808303816000875af1158015610ca2573d6000803e3d6000fd5b505050506040513d601f19601f82011682018060405250810190610cc69190611983565b505b805160ff1660011901610d415760208101516060820151604051632142170760e11b81526001600160a01b03909216916342842e0e91610d0e913091339160040161195f565b600060405180830381600087803b158015610d2857600080fd5b505af1158015610d3c573d6000803e3d6000fd5b505050505b805160ff1660021901610e045780602001516001600160a01b031663f242432a30338460600151856040015160006001600160401b03811115610d8657610d866113ef565b6040519080825280601f01601f191660200182016040528015610db0576020820181803683370190505b506040518663ffffffff1660e01b8152600401610dd19594939291906119c9565b600060405180830381600087803b158015610deb57600080fd5b505af1158015610dff573d6000803e3d6000fd5b505050505b600182604051610e149190611a24565b90815260405190819003602001902080546001600160a81b031916815560006001820181905560029091015550819050610e4d81611a40565b915050610b71565b506040518281527fb7b05d3a6508c3fc98e29961e39eff690a7e939862c71ad741250a5d2d30d04c906020015b60405180910390a15050565b600081815260208181526040808320815160a08101835281546001600160a01b038082168352600184018054808316858901526002860180548689015287518089019098526003870180548086168a526004890180548b8d0152606089019a909a5260058901805460808a01528d8d529a8c90526001600160a01b0319968716909855918516909255908890559190931690559184905592909155805190911615610f4b5760405162461bcd60e51b815260040161046d90611a67565b60208101516001600160a01b03163314610fb55760405162461bcd60e51b815260206004820152602560248201527f506f73744f66666963653a20596f7520617265206e6f742074686520726563696044820152641c1a595b9d60da1b606482015260840161046d565b42816080015111156110095760405162461bcd60e51b815260206004820181905260248201527f506f73744f66666963653a204c6574746572206861732074696d6564206f7574604482015260640161046d565b6060810151805182516020909201516040516323b872dd60e01b81526001600160a01b03909216926323b872dd926110469233929160040161195f565b6020604051808303816000875af1158015611065573d6000803e3d6000fd5b505050506040513d601f19601f820116820180604052508101906110899190611983565b5060005b8160400151811015611371576040805160208101859052908101829052600090606001604051602081830303815290604052905060006001826040516110d39190611a24565b9081526040805160209281900383018120608082018352805460ff81168084526101009091046001600160a01b03169483019490945260018101549282019290925260029091015460608201529150611158576040808201519051339180156108fc02916000818181858888f19350505050158015611156573d6000803e3d6000fd5b505b805160ff16600019016111e4576020810151604080830151905163a9059cbb60e01b815233600482015260248101919091526001600160a01b039091169063a9059cbb906044016020604051808303816000875af11580156111be573d6000803e3d6000fd5b505050506040513d601f19601f820116820180604052508101906111e29190611983565b505b805160ff166001190161125d5760208101516060820151604051632142170760e11b81526001600160a01b03909216916342842e0e9161122a913091339160040161195f565b600060405180830381600087803b15801561124457600080fd5b505af1158015611258573d6000803e3d6000fd5b505050505b805160ff16600219016113205780602001516001600160a01b031663f242432a30338460600151856040015160006001600160401b038111156112a2576112a26113ef565b6040519080825280601f01601f1916602001820160405280156112cc576020820181803683370190505b506040518663ffffffff1660e01b81526004016112ed9594939291906119c9565b600060405180830381600087803b15801561130757600080fd5b505af115801561131b573d6000803e3d6000fd5b505050505b6001826040516113309190611a24565b90815260405190819003602001902080546001600160a81b03191681556000600182018190556002909101555081905061136981611a40565b91505061108d565b506040518281527f8c1d64e3bd87387709175b9ef4e7a1d7a8364559fc0e2ad9d77953909a0d1eb390602001610e82565b6000602082840312156113b457600080fd5b81356001600160e01b0319811681146113cc57600080fd5b9392505050565b80356001600160a01b03811681146113ea57600080fd5b919050565b634e487b7160e01b600052604160045260246000fd5b604051608081016001600160401b0381118282101715611427576114276113ef565b60405290565b604051601f8201601f191681016001600160401b0381118282101715611455576114556113ef565b604052919050565b600082601f83011261146e57600080fd5b81356001600160401b03811115611487576114876113ef565b61149a601f8201601f191660200161142d565b8181528460208386010111156114af57600080fd5b816020850160208301376000918101602001919091529392505050565b600080600080608085870312156114e257600080fd5b6114eb856113d3565b93506114f9602086016113d3565b92506040850135915060608501356001600160401b0381111561151b57600080fd5b6115278782880161145d565b91505092959194509250565b60006001600160401b0382111561154c5761154c6113ef565b5060051b60200190565b60006040828403121561156857600080fd5b604051604081018181106001600160401b038211171561158a5761158a6113ef565b604052905080611599836113d3565b8152602083013560208201525092915050565b60008060008060a085870312156115c257600080fd5b84356001600160401b038111156115d857600080fd5b8501601f810187136115e957600080fd5b803560206115fe6115f983611533565b61142d565b82815260079290921b8301810191818101908a84111561161d57600080fd5b938201935b8385101561168b576080858c03121561163b5760008081fd5b611643611405565b853560ff811681146116555760008081fd5b81526116628685016113d3565b818501526040868101359082015260608087013590820152825260809094019390820190611622565b975061169b905089898301611556565b95505050506116ac606086016113d3565b9396929550929360800135925050565b6000602082840312156116ce57600080fd5b5035919050565b6001600160a01b038681168252851660208201526040810184905260c08101611714606083018580516001600160a01b03168252602090810151910152565b8260a08301529695505050505050565b600082601f83011261173557600080fd5b813560206117456115f983611533565b82815260059290921b8401810191818101908684111561176457600080fd5b8286015b8481101561177f5780358352918301918301611768565b509695505050505050565b600080600080600060a086880312156117a257600080fd5b6117ab866113d3565b94506117b9602087016113d3565b935060408601356001600160401b03808211156117d557600080fd5b6117e189838a01611724565b945060608801359150808211156117f757600080fd5b61180389838a01611724565b9350608088013591508082111561181957600080fd5b506118268882890161145d565b9150509295509295909350565b600080600080600060a0868803121561184b57600080fd5b611854866113d3565b9450611862602087016113d3565b9350604086013592506060860135915060808601356001600160401b0381111561188b57600080fd5b6118268882890161145d565b60e08082528751908201819052600090602090610100840190828b01845b828110156118fd578151805160ff168552858101516001600160a01b0316868601526040808201519086015260609081015190850152608090930192908401906001016118b5565b505089516001600160a01b03168584019081526020808c0151910152509150506001600160a01b03861660608301528460808301528360a08301528260c0830152979650505050505050565b634e487b7160e01b600052603260045260246000fd5b6001600160a01b039384168152919092166020820152604081019190915260600190565b60006020828403121561199557600080fd5b815180151581146113cc57600080fd5b60005b838110156119c05781810151838201526020016119a8565b50506000910152565b600060018060a01b03808816835280871660208401525084604083015283606083015260a0608083015282518060a0840152611a0c8160c08501602087016119a5565b601f01601f19169190910160c0019695505050505050565b60008251611a368184602087016119a5565b9190910192915050565b600060018201611a6057634e487b7160e01b600052601160045260246000fd5b5060010190565b60208082526025908201527f506f73744f66666963653a20546865206c657474657220646f6573206e6f7420604082015264195e1a5cdd60da1b60608201526080019056fea2646970667358221220675d1f9ff6b4ce9581feb9d98e14aa93bffcc3fc79847ab0e0aa3fa3aadedeef64736f6c63430008140033",
  "devdoc": {
    "errors": {
      "InvalidInitialization()": [
        {
          "details": "The contract is already initialized."
        }
      ],
      "NotInitializing()": [
        {
          "details": "The contract is not initializing."
        }
      ]
    },
    "events": {
      "Initialized(uint64)": {
        "details": "Triggered when the contract has been initialized or reinitialized."
      }
    },
    "kind": "dev",
    "methods": {
      "onERC721Received(address,address,uint256,bytes)": {
        "details": "See {IERC721Receiver-onERC721Received}. Always returns `IERC721Receiver.onERC721Received.selector`."
      },
      "supportsInterface(bytes4)": {
        "details": "See {IERC165-supportsInterface}."
      }
    },
    "version": 1
  },
  "userdoc": {
    "kind": "user",
    "methods": {},
    "version": 1
  },
  "storageLayout": {
    "storage": [
      {
        "astId": 848,
        "contract": "contracts/PostOffice.sol:PostOffice",
        "label": "letters",
        "offset": 0,
        "slot": "0",
        "type": "t_mapping(t_bytes32,t_struct(Letter)843_storage)"
      },
      {
        "astId": 853,
        "contract": "contracts/PostOffice.sol:PostOffice",
        "label": "annex",
        "offset": 0,
        "slot": "1",
        "type": "t_mapping(t_bytes_memory_ptr,t_struct(Annex)826_storage)"
      }
    ],
    "types": {
      "t_address": {
        "encoding": "inplace",
        "label": "address",
        "numberOfBytes": "20"
      },
      "t_bytes32": {
        "encoding": "inplace",
        "label": "bytes32",
        "numberOfBytes": "32"
      },
      "t_bytes_memory_ptr": {
        "encoding": "bytes",
        "label": "bytes",
        "numberOfBytes": "32"
      },
      "t_mapping(t_bytes32,t_struct(Letter)843_storage)": {
        "encoding": "mapping",
        "key": "t_bytes32",
        "label": "mapping(bytes32 => struct PostOffice.Letter)",
        "numberOfBytes": "32",
        "value": "t_struct(Letter)843_storage"
      },
      "t_mapping(t_bytes_memory_ptr,t_struct(Annex)826_storage)": {
        "encoding": "mapping",
        "key": "t_bytes_memory_ptr",
        "label": "mapping(bytes => struct PostOffice.Annex)",
        "numberOfBytes": "32",
        "value": "t_struct(Annex)826_storage"
      },
      "t_struct(Annex)826_storage": {
        "encoding": "inplace",
        "label": "struct PostOffice.Annex",
        "members": [
          {
            "astId": 819,
            "contract": "contracts/PostOffice.sol:PostOffice",
            "label": "_type",
            "offset": 0,
            "slot": "0",
            "type": "t_uint8"
          },
          {
            "astId": 821,
            "contract": "contracts/PostOffice.sol:PostOffice",
            "label": "_address",
            "offset": 1,
            "slot": "0",
            "type": "t_address"
          },
          {
            "astId": 823,
            "contract": "contracts/PostOffice.sol:PostOffice",
            "label": "_amount",
            "offset": 0,
            "slot": "1",
            "type": "t_uint256"
          },
          {
            "astId": 825,
            "contract": "contracts/PostOffice.sol:PostOffice",
            "label": "_id",
            "offset": 0,
            "slot": "2",
            "type": "t_uint256"
          }
        ],
        "numberOfBytes": "96"
      },
      "t_struct(Letter)843_storage": {
        "encoding": "inplace",
        "label": "struct PostOffice.Letter",
        "members": [
          {
            "astId": 833,
            "contract": "contracts/PostOffice.sol:PostOffice",
            "label": "_sender",
            "offset": 0,
            "slot": "0",
            "type": "t_address"
          },
          {
            "astId": 835,
            "contract": "contracts/PostOffice.sol:PostOffice",
            "label": "_receiver",
            "offset": 0,
            "slot": "1",
            "type": "t_address"
          },
          {
            "astId": 837,
            "contract": "contracts/PostOffice.sol:PostOffice",
            "label": "_annexAmount",
            "offset": 0,
            "slot": "2",
            "type": "t_uint256"
          },
          {
            "astId": 840,
            "contract": "contracts/PostOffice.sol:PostOffice",
            "label": "_payInfo",
            "offset": 0,
            "slot": "3",
            "type": "t_struct(PayInfo)831_storage"
          },
          {
            "astId": 842,
            "contract": "contracts/PostOffice.sol:PostOffice",
            "label": "_deadline",
            "offset": 0,
            "slot": "5",
            "type": "t_uint256"
          }
        ],
        "numberOfBytes": "192"
      },
      "t_struct(PayInfo)831_storage": {
        "encoding": "inplace",
        "label": "struct PostOffice.PayInfo",
        "members": [
          {
            "astId": 828,
            "contract": "contracts/PostOffice.sol:PostOffice",
            "label": "_token",
            "offset": 0,
            "slot": "0",
            "type": "t_address"
          },
          {
            "astId": 830,
            "contract": "contracts/PostOffice.sol:PostOffice",
            "label": "_amount",
            "offset": 0,
            "slot": "1",
            "type": "t_uint256"
          }
        ],
        "numberOfBytes": "64"
      },
      "t_uint256": {
        "encoding": "inplace",
        "label": "uint256",
        "numberOfBytes": "32"
      },
      "t_uint8": {
        "encoding": "inplace",
        "label": "uint8",
        "numberOfBytes": "1"
      }
    }
  }
}