{
  "address": "0x22dd28AaAc436a4458af02602D159eeFcE833fE8",
  "abi": [
    {
      "inputs": [],
      "name": "InvalidInitialization",
      "type": "error"
    },
    {
      "inputs": [],
      "name": "NotInitializing",
      "type": "error"
    },
    {
      "anonymous": false,
      "inputs": [
        {
          "indexed": false,
          "internalType": "bytes32",
          "name": "_letterId",
          "type": "bytes32"
        }
      ],
      "name": "Claim",
      "type": "event"
    },
    {
      "anonymous": false,
      "inputs": [
        {
          "indexed": false,
          "internalType": "uint64",
          "name": "version",
          "type": "uint64"
        }
      ],
      "name": "Initialized",
      "type": "event"
    },
    {
      "anonymous": false,
      "inputs": [
        {
          "indexed": false,
          "internalType": "bytes32",
          "name": "_letterId",
          "type": "bytes32"
        },
        {
          "indexed": false,
          "internalType": "address",
          "name": "_sender",
          "type": "address"
        },
        {
          "indexed": false,
          "internalType": "address",
          "name": "_receiver",
          "type": "address"
        }
      ],
      "name": "SendLetter",
      "type": "event"
    },
    {
      "anonymous": false,
      "inputs": [
        {
          "indexed": false,
          "internalType": "bytes32",
          "name": "_letterId",
          "type": "bytes32"
        }
      ],
      "name": "TimeoutClaim",
      "type": "event"
    },
    {
      "inputs": [],
      "name": "ERC1155_TYPE",
      "outputs": [
        {
          "internalType": "uint8",
          "name": "",
          "type": "uint8"
        }
      ],
      "stateMutability": "view",
      "type": "function"
    },
    {
      "inputs": [],
      "name": "ERC20_TYPE",
      "outputs": [
        {
          "internalType": "uint8",
          "name": "",
          "type": "uint8"
        }
      ],
      "stateMutability": "view",
      "type": "function"
    },
    {
      "inputs": [],
      "name": "ERC721_TYPE",
      "outputs": [
        {
          "internalType": "uint8",
          "name": "",
          "type": "uint8"
        }
      ],
      "stateMutability": "view",
      "type": "function"
    },
    {
      "inputs": [],
      "name": "ETH_TYPE",
      "outputs": [
        {
          "internalType": "uint8",
          "name": "",
          "type": "uint8"
        }
      ],
      "stateMutability": "view",
      "type": "function"
    },
    {
      "inputs": [
        {
          "internalType": "bytes",
          "name": "",
          "type": "bytes"
        }
      ],
      "name": "annex",
      "outputs": [
        {
          "internalType": "uint8",
          "name": "_type",
          "type": "uint8"
        },
        {
          "internalType": "address",
          "name": "_address",
          "type": "address"
        },
        {
          "internalType": "uint256",
          "name": "_amount",
          "type": "uint256"
        },
        {
          "internalType": "uint256",
          "name": "_id",
          "type": "uint256"
        }
      ],
      "stateMutability": "view",
      "type": "function"
    },
    {
      "inputs": [
        {
          "components": [
            {
              "internalType": "uint8",
              "name": "_type",
              "type": "uint8"
            },
            {
              "internalType": "address",
              "name": "_address",
              "type": "address"
            },
            {
              "internalType": "uint256",
              "name": "_amount",
              "type": "uint256"
            },
            {
              "internalType": "uint256",
              "name": "_id",
              "type": "uint256"
            }
          ],
          "internalType": "struct PostOffice.Annex[]",
          "name": "_annex",
          "type": "tuple[]"
        },
        {
          "components": [
            {
              "internalType": "address",
              "name": "_token",
              "type": "address"
            },
            {
              "internalType": "uint256",
              "name": "_amount",
              "type": "uint256"
            }
          ],
          "internalType": "struct PostOffice.PayInfo",
          "name": "_payInfo",
          "type": "tuple"
        },
        {
          "internalType": "address",
          "name": "_receiver",
          "type": "address"
        },
        {
          "internalType": "uint256",
          "name": "_deadline",
          "type": "uint256"
        }
      ],
      "name": "buildId",
      "outputs": [
        {
          "internalType": "bytes32",
          "name": "",
          "type": "bytes32"
        }
      ],
      "stateMutability": "view",
      "type": "function"
    },
    {
      "inputs": [
        {
          "internalType": "bytes32",
          "name": "_id",
          "type": "bytes32"
        }
      ],
      "name": "claim",
      "outputs": [],
      "stateMutability": "nonpayable",
      "type": "function"
    },
    {
      "inputs": [],
      "name": "initialize",
      "outputs": [],
      "stateMutability": "nonpayable",
      "type": "function"
    },
    {
      "inputs": [
        {
          "internalType": "bytes32",
          "name": "",
          "type": "bytes32"
        }
      ],
      "name": "letters",
      "outputs": [
        {
          "internalType": "address",
          "name": "_sender",
          "type": "address"
        },
        {
          "internalType": "address",
          "name": "_receiver",
          "type": "address"
        },
        {
          "internalType": "uint256",
          "name": "_annexAmount",
          "type": "uint256"
        },
        {
          "components": [
            {
              "internalType": "address",
              "name": "_token",
              "type": "address"
            },
            {
              "internalType": "uint256",
              "name": "_amount",
              "type": "uint256"
            }
          ],
          "internalType": "struct PostOffice.PayInfo",
          "name": "_payInfo",
          "type": "tuple"
        },
        {
          "internalType": "uint256",
          "name": "_deadline",
          "type": "uint256"
        }
      ],
      "stateMutability": "view",
      "type": "function"
    },
    {
      "inputs": [
        {
          "internalType": "address",
          "name": "",
          "type": "address"
        },
        {
          "internalType": "address",
          "name": "",
          "type": "address"
        },
        {
          "internalType": "uint256[]",
          "name": "",
          "type": "uint256[]"
        },
        {
          "internalType": "uint256[]",
          "name": "",
          "type": "uint256[]"
        },
        {
          "internalType": "bytes",
          "name": "",
          "type": "bytes"
        }
      ],
      "name": "onERC1155BatchReceived",
      "outputs": [
        {
          "internalType": "bytes4",
          "name": "",
          "type": "bytes4"
        }
      ],
      "stateMutability": "nonpayable",
      "type": "function"
    },
    {
      "inputs": [
        {
          "internalType": "address",
          "name": "",
          "type": "address"
        },
        {
          "internalType": "address",
          "name": "",
          "type": "address"
        },
        {
          "internalType": "uint256",
          "name": "",
          "type": "uint256"
        },
        {
          "internalType": "uint256",
          "name": "",
          "type": "uint256"
        },
        {
          "internalType": "bytes",
          "name": "",
          "type": "bytes"
        }
      ],
      "name": "onERC1155Received",
      "outputs": [
        {
          "internalType": "bytes4",
          "name": "",
          "type": "bytes4"
        }
      ],
      "stateMutability": "nonpayable",
      "type": "function"
    },
    {
      "inputs": [
        {
          "internalType": "address",
          "name": "",
          "type": "address"
        },
        {
          "internalType": "address",
          "name": "",
          "type": "address"
        },
        {
          "internalType": "uint256",
          "name": "",
          "type": "uint256"
        },
        {
          "internalType": "bytes",
          "name": "",
          "type": "bytes"
        }
      ],
      "name": "onERC721Received",
      "outputs": [
        {
          "internalType": "bytes4",
          "name": "",
          "type": "bytes4"
        }
      ],
      "stateMutability": "nonpayable",
      "type": "function"
    },
    {
      "inputs": [
        {
          "components": [
            {
              "internalType": "uint8",
              "name": "_type",
              "type": "uint8"
            },
            {
              "internalType": "address",
              "name": "_address",
              "type": "address"
            },
            {
              "internalType": "uint256",
              "name": "_amount",
              "type": "uint256"
            },
            {
              "internalType": "uint256",
              "name": "_id",
              "type": "uint256"
            }
          ],
          "internalType": "struct PostOffice.Annex[]",
          "name": "_annex",
          "type": "tuple[]"
        },
        {
          "components": [
            {
              "internalType": "address",
              "name": "_token",
              "type": "address"
            },
            {
              "internalType": "uint256",
              "name": "_amount",
              "type": "uint256"
            }
          ],
          "internalType": "struct PostOffice.PayInfo",
          "name": "_payInfo",
          "type": "tuple"
        },
        {
          "internalType": "address",
          "name": "_receiver",
          "type": "address"
        },
        {
          "internalType": "uint256",
          "name": "_deadline",
          "type": "uint256"
        }
      ],
      "name": "sendLetter",
      "outputs": [
        {
          "internalType": "bytes32",
          "name": "_letterId",
          "type": "bytes32"
        }
      ],
      "stateMutability": "payable",
      "type": "function"
    },
    {
      "inputs": [
        {
          "internalType": "bytes4",
          "name": "interfaceId",
          "type": "bytes4"
        }
      ],
      "name": "supportsInterface",
      "outputs": [
        {
          "internalType": "bool",
          "name": "",
          "type": "bool"
        }
      ],
      "stateMutability": "view",
      "type": "function"
    },
    {
      "inputs": [
        {
          "internalType": "bytes32",
          "name": "_id",
          "type": "bytes32"
        }
      ],
      "name": "timeoutClaim",
      "outputs": [],
      "stateMutability": "nonpayable",
      "type": "function"
    },
    {
      "stateMutability": "payable",
      "type": "receive"
    }
  ],
  "transactionHash": "0xa05ecc3e2ef1ffc180c0d683a3dabea5d068543ad3f7808033c0b18db49ba32b",
  "args": [],
  "numDeployments": 1,
  "solcInputHash": "a9fa382d511a04b725b244f0c52ebfca",
  "bytecode": "0x608060405234801561001057600080fd5b50611bb3806100206000396000f3fe6080604052600436106100ec5760003560e01c80636f3769c01161008a578063b797447111610059578063b797447114610337578063bc197c8114610357578063bd66528a14610383578063f23a6e61146103a357600080fd5b80636f3769c0146102e157806372798a89146102f65780638129fc1c1461030b578063916e4ed11461032257600080fd5b80632480aa42116100c65780632480aa42146101fb5780633be3f4451461022257806354b69269146102505780636a59fb34146102ce57600080fd5b806301ffc9a7146100f857806304f335cf1461012d578063150b7a02146101b757600080fd5b366100f357005b600080fd5b34801561010457600080fd5b50610118610113366004611437565b6103cf565b60405190151581526020015b60405180910390f35b34801561013957600080fd5b5061018b610148366004611545565b80516020818301810180516001808352938301929094019190912092905281549082015460029092015460ff8216926101009092046001600160a01b0316919084565b6040805160ff90951685526001600160a01b039093166020850152918301526060820152608001610124565b3480156101c357600080fd5b506101e26101d236600461159d565b630a85bd0160e11b949350505050565b6040516001600160e01b03199091168152602001610124565b34801561020757600080fd5b50610210600081565b60405160ff9091168152602001610124565b34801561022e57600080fd5b5061024261023d36600461167d565b610406565b604051908152602001610124565b34801561025c57600080fd5b506102bd61026b36600461178d565b60006020818152918152604090819020805460018201546002830154845180860190955260038401546001600160a01b0390811686526004850154968601969096526005909301549185169416929085565b6040516101249594939291906117a6565b6102426102dc36600461167d565b610443565b3480156102ed57600080fd5b50610210600181565b34801561030257600080fd5b50610210600281565b34801561031757600080fd5b50610320610978565b005b34801561032e57600080fd5b50610210600381565b34801561034357600080fd5b5061032061035236600461178d565b610a7c565b34801561036357600080fd5b506101e261037236600461185b565b63bc197c8160e01b95945050505050565b34801561038f57600080fd5b5061032061039e36600461178d565b610f23565b3480156103af57600080fd5b506101e26103be366004611904565b63f23a6e6160e01b95945050505050565b60006001600160e01b03198216630271189760e51b148061040057506301ffc9a760e01b6001600160e01b03198316145b92915050565b600084848484444260405160200161042396959493929190611968565b604051602081830303815290604052805190602001209050949350505050565b600061045185858585610406565b905060005b855181101561089157600060ff1686828151811061047657610476611a1a565b60200260200101516000015160ff160361050b5785818151811061049c5761049c611a1a565b60200260200101516040015134101561050b5760405162461bcd60e51b815260206004820152602660248201527f506f73744f66666963653a20496e73756666696369656e7420616d6f756e74206044820152650decc40cae8d60d31b60648201526084015b60405180910390fd5b600160ff1686828151811061052257610522611a1a565b60200260200101516000015160ff16036105e55785818151811061054857610548611a1a565b6020026020010151602001516001600160a01b03166323b872dd333089858151811061057657610576611a1a565b6020026020010151604001516040518463ffffffff1660e01b81526004016105a093929190611a30565b6020604051808303816000875af11580156105bf573d6000803e3d6000fd5b505050506040513d601f19601f820116820180604052508101906105e39190611a54565b505b600260ff168682815181106105fc576105fc611a1a565b60200260200101516000015160ff16036106ad5785818151811061062257610622611a1a565b6020026020010151602001516001600160a01b03166323b872dd333089858151811061065057610650611a1a565b6020026020010151606001516040518463ffffffff1660e01b815260040161067a93929190611a30565b600060405180830381600087803b15801561069457600080fd5b505af11580156106a8573d6000803e3d6000fd5b505050505b600360ff168682815181106106c4576106c4611a1a565b60200260200101516000015160ff16036107d9578581815181106106ea576106ea611a1a565b6020026020010151602001516001600160a01b031663f242432a333089858151811061071857610718611a1a565b6020026020010151606001518a868151811061073657610736611a1a565b60200260200101516040015160006001600160401b0381111561075b5761075b611468565b6040519080825280601f01601f191660200182016040528015610785576020820181803683370190505b506040518663ffffffff1660e01b81526004016107a6959493929190611a9a565b600060405180830381600087803b1580156107c057600080fd5b505af11580156107d4573d6000803e3d6000fd5b505050505b8581815181106107eb576107eb611a1a565b602002602001015160018383604051602001610811929190918252602082015260400190565b60408051601f198184030181529082905261082b91611af5565b9081526040805191829003602090810190922083518154938501516001600160a01b0316610100026001600160a81b031990941660ff9091161792909217825582015160018201556060909101516002909101558061088981611b11565b915050610456565b506040805160a081018252338082526001600160a01b0386811660208085018281528b5186880190815260608088018d8152608089018c815260008c81528087528b90208a5181546001600160a01b0319908116918b1691909117825595516001820180548816918b16919091179055935160028501559051805160038501805490961698169790971790935594830151600482015590516005909101558551878152908101939093529382019390935290917fada4ef1c495169666d81d25d1642fd527340c2a57ee91092a54a098dfd2b3644910160405180910390a150949350505050565b7ff0c57e16840df040f15088dc2f81fe391c3923bec73e23a9662efc9c229c6a008054600160401b810460ff1615906001600160401b03166000811580156109bd5750825b90506000826001600160401b031660011480156109d95750303b155b9050811580156109e7575080155b15610a055760405163f92ee8a960e01b815260040160405180910390fd5b845467ffffffffffffffff191660011785558315610a2f57845460ff60401b1916600160401b1785555b8315610a7557845460ff60401b19168555604051600181527fc7f505b2f371ae2175ee4913f4499e1f2633a7b5936321eed1cdaeb6115181d29060200160405180910390a15b5050505050565b600081815260208181526040808320815160a08101835281546001600160a01b038082168352600184018054808316858901526002860180548689015287518089019098526003870180548086168a526004890180548b8d0152606089019a909a5260058901805460808a01528d8d529a8c90526001600160a01b0319968716909855918516909255908890559190931690559184905592909155805190911615610b395760405162461bcd60e51b815260040161050290611b38565b80516001600160a01b03163314610b9d5760405162461bcd60e51b815260206004820152602260248201527f506f73744f66666963653a20596f7520617265206e6f74207468652073656e6460448201526132b960f11b6064820152608401610502565b42816080015111610c035760405162461bcd60e51b815260206004820152602a60248201527f506f73744f66666963653a20546865206c657474657220686173206e6f7420656044820152691e1c1a5c9959081e595d60b21b6064820152608401610502565b60005b8160400151811015610eea57604080516020810185905290810182905260009060600160405160208183030381529060405290506000600182604051610c4c9190611af5565b9081526040805160209281900383018120608082018352805460ff81168084526101009091046001600160a01b03169483019490945260018101549282019290925260029091015460608201529150610cd1576040808201519051339180156108fc02916000818181858888f19350505050158015610ccf573d6000803e3d6000fd5b505b805160ff1660001901610d5d576020810151604080830151905163a9059cbb60e01b815233600482015260248101919091526001600160a01b039091169063a9059cbb906044016020604051808303816000875af1158015610d37573d6000803e3d6000fd5b505050506040513d601f19601f82011682018060405250810190610d5b9190611a54565b505b805160ff1660011901610dd65760208101516060820151604051632142170760e11b81526001600160a01b03909216916342842e0e91610da39130913391600401611a30565b600060405180830381600087803b158015610dbd57600080fd5b505af1158015610dd1573d6000803e3d6000fd5b505050505b805160ff1660021901610e995780602001516001600160a01b031663f242432a30338460600151856040015160006001600160401b03811115610e1b57610e1b611468565b6040519080825280601f01601f191660200182016040528015610e45576020820181803683370190505b506040518663ffffffff1660e01b8152600401610e66959493929190611a9a565b600060405180830381600087803b158015610e8057600080fd5b505af1158015610e94573d6000803e3d6000fd5b505050505b600182604051610ea99190611af5565b90815260405190819003602001902080546001600160a81b031916815560006001820181905560029091015550819050610ee281611b11565b915050610c06565b506040518281527fb7b05d3a6508c3fc98e29961e39eff690a7e939862c71ad741250a5d2d30d04c906020015b60405180910390a15050565b600081815260208181526040808320815160a08101835281546001600160a01b038082168352600184018054808316858901526002860180548689015287518089019098526003870180548086168a526004890180548b8d0152606089019a909a5260058901805460808a01528d8d529a8c90526001600160a01b0319968716909855918516909255908890559190931690559184905592909155805190911615610fe05760405162461bcd60e51b815260040161050290611b38565b60208101516001600160a01b0316331461104a5760405162461bcd60e51b815260206004820152602560248201527f506f73744f66666963653a20596f7520617265206e6f742074686520726563696044820152641c1a595b9d60da1b6064820152608401610502565b428160800151111561109e5760405162461bcd60e51b815260206004820181905260248201527f506f73744f66666963653a204c6574746572206861732074696d6564206f75746044820152606401610502565b6060810151805182516020909201516040516323b872dd60e01b81526001600160a01b03909216926323b872dd926110db92339291600401611a30565b6020604051808303816000875af11580156110fa573d6000803e3d6000fd5b505050506040513d601f19601f8201168201806040525081019061111e9190611a54565b5060005b8160400151811015611406576040805160208101859052908101829052600090606001604051602081830303815290604052905060006001826040516111689190611af5565b9081526040805160209281900383018120608082018352805460ff81168084526101009091046001600160a01b031694830194909452600181015492820192909252600290910154606082015291506111ed576040808201519051339180156108fc02916000818181858888f193505050501580156111eb573d6000803e3d6000fd5b505b805160ff1660001901611279576020810151604080830151905163a9059cbb60e01b815233600482015260248101919091526001600160a01b039091169063a9059cbb906044016020604051808303816000875af1158015611253573d6000803e3d6000fd5b505050506040513d601f19601f820116820180604052508101906112779190611a54565b505b805160ff16600119016112f25760208101516060820151604051632142170760e11b81526001600160a01b03909216916342842e0e916112bf9130913391600401611a30565b600060405180830381600087803b1580156112d957600080fd5b505af11580156112ed573d6000803e3d6000fd5b505050505b805160ff16600219016113b55780602001516001600160a01b031663f242432a30338460600151856040015160006001600160401b0381111561133757611337611468565b6040519080825280601f01601f191660200182016040528015611361576020820181803683370190505b506040518663ffffffff1660e01b8152600401611382959493929190611a9a565b600060405180830381600087803b15801561139c57600080fd5b505af11580156113b0573d6000803e3d6000fd5b505050505b6001826040516113c59190611af5565b90815260405190819003602001902080546001600160a81b0319168155600060018201819055600290910155508190506113fe81611b11565b915050611122565b506040518281527f8c1d64e3bd87387709175b9ef4e7a1d7a8364559fc0e2ad9d77953909a0d1eb390602001610f17565b60006020828403121561144957600080fd5b81356001600160e01b03198116811461146157600080fd5b9392505050565b634e487b7160e01b600052604160045260246000fd5b604051608081016001600160401b03811182821017156114a0576114a0611468565b60405290565b604051601f8201601f191681016001600160401b03811182821017156114ce576114ce611468565b604052919050565b600082601f8301126114e757600080fd5b81356001600160401b0381111561150057611500611468565b611513601f8201601f19166020016114a6565b81815284602083860101111561152857600080fd5b816020850160208301376000918101602001919091529392505050565b60006020828403121561155757600080fd5b81356001600160401b0381111561156d57600080fd5b611579848285016114d6565b949350505050565b80356001600160a01b038116811461159857600080fd5b919050565b600080600080608085870312156115b357600080fd5b6115bc85611581565b93506115ca60208601611581565b92506040850135915060608501356001600160401b038111156115ec57600080fd5b6115f8878288016114d6565b91505092959194509250565b60006001600160401b0382111561161d5761161d611468565b5060051b60200190565b60006040828403121561163957600080fd5b604051604081018181106001600160401b038211171561165b5761165b611468565b60405290508061166a83611581565b8152602083013560208201525092915050565b60008060008060a0858703121561169357600080fd5b84356001600160401b038111156116a957600080fd5b8501601f810187136116ba57600080fd5b803560206116cf6116ca83611604565b6114a6565b82815260079290921b8301810191818101908a8411156116ee57600080fd5b938201935b8385101561175c576080858c03121561170c5760008081fd5b61171461147e565b853560ff811681146117265760008081fd5b8152611733868501611581565b8185015260408681013590820152606080870135908201528252608090940193908201906116f3565b975061176c905089898301611627565b955050505061177d60608601611581565b9396929550929360800135925050565b60006020828403121561179f57600080fd5b5035919050565b6001600160a01b038681168252851660208201526040810184905260c081016117e5606083018580516001600160a01b03168252602090810151910152565b8260a08301529695505050505050565b600082601f83011261180657600080fd5b813560206118166116ca83611604565b82815260059290921b8401810191818101908684111561183557600080fd5b8286015b848110156118505780358352918301918301611839565b509695505050505050565b600080600080600060a0868803121561187357600080fd5b61187c86611581565b945061188a60208701611581565b935060408601356001600160401b03808211156118a657600080fd5b6118b289838a016117f5565b945060608801359150808211156118c857600080fd5b6118d489838a016117f5565b935060808801359150808211156118ea57600080fd5b506118f7888289016114d6565b9150509295509295909350565b600080600080600060a0868803121561191c57600080fd5b61192586611581565b945061193360208701611581565b9350604086013592506060860135915060808601356001600160401b0381111561195c57600080fd5b6118f7888289016114d6565b60e08082528751908201819052600090602090610100840190828b01845b828110156119ce578151805160ff168552858101516001600160a01b031686860152604080820151908601526060908101519085015260809093019290840190600101611986565b505089516001600160a01b03168584019081526020808c0151910152509150506001600160a01b03861660608301528460808301528360a08301528260c0830152979650505050505050565b634e487b7160e01b600052603260045260246000fd5b6001600160a01b039384168152919092166020820152604081019190915260600190565b600060208284031215611a6657600080fd5b8151801515811461146157600080fd5b60005b83811015611a91578181015183820152602001611a79565b50506000910152565b600060018060a01b03808816835280871660208401525084604083015283606083015260a0608083015282518060a0840152611add8160c0850160208701611a76565b601f01601f19169190910160c0019695505050505050565b60008251611b07818460208701611a76565b9190910192915050565b600060018201611b3157634e487b7160e01b600052601160045260246000fd5b5060010190565b60208082526025908201527f506f73744f66666963653a20546865206c657474657220646f6573206e6f7420604082015264195e1a5cdd60da1b60608201526080019056fea2646970667358221220f334e43b715fc472cee4c8d97f4774784b707222165886f8c39d7816694da14c64736f6c63430008140033",
  "devdoc": {
    "errors": {
      "InvalidInitialization()": [
        {
          "details": "The contract is already initialized."
        }
      ],
      "NotInitializing()": [
        {
          "details": "The contract is not initializing."
        }
      ]
    },
    "events": {
      "Initialized(uint64)": {
        "details": "Triggered when the contract has been initialized or reinitialized."
      }
    },
    "kind": "dev",
    "methods": {
      "onERC721Received(address,address,uint256,bytes)": {
        "details": "See {IERC721Receiver-onERC721Received}. Always returns `IERC721Receiver.onERC721Received.selector`."
      },
      "supportsInterface(bytes4)": {
        "details": "See {IERC165-supportsInterface}."
      }
    },
    "version": 1
  },
  "userdoc": {
    "kind": "user",
    "methods": {},
    "version": 1
  },
  "storageLayout": {
    "storage": [
      {
        "astId": 848,
        "contract": "contracts/PostOffice.sol:PostOffice",
        "label": "letters",
        "offset": 0,
        "slot": "0",
        "type": "t_mapping(t_bytes32,t_struct(Letter)843_storage)"
      },
      {
        "astId": 853,
        "contract": "contracts/PostOffice.sol:PostOffice",
        "label": "annex",
        "offset": 0,
        "slot": "1",
        "type": "t_mapping(t_bytes_memory_ptr,t_struct(Annex)826_storage)"
      }
    ],
    "types": {
      "t_address": {
        "encoding": "inplace",
        "label": "address",
        "numberOfBytes": "20"
      },
      "t_bytes32": {
        "encoding": "inplace",
        "label": "bytes32",
        "numberOfBytes": "32"
      },
      "t_bytes_memory_ptr": {
        "encoding": "bytes",
        "label": "bytes",
        "numberOfBytes": "32"
      },
      "t_mapping(t_bytes32,t_struct(Letter)843_storage)": {
        "encoding": "mapping",
        "key": "t_bytes32",
        "label": "mapping(bytes32 => struct PostOffice.Letter)",
        "numberOfBytes": "32",
        "value": "t_struct(Letter)843_storage"
      },
      "t_mapping(t_bytes_memory_ptr,t_struct(Annex)826_storage)": {
        "encoding": "mapping",
        "key": "t_bytes_memory_ptr",
        "label": "mapping(bytes => struct PostOffice.Annex)",
        "numberOfBytes": "32",
        "value": "t_struct(Annex)826_storage"
      },
      "t_struct(Annex)826_storage": {
        "encoding": "inplace",
        "label": "struct PostOffice.Annex",
        "members": [
          {
            "astId": 819,
            "contract": "contracts/PostOffice.sol:PostOffice",
            "label": "_type",
            "offset": 0,
            "slot": "0",
            "type": "t_uint8"
          },
          {
            "astId": 821,
            "contract": "contracts/PostOffice.sol:PostOffice",
            "label": "_address",
            "offset": 1,
            "slot": "0",
            "type": "t_address"
          },
          {
            "astId": 823,
            "contract": "contracts/PostOffice.sol:PostOffice",
            "label": "_amount",
            "offset": 0,
            "slot": "1",
            "type": "t_uint256"
          },
          {
            "astId": 825,
            "contract": "contracts/PostOffice.sol:PostOffice",
            "label": "_id",
            "offset": 0,
            "slot": "2",
            "type": "t_uint256"
          }
        ],
        "numberOfBytes": "96"
      },
      "t_struct(Letter)843_storage": {
        "encoding": "inplace",
        "label": "struct PostOffice.Letter",
        "members": [
          {
            "astId": 833,
            "contract": "contracts/PostOffice.sol:PostOffice",
            "label": "_sender",
            "offset": 0,
            "slot": "0",
            "type": "t_address"
          },
          {
            "astId": 835,
            "contract": "contracts/PostOffice.sol:PostOffice",
            "label": "_receiver",
            "offset": 0,
            "slot": "1",
            "type": "t_address"
          },
          {
            "astId": 837,
            "contract": "contracts/PostOffice.sol:PostOffice",
            "label": "_annexAmount",
            "offset": 0,
            "slot": "2",
            "type": "t_uint256"
          },
          {
            "astId": 840,
            "contract": "contracts/PostOffice.sol:PostOffice",
            "label": "_payInfo",
            "offset": 0,
            "slot": "3",
            "type": "t_struct(PayInfo)831_storage"
          },
          {
            "astId": 842,
            "contract": "contracts/PostOffice.sol:PostOffice",
            "label": "_deadline",
            "offset": 0,
            "slot": "5",
            "type": "t_uint256"
          }
        ],
        "numberOfBytes": "192"
      },
      "t_struct(PayInfo)831_storage": {
        "encoding": "inplace",
        "label": "struct PostOffice.PayInfo",
        "members": [
          {
            "astId": 828,
            "contract": "contracts/PostOffice.sol:PostOffice",
            "label": "_token",
            "offset": 0,
            "slot": "0",
            "type": "t_address"
          },
          {
            "astId": 830,
            "contract": "contracts/PostOffice.sol:PostOffice",
            "label": "_amount",
            "offset": 0,
            "slot": "1",
            "type": "t_uint256"
          }
        ],
        "numberOfBytes": "64"
      },
      "t_uint256": {
        "encoding": "inplace",
        "label": "uint256",
        "numberOfBytes": "32"
      },
      "t_uint8": {
        "encoding": "inplace",
        "label": "uint8",
        "numberOfBytes": "1"
      }
    }
  }
}