{
  "address": "0xE2A5E73F0c126bC43e8614a4e4f58485cb4E5732",
  "abi": [
    {
      "inputs": [],
      "name": "InvalidInitialization",
      "type": "error"
    },
    {
      "inputs": [],
      "name": "NotInitializing",
      "type": "error"
    },
    {
      "anonymous": false,
      "inputs": [
        {
          "indexed": false,
          "internalType": "bytes32",
          "name": "_letterId",
          "type": "bytes32"
        }
      ],
      "name": "Claim",
      "type": "event"
    },
    {
      "anonymous": false,
      "inputs": [
        {
          "indexed": false,
          "internalType": "uint64",
          "name": "version",
          "type": "uint64"
        }
      ],
      "name": "Initialized",
      "type": "event"
    },
    {
      "anonymous": false,
      "inputs": [
        {
          "indexed": false,
          "internalType": "bytes32",
          "name": "_letterId",
          "type": "bytes32"
        },
        {
          "indexed": false,
          "internalType": "address",
          "name": "_sender",
          "type": "address"
        },
        {
          "indexed": false,
          "internalType": "address",
          "name": "_receiver",
          "type": "address"
        },
        {
          "indexed": false,
          "internalType": "bytes[]",
          "name": "_annexKeys",
          "type": "bytes[]"
        }
      ],
      "name": "SendLetter",
      "type": "event"
    },
    {
      "anonymous": false,
      "inputs": [
        {
          "indexed": false,
          "internalType": "bytes32",
          "name": "_letterId",
          "type": "bytes32"
        }
      ],
      "name": "TimeoutClaim",
      "type": "event"
    },
    {
      "inputs": [],
      "name": "ERC1155_TYPE",
      "outputs": [
        {
          "internalType": "uint8",
          "name": "",
          "type": "uint8"
        }
      ],
      "stateMutability": "view",
      "type": "function"
    },
    {
      "inputs": [],
      "name": "ERC20_TYPE",
      "outputs": [
        {
          "internalType": "uint8",
          "name": "",
          "type": "uint8"
        }
      ],
      "stateMutability": "view",
      "type": "function"
    },
    {
      "inputs": [],
      "name": "ERC721_TYPE",
      "outputs": [
        {
          "internalType": "uint8",
          "name": "",
          "type": "uint8"
        }
      ],
      "stateMutability": "view",
      "type": "function"
    },
    {
      "inputs": [],
      "name": "ETH_TYPE",
      "outputs": [
        {
          "internalType": "uint8",
          "name": "",
          "type": "uint8"
        }
      ],
      "stateMutability": "view",
      "type": "function"
    },
    {
      "inputs": [
        {
          "components": [
            {
              "internalType": "uint8",
              "name": "_type",
              "type": "uint8"
            },
            {
              "internalType": "address",
              "name": "_address",
              "type": "address"
            },
            {
              "internalType": "uint256",
              "name": "_amount",
              "type": "uint256"
            },
            {
              "internalType": "uint256",
              "name": "_id",
              "type": "uint256"
            }
          ],
          "internalType": "struct Vault.Annex[]",
          "name": "_annex",
          "type": "tuple[]"
        },
        {
          "internalType": "string",
          "name": "_message",
          "type": "string"
        },
        {
          "internalType": "string",
          "name": "_secretWords",
          "type": "string"
        },
        {
          "internalType": "bytes32",
          "name": "_password",
          "type": "bytes32"
        },
        {
          "internalType": "address",
          "name": "_receiver",
          "type": "address"
        },
        {
          "internalType": "uint256",
          "name": "_deadline",
          "type": "uint256"
        }
      ],
      "name": "buildId",
      "outputs": [
        {
          "internalType": "bytes32",
          "name": "",
          "type": "bytes32"
        }
      ],
      "stateMutability": "view",
      "type": "function"
    },
    {
      "inputs": [
        {
          "internalType": "string",
          "name": "_password",
          "type": "string"
        }
      ],
      "name": "claim",
      "outputs": [],
      "stateMutability": "nonpayable",
      "type": "function"
    },
    {
      "inputs": [],
      "name": "initialize",
      "outputs": [],
      "stateMutability": "nonpayable",
      "type": "function"
    },
    {
      "inputs": [
        {
          "internalType": "string",
          "name": "_password",
          "type": "string"
        }
      ],
      "name": "letterAllParams",
      "outputs": [
        {
          "components": [
            {
              "internalType": "address",
              "name": "_sender",
              "type": "address"
            },
            {
              "internalType": "address",
              "name": "_receiver",
              "type": "address"
            },
            {
              "internalType": "uint256",
              "name": "_annexAmount",
              "type": "uint256"
            },
            {
              "internalType": "uint256",
              "name": "_deadline",
              "type": "uint256"
            },
            {
              "internalType": "string",
              "name": "_message",
              "type": "string"
            },
            {
              "internalType": "string",
              "name": "_secretWords",
              "type": "string"
            },
            {
              "internalType": "bytes32",
              "name": "_password",
              "type": "bytes32"
            }
          ],
          "internalType": "struct Vault.Letter",
          "name": "_letter",
          "type": "tuple"
        },
        {
          "components": [
            {
              "internalType": "uint8",
              "name": "_type",
              "type": "uint8"
            },
            {
              "internalType": "address",
              "name": "_address",
              "type": "address"
            },
            {
              "internalType": "uint256",
              "name": "_amount",
              "type": "uint256"
            },
            {
              "internalType": "uint256",
              "name": "_id",
              "type": "uint256"
            }
          ],
          "internalType": "struct Vault.Annex[]",
          "name": "_annexes",
          "type": "tuple[]"
        }
      ],
      "stateMutability": "view",
      "type": "function"
    },
    {
      "inputs": [
        {
          "internalType": "bytes32",
          "name": "_letterId",
          "type": "bytes32"
        }
      ],
      "name": "letterPublicParams",
      "outputs": [
        {
          "internalType": "address",
          "name": "_sender",
          "type": "address"
        },
        {
          "internalType": "address",
          "name": "_receiver",
          "type": "address"
        },
        {
          "internalType": "string",
          "name": "_message",
          "type": "string"
        },
        {
          "internalType": "uint256",
          "name": "_deadline",
          "type": "uint256"
        }
      ],
      "stateMutability": "view",
      "type": "function"
    },
    {
      "inputs": [
        {
          "internalType": "address",
          "name": "",
          "type": "address"
        },
        {
          "internalType": "address",
          "name": "",
          "type": "address"
        },
        {
          "internalType": "uint256[]",
          "name": "",
          "type": "uint256[]"
        },
        {
          "internalType": "uint256[]",
          "name": "",
          "type": "uint256[]"
        },
        {
          "internalType": "bytes",
          "name": "",
          "type": "bytes"
        }
      ],
      "name": "onERC1155BatchReceived",
      "outputs": [
        {
          "internalType": "bytes4",
          "name": "",
          "type": "bytes4"
        }
      ],
      "stateMutability": "nonpayable",
      "type": "function"
    },
    {
      "inputs": [
        {
          "internalType": "address",
          "name": "",
          "type": "address"
        },
        {
          "internalType": "address",
          "name": "",
          "type": "address"
        },
        {
          "internalType": "uint256",
          "name": "",
          "type": "uint256"
        },
        {
          "internalType": "uint256",
          "name": "",
          "type": "uint256"
        },
        {
          "internalType": "bytes",
          "name": "",
          "type": "bytes"
        }
      ],
      "name": "onERC1155Received",
      "outputs": [
        {
          "internalType": "bytes4",
          "name": "",
          "type": "bytes4"
        }
      ],
      "stateMutability": "nonpayable",
      "type": "function"
    },
    {
      "inputs": [
        {
          "internalType": "address",
          "name": "",
          "type": "address"
        },
        {
          "internalType": "address",
          "name": "",
          "type": "address"
        },
        {
          "internalType": "uint256",
          "name": "",
          "type": "uint256"
        },
        {
          "internalType": "bytes",
          "name": "",
          "type": "bytes"
        }
      ],
      "name": "onERC721Received",
      "outputs": [
        {
          "internalType": "bytes4",
          "name": "",
          "type": "bytes4"
        }
      ],
      "stateMutability": "nonpayable",
      "type": "function"
    },
    {
      "inputs": [
        {
          "components": [
            {
              "internalType": "uint8",
              "name": "_type",
              "type": "uint8"
            },
            {
              "internalType": "address",
              "name": "_address",
              "type": "address"
            },
            {
              "internalType": "uint256",
              "name": "_amount",
              "type": "uint256"
            },
            {
              "internalType": "uint256",
              "name": "_id",
              "type": "uint256"
            }
          ],
          "internalType": "struct Vault.Annex[]",
          "name": "_annex",
          "type": "tuple[]"
        },
        {
          "internalType": "string",
          "name": "_message",
          "type": "string"
        },
        {
          "internalType": "string",
          "name": "_secretWords",
          "type": "string"
        },
        {
          "internalType": "bytes32",
          "name": "_password",
          "type": "bytes32"
        },
        {
          "internalType": "address",
          "name": "_receiver",
          "type": "address"
        },
        {
          "internalType": "uint256",
          "name": "_deadline",
          "type": "uint256"
        }
      ],
      "name": "sendLetter",
      "outputs": [
        {
          "internalType": "bytes32",
          "name": "_letterId",
          "type": "bytes32"
        }
      ],
      "stateMutability": "payable",
      "type": "function"
    },
    {
      "inputs": [
        {
          "internalType": "bytes4",
          "name": "interfaceId",
          "type": "bytes4"
        }
      ],
      "name": "supportsInterface",
      "outputs": [
        {
          "internalType": "bool",
          "name": "",
          "type": "bool"
        }
      ],
      "stateMutability": "view",
      "type": "function"
    },
    {
      "inputs": [
        {
          "internalType": "bytes32",
          "name": "_letterId",
          "type": "bytes32"
        }
      ],
      "name": "timeoutClaim",
      "outputs": [],
      "stateMutability": "nonpayable",
      "type": "function"
    },
    {
      "stateMutability": "payable",
      "type": "receive"
    }
  ],
  "transactionHash": "0x038c8d669ff4a521da03ce630d16d1e8d8c4861a40323307fc3f57d05ab6c402",
  "args": [],
  "numDeployments": 1,
  "solcInputHash": "61805ccb3827bae27d738427f79dd26a",
  "bytecode": "0x608060405234801561001057600080fd5b506126d8806100206000396000f3fe6080604052600436106100ec5760003560e01c806372798a891161008a578063b797447111610059578063b79744711461028d578063bc197c81146102ad578063f23a6e61146102d9578063f3fe12c91461030557600080fd5b806372798a891461022c5780638129fc1c146102415780638c571aac14610258578063916e4ed11461027857600080fd5b806336b1de18116100c657806336b1de1814610198578063527dbe14146101b95780635a83151a146101e95780636f3769c01461021757600080fd5b806301ffc9a7146100f8578063150b7a021461012d5780632480aa421461017157600080fd5b366100f357005b600080fd5b34801561010457600080fd5b50610118610113366004611cee565b610325565b60405190151581526020015b60405180910390f35b34801561013957600080fd5b50610158610148366004611e18565b630a85bd0160e11b949350505050565b6040516001600160e01b03199091168152602001610124565b34801561017d57600080fd5b50610186600081565b60405160ff9091168152602001610124565b6101ab6101a6366004611ea2565b61035c565b604051908152602001610124565b3480156101c557600080fd5b506101d96101d4366004611ff6565b61098b565b604051610124949392919061205f565b3480156101f557600080fd5b5061020961020436600461209c565b610b38565b60405161012492919061213f565b34801561022357600080fd5b50610186600181565b34801561023857600080fd5b50610186600281565b34801561024d57600080fd5b50610256610e73565b005b34801561026457600080fd5b506101ab610273366004611ea2565b610f77565b34801561028457600080fd5b50610186600381565b34801561029957600080fd5b506102566102a8366004611ff6565b610fba565b3480156102b957600080fd5b506101586102c836600461223c565b63bc197c8160e01b95945050505050565b3480156102e557600080fd5b506101586102f43660046122e5565b63f23a6e6160e01b95945050505050565b34801561031157600080fd5b5061025661032036600461209c565b611650565b60006001600160e01b03198216630271189760e51b148061035657506301ffc9a760e01b6001600160e01b03198316145b92915050565b600083815260016020526040812054156103b55760405162461bcd60e51b81526020600482015260156024820152745661756c743a20416c72656164792065786973747360581b60448201526064015b60405180910390fd5b6103c3878787878787610f77565b9050600087516001600160401b038111156103e0576103e0611d3b565b60405190808252806020026020018201604052801561041357816020015b60608152602001906001900390816103fe5790505b50905060005b885181101561086d57600060ff1689828151811061043957610439612349565b60200260200101516000015160ff16036104c45788818151811061045f5761045f612349565b6020026020010151604001513410156104c45760405162461bcd60e51b815260206004820152602160248201527f5661756c743a20496e73756666696369656e7420616d6f756e74206f662065746044820152600d60fb1b60648201526084016103ac565b600160ff168982815181106104db576104db612349565b60200260200101516000015160ff160361059e5788818151811061050157610501612349565b6020026020010151602001516001600160a01b03166323b872dd33308c858151811061052f5761052f612349565b6020026020010151604001516040518463ffffffff1660e01b81526004016105599392919061235f565b6020604051808303816000875af1158015610578573d6000803e3d6000fd5b505050506040513d601f19601f8201168201806040525081019061059c9190612383565b505b600260ff168982815181106105b5576105b5612349565b60200260200101516000015160ff1603610666578881815181106105db576105db612349565b6020026020010151602001516001600160a01b03166323b872dd33308c858151811061060957610609612349565b6020026020010151606001516040518463ffffffff1660e01b81526004016106339392919061235f565b600060405180830381600087803b15801561064d57600080fd5b505af1158015610661573d6000803e3d6000fd5b505050505b600360ff1689828151811061067d5761067d612349565b60200260200101516000015160ff1603610792578881815181106106a3576106a3612349565b6020026020010151602001516001600160a01b031663f242432a33308c85815181106106d1576106d1612349565b6020026020010151606001518d86815181106106ef576106ef612349565b60200260200101516040015160006001600160401b0381111561071457610714611d3b565b6040519080825280601f01601f19166020018201604052801561073e576020820181803683370190505b506040518663ffffffff1660e01b815260040161075f9594939291906123a5565b600060405180830381600087803b15801561077957600080fd5b505af115801561078d573d6000803e3d6000fd5b505050505b604080516020810185905290810182905260009060600160405160208183030381529060405290508982815181106107cc576107cc612349565b60200260200101516002826040516107e491906123ea565b9081526040805191829003602090810190922083518154938501516001600160a01b0316610100026001600160a81b031990941660ff9091161792909217825582015160018201556060909101516002909101558251819084908490811061084e5761084e612349565b602002602001018190525050808061086590612406565b915050610419565b506040805160e0810182523381526001600160a01b0386811660208084019182528c5184860190815260608501898152608086018e815260a087018e905260c087018d905260008a81529384905296909220855181549086166001600160a01b03199182161782559351600182018054919096169416939093179093559151600282015590516003820155915190918291600482019061090d90826124b6565b5060a0820151600582019061092290826124b6565b5060c0919091015160069091015560008681526001602052604090819020849055517fe681dee53a4e870bcaef63970bc1fb77925267c7e4c14f60e54725272d8cb79890610977908590339089908790612575565b60405180910390a150509695505050505050565b600081815260208181526040808320815160e08101835281546001600160a01b039081168252600183015416938101939093526002810154918301919091526003810154606083810191909152600482018054859492938593849390926080840191906109f79061242d565b80601f0160208091040260200160405190810160405280929190818152602001828054610a239061242d565b8015610a705780601f10610a4557610100808354040283529160200191610a70565b820191906000526020600020905b815481529060010190602001808311610a5357829003601f168201915b50505050508152602001600582018054610a899061242d565b80601f0160208091040260200160405190810160405280929190818152602001828054610ab59061242d565b8015610b025780601f10610ad757610100808354040283529160200191610b02565b820191906000526020600020905b815481529060010190602001808311610ae557829003601f168201915b50505091835250506006919091015460209182015281519082015160808301516060909301519199909850919650945092505050565b6040805160e08101825260008082526020820181905291810182905260608082018390526080820181905260a082015260c0810191909152606060003384604051602001610b879291906125f9565b60408051601f1981840301815291815281516020928301206000818152600190935291205490915080610bbb575050915091565b60008181526020818152604091829020825160e08101845281546001600160a01b0390811682526001830154169281019290925260028101549282019290925260038201546060820152600482018054919291608084019190610c1d9061242d565b80601f0160208091040260200160405190810160405280929190818152602001828054610c499061242d565b8015610c965780601f10610c6b57610100808354040283529160200191610c96565b820191906000526020600020905b815481529060010190602001808311610c7957829003601f168201915b50505050508152602001600582018054610caf9061242d565b80601f0160208091040260200160405190810160405280929190818152602001828054610cdb9061242d565b8015610d285780601f10610cfd57610100808354040283529160200191610d28565b820191906000526020600020905b815481529060010190602001808311610d0b57829003601f168201915b50505050508152602001600682015481525050935083604001516001600160401b03811115610d5957610d59611d3b565b604051908082528060200260200182016040528015610dab57816020015b604080516080810182526000808252602080830182905292820181905260608201528252600019909201910181610d775790505b50925060005b8460400151811015610e6b57604080516020810184905290810182905260029060600160408051601f1981840301815290829052610dee916123ea565b908152604080519182900360209081018320608084018352805460ff811685526001600160a01b0361010090910416918401919091526001810154918301919091526002015460608201528451859083908110610e4d57610e4d612349565b60200260200101819052508080610e6390612406565b915050610db1565b505050915091565b7ff0c57e16840df040f15088dc2f81fe391c3923bec73e23a9662efc9c229c6a008054600160401b810460ff1615906001600160401b0316600081158015610eb85750825b90506000826001600160401b03166001148015610ed45750303b155b905081158015610ee2575080155b15610f005760405163f92ee8a960e01b815260040160405180910390fd5b845467ffffffffffffffff191660011785558315610f2a57845460ff60401b1916600160401b1785555b8315610f7057845460ff60401b19168555604051600181527fc7f505b2f371ae2175ee4913f4499e1f2633a7b5936321eed1cdaeb6115181d29060200160405180910390a15b5050505050565b60008686868686864442604051602001610f98989796959493929190612631565b6040516020818303038152906040528051906020012090509695505050505050565b806110075760405162461bcd60e51b815260206004820181905260248201527f5661756c743a2054686973207661756c7420646f6573206e6f7420657869737460448201526064016103ac565b600081815260208181526040808320815160e08101835281546001600160a01b03908116825260018301541693810193909352600281015491830191909152600381015460608301526004810180546080840191906110659061242d565b80601f01602080910402602001604051908101604052809291908181526020018280546110919061242d565b80156110de5780601f106110b3576101008083540402835291602001916110de565b820191906000526020600020905b8154815290600101906020018083116110c157829003601f168201915b505050505081526020016005820180546110f79061242d565b80601f01602080910402602001604051908101604052809291908181526020018280546111239061242d565b80156111705780601f1061114557610100808354040283529160200191611170565b820191906000526020600020905b81548152906001019060200180831161115357829003601f168201915b50505091835250506006919091015460209091015280519091506001600160a01b031633146112075760405162461bcd60e51b815260206004820152603d60248201527f5661756c743a20596f75206d757374206265207468652073656e64657220746f60448201527f2072657472696576652065787069726564206174746163686d656e747300000060648201526084016103ac565b600082815260208190526040812080546001600160a01b03199081168255600182018054909116905560028101829055600381018290559061124c6004830182611c98565b61125a600583016000611c98565b50600060069190910181905560c082015181526001602052604081205580516001600160a01b031633146112d05760405162461bcd60e51b815260206004820152601d60248201527f5661756c743a20596f7520617265206e6f74207468652073656e64657200000060448201526064016103ac565b428160600151106113315760405162461bcd60e51b815260206004820152602560248201527f5661756c743a20546865206c657474657220686173206e6f742065787069726560448201526419081e595d60da1b60648201526084016103ac565b60005b81604001518110156116185760408051602081018590529081018290526000906060016040516020818303038152906040529050600060028260405161137a91906123ea565b9081526040805160209281900383018120608082018352805460ff81168084526101009091046001600160a01b031694830194909452600181015492820192909252600290910154606082015291506113ff576040808201519051339180156108fc02916000818181858888f193505050501580156113fd573d6000803e3d6000fd5b505b805160ff166000190161148b576020810151604080830151905163a9059cbb60e01b815233600482015260248101919091526001600160a01b039091169063a9059cbb906044016020604051808303816000875af1158015611465573d6000803e3d6000fd5b505050506040513d601f19601f820116820180604052508101906114899190612383565b505b805160ff16600119016115045760208101516060820151604051632142170760e11b81526001600160a01b03909216916342842e0e916114d1913091339160040161235f565b600060405180830381600087803b1580156114eb57600080fd5b505af11580156114ff573d6000803e3d6000fd5b505050505b805160ff16600219016115c75780602001516001600160a01b031663f242432a30338460600151856040015160006001600160401b0381111561154957611549611d3b565b6040519080825280601f01601f191660200182016040528015611573576020820181803683370190505b506040518663ffffffff1660e01b81526004016115949594939291906123a5565b600060405180830381600087803b1580156115ae57600080fd5b505af11580156115c2573d6000803e3d6000fd5b505050505b6002826040516115d791906123ea565b90815260405190819003602001902080546001600160a81b03191681556000600182018190556002909101555081905061161081612406565b915050611334565b506040518281527fb7b05d3a6508c3fc98e29961e39eff690a7e939862c71ad741250a5d2d30d04c9060200160405180910390a15050565b600033826040516020016116659291906125f9565b60408051601f19818403018152918152815160209283012060008181526001909352912054909150806116da5760405162461bcd60e51b815260206004820181905260248201527f5661756c743a2054686973207661756c7420646f6573206e6f7420657869737460448201526064016103ac565b600081815260208181526040808320815160e08101835281546001600160a01b03908116825260018301541693810193909352600281015491830191909152600381015460608301526004810180546080840191906117389061242d565b80601f01602080910402602001604051908101604052809291908181526020018280546117649061242d565b80156117b15780601f10611786576101008083540402835291602001916117b1565b820191906000526020600020905b81548152906001019060200180831161179457829003601f168201915b505050505081526020016005820180546117ca9061242d565b80601f01602080910402602001604051908101604052809291908181526020018280546117f69061242d565b80156118435780601f1061181857610100808354040283529160200191611843565b820191906000526020600020905b81548152906001019060200180831161182657829003601f168201915b5050509183525050600691909101546020918201526000848152908190526040812080546001600160a01b031990811682556001820180549091169055600281018290556003810182905591925061189e6004830182611c98565b6118ac600583016000611c98565b5060006006919091018190558381526001602090815260408220919091558101516001600160a01b031633146119245760405162461bcd60e51b815260206004820181905260248201527f5661756c743a20596f7520617265206e6f742074686520726563697069656e7460448201526064016103ac565b428160600151116119775760405162461bcd60e51b815260206004820152601b60248201527f5661756c743a204c6574746572206861732074696d6564206f7574000000000060448201526064016103ac565b60005b8160400151811015611c5e576040805160208101859052908101829052600090606001604051602081830303815290604052905060006002826040516119c091906123ea565b9081526040805160209281900383018120608082018352805460ff81168084526101009091046001600160a01b03169483019490945260018101549282019290925260029091015460608201529150611a45576040808201519051339180156108fc02916000818181858888f19350505050158015611a43573d6000803e3d6000fd5b505b805160ff1660001901611ad1576020810151604080830151905163a9059cbb60e01b815233600482015260248101919091526001600160a01b039091169063a9059cbb906044016020604051808303816000875af1158015611aab573d6000803e3d6000fd5b505050506040513d601f19601f82011682018060405250810190611acf9190612383565b505b805160ff1660011901611b4a5760208101516060820151604051632142170760e11b81526001600160a01b03909216916342842e0e91611b17913091339160040161235f565b600060405180830381600087803b158015611b3157600080fd5b505af1158015611b45573d6000803e3d6000fd5b505050505b805160ff1660021901611c0d5780602001516001600160a01b031663f242432a30338460600151856040015160006001600160401b03811115611b8f57611b8f611d3b565b6040519080825280601f01601f191660200182016040528015611bb9576020820181803683370190505b506040518663ffffffff1660e01b8152600401611bda9594939291906123a5565b600060405180830381600087803b158015611bf457600080fd5b505af1158015611c08573d6000803e3d6000fd5b505050505b600282604051611c1d91906123ea565b90815260405190819003602001902080546001600160a81b031916815560006001820181905560029091015550819050611c5681612406565b91505061197a565b506040518281527f8c1d64e3bd87387709175b9ef4e7a1d7a8364559fc0e2ad9d77953909a0d1eb39060200160405180910390a150505050565b508054611ca49061242d565b6000825580601f10611cb4575050565b601f016020900490600052602060002090810190611cd29190611cd5565b50565b5b80821115611cea5760008155600101611cd6565b5090565b600060208284031215611d0057600080fd5b81356001600160e01b031981168114611d1857600080fd5b9392505050565b80356001600160a01b0381168114611d3657600080fd5b919050565b634e487b7160e01b600052604160045260246000fd5b604051608081016001600160401b0381118282101715611d7357611d73611d3b565b60405290565b604051601f8201601f191681016001600160401b0381118282101715611da157611da1611d3b565b604052919050565b600082601f830112611dba57600080fd5b81356001600160401b03811115611dd357611dd3611d3b565b611de6601f8201601f1916602001611d79565b818152846020838601011115611dfb57600080fd5b816020850160208301376000918101602001919091529392505050565b60008060008060808587031215611e2e57600080fd5b611e3785611d1f565b9350611e4560208601611d1f565b92506040850135915060608501356001600160401b03811115611e6757600080fd5b611e7387828801611da9565b91505092959194509250565b60006001600160401b03821115611e9857611e98611d3b565b5060051b60200190565b60008060008060008060c08789031215611ebb57600080fd5b86356001600160401b0380821115611ed257600080fd5b818901915089601f830112611ee657600080fd5b81356020611efb611ef683611e7f565b611d79565b82815260079290921b8401810191818101908d841115611f1a57600080fd5b948201945b83861015611f88576080868f031215611f385760008081fd5b611f40611d51565b863560ff81168114611f525760008081fd5b8152611f5f878501611d1f565b818501526040878101359082015260608088013590820152825260809095019490820190611f1f565b9a50508a013592505080821115611f9e57600080fd5b611faa8a838b01611da9565b96506040890135915080821115611fc057600080fd5b50611fcd89828a01611da9565b94505060608701359250611fe360808801611d1f565b915060a087013590509295509295509295565b60006020828403121561200857600080fd5b5035919050565b60005b8381101561202a578181015183820152602001612012565b50506000910152565b6000815180845261204b81602086016020860161200f565b601f01601f19169290920160200192915050565b6001600160a01b0385811682528416602082015260806040820181905260009061208b90830185612033565b905082606083015295945050505050565b6000602082840312156120ae57600080fd5b81356001600160401b038111156120c457600080fd5b6120d084828501611da9565b949350505050565b600081518084526020808501945080840160005b83811015612134578151805160ff168852838101516001600160a01b0316848901526040808201519089015260609081015190880152608090960195908201906001016120ec565b509495945050505050565b60408152600060018060a01b038085511660408401528060208601511660608401525060408401516080830152606084015160a0830152608084015160e060c0840152612190610120840182612033565b905060a0850151603f198483030160e08501526121ad8282612033565b91505060c085015161010084015282810360208401526121cd81856120d8565b95945050505050565b600082601f8301126121e757600080fd5b813560206121f7611ef683611e7f565b82815260059290921b8401810191818101908684111561221657600080fd5b8286015b84811015612231578035835291830191830161221a565b509695505050505050565b600080600080600060a0868803121561225457600080fd5b61225d86611d1f565b945061226b60208701611d1f565b935060408601356001600160401b038082111561228757600080fd5b61229389838a016121d6565b945060608801359150808211156122a957600080fd5b6122b589838a016121d6565b935060808801359150808211156122cb57600080fd5b506122d888828901611da9565b9150509295509295909350565b600080600080600060a086880312156122fd57600080fd5b61230686611d1f565b945061231460208701611d1f565b9350604086013592506060860135915060808601356001600160401b0381111561233d57600080fd5b6122d888828901611da9565b634e487b7160e01b600052603260045260246000fd5b6001600160a01b039384168152919092166020820152604081019190915260600190565b60006020828403121561239557600080fd5b81518015158114611d1857600080fd5b6001600160a01b03868116825285166020820152604081018490526060810183905260a0608082018190526000906123df90830184612033565b979650505050505050565b600082516123fc81846020870161200f565b9190910192915050565b60006001820161242657634e487b7160e01b600052601160045260246000fd5b5060010190565b600181811c9082168061244157607f821691505b60208210810361246157634e487b7160e01b600052602260045260246000fd5b50919050565b601f8211156124b157600081815260208120601f850160051c8101602086101561248e5750805b601f850160051c820191505b818110156124ad5782815560010161249a565b5050505b505050565b81516001600160401b038111156124cf576124cf611d3b565b6124e3816124dd845461242d565b84612467565b602080601f83116001811461251857600084156125005750858301515b600019600386901b1c1916600185901b1785556124ad565b600085815260208120601f198616915b8281101561254757888601518255948401946001909101908401612528565b50858210156125655787850151600019600388901b60f8161c191681555b5050505050600190811b01905550565b600060808201868352602060018060a01b03808816828601528087166040860152506080606085015281855180845260a08601915060a08160051b870101935082870160005b828110156125e957609f198887030184526125d7868351612033565b955092840192908401906001016125bb565b50939a9950505050505050505050565b6bffffffffffffffffffffffff198360601b1681526000825161262381601485016020870161200f565b919091016014019392505050565b60006101008083526126458184018c6120d8565b90508281036020840152612659818b612033565b9050828103604084015261266d818a612033565b606084019890985250506001600160a01b0394909416608085015260a084019290925260c083015260e090910152939250505056fea2646970667358221220179f32be29dd42c891458d5b09e4e4048a321dd9e0083e5bcd8d58ae1cc0124e64736f6c63430008140033",
  "devdoc": {
    "errors": {
      "InvalidInitialization()": [
        {
          "details": "The contract is already initialized."
        }
      ],
      "NotInitializing()": [
        {
          "details": "The contract is not initializing."
        }
      ]
    },
    "events": {
      "Initialized(uint64)": {
        "details": "Triggered when the contract has been initialized or reinitialized."
      }
    },
    "kind": "dev",
    "methods": {
      "onERC721Received(address,address,uint256,bytes)": {
        "details": "See {IERC721Receiver-onERC721Received}. Always returns `IERC721Receiver.onERC721Received.selector`."
      },
      "supportsInterface(bytes4)": {
        "details": "See {IERC165-supportsInterface}."
      }
    },
    "version": 1
  },
  "userdoc": {
    "kind": "user",
    "methods": {},
    "version": 1
  },
  "storageLayout": {
    "storage": [
      {
        "astId": 849,
        "contract": "contracts/Vault.sol:Vault",
        "label": "letters",
        "offset": 0,
        "slot": "0",
        "type": "t_mapping(t_bytes32,t_struct(Letter)844_storage)"
      },
      {
        "astId": 853,
        "contract": "contracts/Vault.sol:Vault",
        "label": "passwords",
        "offset": 0,
        "slot": "1",
        "type": "t_mapping(t_bytes32,t_bytes32)"
      },
      {
        "astId": 858,
        "contract": "contracts/Vault.sol:Vault",
        "label": "annex",
        "offset": 0,
        "slot": "2",
        "type": "t_mapping(t_bytes_memory_ptr,t_struct(Annex)829_storage)"
      }
    ],
    "types": {
      "t_address": {
        "encoding": "inplace",
        "label": "address",
        "numberOfBytes": "20"
      },
      "t_bytes32": {
        "encoding": "inplace",
        "label": "bytes32",
        "numberOfBytes": "32"
      },
      "t_bytes_memory_ptr": {
        "encoding": "bytes",
        "label": "bytes",
        "numberOfBytes": "32"
      },
      "t_mapping(t_bytes32,t_bytes32)": {
        "encoding": "mapping",
        "key": "t_bytes32",
        "label": "mapping(bytes32 => bytes32)",
        "numberOfBytes": "32",
        "value": "t_bytes32"
      },
      "t_mapping(t_bytes32,t_struct(Letter)844_storage)": {
        "encoding": "mapping",
        "key": "t_bytes32",
        "label": "mapping(bytes32 => struct Vault.Letter)",
        "numberOfBytes": "32",
        "value": "t_struct(Letter)844_storage"
      },
      "t_mapping(t_bytes_memory_ptr,t_struct(Annex)829_storage)": {
        "encoding": "mapping",
        "key": "t_bytes_memory_ptr",
        "label": "mapping(bytes => struct Vault.Annex)",
        "numberOfBytes": "32",
        "value": "t_struct(Annex)829_storage"
      },
      "t_string_storage": {
        "encoding": "bytes",
        "label": "string",
        "numberOfBytes": "32"
      },
      "t_struct(Annex)829_storage": {
        "encoding": "inplace",
        "label": "struct Vault.Annex",
        "members": [
          {
            "astId": 822,
            "contract": "contracts/Vault.sol:Vault",
            "label": "_type",
            "offset": 0,
            "slot": "0",
            "type": "t_uint8"
          },
          {
            "astId": 824,
            "contract": "contracts/Vault.sol:Vault",
            "label": "_address",
            "offset": 1,
            "slot": "0",
            "type": "t_address"
          },
          {
            "astId": 826,
            "contract": "contracts/Vault.sol:Vault",
            "label": "_amount",
            "offset": 0,
            "slot": "1",
            "type": "t_uint256"
          },
          {
            "astId": 828,
            "contract": "contracts/Vault.sol:Vault",
            "label": "_id",
            "offset": 0,
            "slot": "2",
            "type": "t_uint256"
          }
        ],
        "numberOfBytes": "96"
      },
      "t_struct(Letter)844_storage": {
        "encoding": "inplace",
        "label": "struct Vault.Letter",
        "members": [
          {
            "astId": 831,
            "contract": "contracts/Vault.sol:Vault",
            "label": "_sender",
            "offset": 0,
            "slot": "0",
            "type": "t_address"
          },
          {
            "astId": 833,
            "contract": "contracts/Vault.sol:Vault",
            "label": "_receiver",
            "offset": 0,
            "slot": "1",
            "type": "t_address"
          },
          {
            "astId": 835,
            "contract": "contracts/Vault.sol:Vault",
            "label": "_annexAmount",
            "offset": 0,
            "slot": "2",
            "type": "t_uint256"
          },
          {
            "astId": 837,
            "contract": "contracts/Vault.sol:Vault",
            "label": "_deadline",
            "offset": 0,
            "slot": "3",
            "type": "t_uint256"
          },
          {
            "astId": 839,
            "contract": "contracts/Vault.sol:Vault",
            "label": "_message",
            "offset": 0,
            "slot": "4",
            "type": "t_string_storage"
          },
          {
            "astId": 841,
            "contract": "contracts/Vault.sol:Vault",
            "label": "_secretWords",
            "offset": 0,
            "slot": "5",
            "type": "t_string_storage"
          },
          {
            "astId": 843,
            "contract": "contracts/Vault.sol:Vault",
            "label": "_password",
            "offset": 0,
            "slot": "6",
            "type": "t_bytes32"
          }
        ],
        "numberOfBytes": "224"
      },
      "t_uint256": {
        "encoding": "inplace",
        "label": "uint256",
        "numberOfBytes": "32"
      },
      "t_uint8": {
        "encoding": "inplace",
        "label": "uint8",
        "numberOfBytes": "1"
      }
    }
  }
}