{
  "address": "0xD5130f4B98B6827c8cBfA7663803F58c43Ab3c31",
  "abi": [
    {
      "inputs": [],
      "name": "InvalidInitialization",
      "type": "error"
    },
    {
      "inputs": [],
      "name": "NotInitializing",
      "type": "error"
    },
    {
      "anonymous": false,
      "inputs": [
        {
          "indexed": false,
          "internalType": "bytes32",
          "name": "_letterId",
          "type": "bytes32"
        }
      ],
      "name": "Claim",
      "type": "event"
    },
    {
      "anonymous": false,
      "inputs": [
        {
          "indexed": false,
          "internalType": "uint64",
          "name": "version",
          "type": "uint64"
        }
      ],
      "name": "Initialized",
      "type": "event"
    },
    {
      "anonymous": false,
      "inputs": [
        {
          "indexed": false,
          "internalType": "bytes32",
          "name": "_letterId",
          "type": "bytes32"
        },
        {
          "indexed": false,
          "internalType": "address",
          "name": "_sender",
          "type": "address"
        },
        {
          "indexed": false,
          "internalType": "bytes[]",
          "name": "_annexKeys",
          "type": "bytes[]"
        }
      ],
      "name": "SendLetter",
      "type": "event"
    },
    {
      "anonymous": false,
      "inputs": [
        {
          "indexed": false,
          "internalType": "bytes32",
          "name": "_letterId",
          "type": "bytes32"
        }
      ],
      "name": "TimeoutClaim",
      "type": "event"
    },
    {
      "inputs": [],
      "name": "ERC1155_TYPE",
      "outputs": [
        {
          "internalType": "uint8",
          "name": "",
          "type": "uint8"
        }
      ],
      "stateMutability": "view",
      "type": "function"
    },
    {
      "inputs": [],
      "name": "ERC20_TYPE",
      "outputs": [
        {
          "internalType": "uint8",
          "name": "",
          "type": "uint8"
        }
      ],
      "stateMutability": "view",
      "type": "function"
    },
    {
      "inputs": [],
      "name": "ERC721_TYPE",
      "outputs": [
        {
          "internalType": "uint8",
          "name": "",
          "type": "uint8"
        }
      ],
      "stateMutability": "view",
      "type": "function"
    },
    {
      "inputs": [],
      "name": "ETH_TYPE",
      "outputs": [
        {
          "internalType": "uint8",
          "name": "",
          "type": "uint8"
        }
      ],
      "stateMutability": "view",
      "type": "function"
    },
    {
      "inputs": [
        {
          "components": [
            {
              "internalType": "uint8",
              "name": "_type",
              "type": "uint8"
            },
            {
              "internalType": "address",
              "name": "_address",
              "type": "address"
            },
            {
              "internalType": "uint256",
              "name": "_amount",
              "type": "uint256"
            },
            {
              "internalType": "uint256",
              "name": "_id",
              "type": "uint256"
            }
          ],
          "internalType": "struct Vault.Annex[]",
          "name": "_annex",
          "type": "tuple[]"
        },
        {
          "internalType": "string",
          "name": "_message",
          "type": "string"
        },
        {
          "internalType": "string",
          "name": "_secretWords",
          "type": "string"
        },
        {
          "internalType": "bytes32",
          "name": "_password",
          "type": "bytes32"
        },
        {
          "internalType": "uint256",
          "name": "_deadline",
          "type": "uint256"
        }
      ],
      "name": "buildId",
      "outputs": [
        {
          "internalType": "bytes32",
          "name": "",
          "type": "bytes32"
        }
      ],
      "stateMutability": "view",
      "type": "function"
    },
    {
      "inputs": [
        {
          "internalType": "string",
          "name": "_password",
          "type": "string"
        }
      ],
      "name": "claim",
      "outputs": [],
      "stateMutability": "nonpayable",
      "type": "function"
    },
    {
      "inputs": [],
      "name": "initialize",
      "outputs": [],
      "stateMutability": "nonpayable",
      "type": "function"
    },
    {
      "inputs": [
        {
          "internalType": "string",
          "name": "_password",
          "type": "string"
        }
      ],
      "name": "letterAllParams",
      "outputs": [
        {
          "components": [
            {
              "internalType": "address",
              "name": "_sender",
              "type": "address"
            },
            {
              "internalType": "uint256",
              "name": "_annexAmount",
              "type": "uint256"
            },
            {
              "internalType": "uint256",
              "name": "_deadline",
              "type": "uint256"
            },
            {
              "internalType": "string",
              "name": "_message",
              "type": "string"
            },
            {
              "internalType": "string",
              "name": "_secretWords",
              "type": "string"
            },
            {
              "internalType": "bytes32",
              "name": "_password",
              "type": "bytes32"
            }
          ],
          "internalType": "struct Vault.Letter",
          "name": "_letter",
          "type": "tuple"
        },
        {
          "components": [
            {
              "internalType": "uint8",
              "name": "_type",
              "type": "uint8"
            },
            {
              "internalType": "address",
              "name": "_address",
              "type": "address"
            },
            {
              "internalType": "uint256",
              "name": "_amount",
              "type": "uint256"
            },
            {
              "internalType": "uint256",
              "name": "_id",
              "type": "uint256"
            }
          ],
          "internalType": "struct Vault.Annex[]",
          "name": "_annexes",
          "type": "tuple[]"
        }
      ],
      "stateMutability": "view",
      "type": "function"
    },
    {
      "inputs": [
        {
          "internalType": "bytes32",
          "name": "_letterId",
          "type": "bytes32"
        }
      ],
      "name": "letterPublicParams",
      "outputs": [
        {
          "internalType": "address",
          "name": "_sender",
          "type": "address"
        },
        {
          "internalType": "string",
          "name": "_message",
          "type": "string"
        },
        {
          "internalType": "uint256",
          "name": "_deadline",
          "type": "uint256"
        }
      ],
      "stateMutability": "view",
      "type": "function"
    },
    {
      "inputs": [
        {
          "internalType": "address",
          "name": "",
          "type": "address"
        },
        {
          "internalType": "address",
          "name": "",
          "type": "address"
        },
        {
          "internalType": "uint256[]",
          "name": "",
          "type": "uint256[]"
        },
        {
          "internalType": "uint256[]",
          "name": "",
          "type": "uint256[]"
        },
        {
          "internalType": "bytes",
          "name": "",
          "type": "bytes"
        }
      ],
      "name": "onERC1155BatchReceived",
      "outputs": [
        {
          "internalType": "bytes4",
          "name": "",
          "type": "bytes4"
        }
      ],
      "stateMutability": "nonpayable",
      "type": "function"
    },
    {
      "inputs": [
        {
          "internalType": "address",
          "name": "",
          "type": "address"
        },
        {
          "internalType": "address",
          "name": "",
          "type": "address"
        },
        {
          "internalType": "uint256",
          "name": "",
          "type": "uint256"
        },
        {
          "internalType": "uint256",
          "name": "",
          "type": "uint256"
        },
        {
          "internalType": "bytes",
          "name": "",
          "type": "bytes"
        }
      ],
      "name": "onERC1155Received",
      "outputs": [
        {
          "internalType": "bytes4",
          "name": "",
          "type": "bytes4"
        }
      ],
      "stateMutability": "nonpayable",
      "type": "function"
    },
    {
      "inputs": [
        {
          "internalType": "address",
          "name": "",
          "type": "address"
        },
        {
          "internalType": "address",
          "name": "",
          "type": "address"
        },
        {
          "internalType": "uint256",
          "name": "",
          "type": "uint256"
        },
        {
          "internalType": "bytes",
          "name": "",
          "type": "bytes"
        }
      ],
      "name": "onERC721Received",
      "outputs": [
        {
          "internalType": "bytes4",
          "name": "",
          "type": "bytes4"
        }
      ],
      "stateMutability": "nonpayable",
      "type": "function"
    },
    {
      "inputs": [
        {
          "components": [
            {
              "internalType": "uint8",
              "name": "_type",
              "type": "uint8"
            },
            {
              "internalType": "address",
              "name": "_address",
              "type": "address"
            },
            {
              "internalType": "uint256",
              "name": "_amount",
              "type": "uint256"
            },
            {
              "internalType": "uint256",
              "name": "_id",
              "type": "uint256"
            }
          ],
          "internalType": "struct Vault.Annex[]",
          "name": "_annex",
          "type": "tuple[]"
        },
        {
          "internalType": "string",
          "name": "_message",
          "type": "string"
        },
        {
          "internalType": "string",
          "name": "_secretWords",
          "type": "string"
        },
        {
          "internalType": "bytes32",
          "name": "_password",
          "type": "bytes32"
        },
        {
          "internalType": "uint256",
          "name": "_deadline",
          "type": "uint256"
        }
      ],
      "name": "sendLetter",
      "outputs": [
        {
          "internalType": "bytes32",
          "name": "_letterId",
          "type": "bytes32"
        }
      ],
      "stateMutability": "payable",
      "type": "function"
    },
    {
      "inputs": [
        {
          "internalType": "bytes4",
          "name": "interfaceId",
          "type": "bytes4"
        }
      ],
      "name": "supportsInterface",
      "outputs": [
        {
          "internalType": "bool",
          "name": "",
          "type": "bool"
        }
      ],
      "stateMutability": "view",
      "type": "function"
    },
    {
      "inputs": [
        {
          "internalType": "bytes32",
          "name": "_letterId",
          "type": "bytes32"
        }
      ],
      "name": "timeoutClaim",
      "outputs": [],
      "stateMutability": "nonpayable",
      "type": "function"
    },
    {
      "stateMutability": "payable",
      "type": "receive"
    }
  ],
  "transactionHash": "0x58668169cd783386239db42204a8cdc46b1e337eeb8a01215782199490c1e811",
  "args": [],
  "numDeployments": 1,
  "solcInputHash": "501ceebc5d5c50f6bf9f4518af9b1501",
  "bytecode": "0x608060405234801561001057600080fd5b506125ab806100206000396000f3fe6080604052600436106100ec5760003560e01c806372798a891161008a578063bc197c8111610059578063bc197c811461028c578063d439e361146102b8578063f23a6e61146102d8578063f3fe12c91461030457600080fd5b806372798a891461022b5780638129fc1c14610240578063916e4ed114610257578063b79744711461026c57600080fd5b80632480aa42116100c65780632480aa4214610192578063527dbe14146101b95780635a83151a146101e85780636f3769c01461021657600080fd5b806301ffc9a7146100f8578063150b7a021461012d5780631e0dfd441461017157600080fd5b366100f357005b600080fd5b34801561010457600080fd5b50610118610113366004611c06565b610324565b60405190151581526020015b60405180910390f35b34801561013957600080fd5b50610158610148366004611d30565b630a85bd0160e11b949350505050565b6040516001600160e01b03199091168152602001610124565b61018461017f366004611dba565b61035b565b604051908152602001610124565b34801561019e57600080fd5b506101a7600081565b60405160ff9091168152602001610124565b3480156101c557600080fd5b506101d96101d4366004611efd565b610964565b60405161012493929190611f66565b3480156101f457600080fd5b50610208610203366004611f9a565b610af8565b60405161012492919061203d565b34801561022257600080fd5b506101a7600181565b34801561023757600080fd5b506101a7600281565b34801561024c57600080fd5b50610255610e1f565b005b34801561026357600080fd5b506101a7600381565b34801561027857600080fd5b50610255610287366004611efd565b610f23565b34801561029857600080fd5b506101586102a736600461212b565b63bc197c8160e01b95945050505050565b3480156102c457600080fd5b506101846102d3366004611dba565b61159f565b3480156102e457600080fd5b506101586102f33660046121d4565b63f23a6e6160e01b95945050505050565b34801561031057600080fd5b5061025561031f366004611f9a565b6115df565b60006001600160e01b03198216630271189760e51b148061035557506301ffc9a760e01b6001600160e01b03198316145b92915050565b600082815260016020526040812054156103b45760405162461bcd60e51b81526020600482015260156024820152745661756c743a20416c72656164792065786973747360581b60448201526064015b60405180910390fd5b6103c1868686868661159f565b9050600086516001600160401b038111156103de576103de611c53565b60405190808252806020026020018201604052801561041157816020015b60608152602001906001900390816103fc5790505b50905060005b875181101561086b57600060ff1688828151811061043757610437612238565b60200260200101516000015160ff16036104c25787818151811061045d5761045d612238565b6020026020010151604001513410156104c25760405162461bcd60e51b815260206004820152602160248201527f5661756c743a20496e73756666696369656e7420616d6f756e74206f662065746044820152600d60fb1b60648201526084016103ab565b600160ff168882815181106104d9576104d9612238565b60200260200101516000015160ff160361059c578781815181106104ff576104ff612238565b6020026020010151602001516001600160a01b03166323b872dd33308b858151811061052d5761052d612238565b6020026020010151604001516040518463ffffffff1660e01b81526004016105579392919061224e565b6020604051808303816000875af1158015610576573d6000803e3d6000fd5b505050506040513d601f19601f8201168201806040525081019061059a9190612272565b505b600260ff168882815181106105b3576105b3612238565b60200260200101516000015160ff1603610664578781815181106105d9576105d9612238565b6020026020010151602001516001600160a01b03166323b872dd33308b858151811061060757610607612238565b6020026020010151606001516040518463ffffffff1660e01b81526004016106319392919061224e565b600060405180830381600087803b15801561064b57600080fd5b505af115801561065f573d6000803e3d6000fd5b505050505b600360ff1688828151811061067b5761067b612238565b60200260200101516000015160ff1603610790578781815181106106a1576106a1612238565b6020026020010151602001516001600160a01b031663f242432a33308b85815181106106cf576106cf612238565b6020026020010151606001518c86815181106106ed576106ed612238565b60200260200101516040015160006001600160401b0381111561071257610712611c53565b6040519080825280601f01601f19166020018201604052801561073c576020820181803683370190505b506040518663ffffffff1660e01b815260040161075d959493929190612294565b600060405180830381600087803b15801561077757600080fd5b505af115801561078b573d6000803e3d6000fd5b505050505b604080516020810185905290810182905260009060600160405160208183030381529060405290508882815181106107ca576107ca612238565b60200260200101516002826040516107e291906122d9565b9081526040805191829003602090810190922083518154938501516001600160a01b0316610100026001600160a81b031990941660ff9091161792909217825582015160018201556060909101516002909101558251819084908490811061084c5761084c612238565b6020026020010181905250508080610863906122f5565b915050610417565b506040805160c08101825233815288516020808301918252828401878152606084018b8152608085018b905260a085018a905260008881529283905294909120835181546001600160a01b0319166001600160a01b039091161781559151600183015551600282015591519091829160038201906108e990826123a5565b50608082015160048201906108fe90826123a5565b5060a0919091015160059091015560008581526001602052604090819020849055517f843802b028398e30dc4e07a4f1375525f3271b3862a41d78f768fe91177773d29061095190859033908690612464565b60405180910390a1505095945050505050565b600081815260208181526040808320815160c08101835281546001600160a01b031681526001820154938101939093526002810154918301919091526003810180546060938593849391929091838701916109be9061231c565b80601f01602080910402602001604051908101604052809291908181526020018280546109ea9061231c565b8015610a375780601f10610a0c57610100808354040283529160200191610a37565b820191906000526020600020905b815481529060010190602001808311610a1a57829003601f168201915b50505050508152602001600482018054610a509061231c565b80601f0160208091040260200160405190810160405280929190818152602001828054610a7c9061231c565b8015610ac95780601f10610a9e57610100808354040283529160200191610ac9565b820191906000526020600020905b815481529060010190602001808311610aac57829003601f168201915b505050918352505060059190910154602090910152805160608201516040909201519097919650945092505050565b6040805160c0810182526000808252602082018190529181018290526060808201819052608082015260a0810191909152606060003384604051602001610b409291906124dd565b60408051601f1981840301815291815281516020928301206000818152600190935291205490915080610b74575050915091565b60008181526020818152604091829020825160c08101845281546001600160a01b03168152600182015492810192909252600281015492820192909252600382018054919291606084019190610bc99061231c565b80601f0160208091040260200160405190810160405280929190818152602001828054610bf59061231c565b8015610c425780601f10610c1757610100808354040283529160200191610c42565b820191906000526020600020905b815481529060010190602001808311610c2557829003601f168201915b50505050508152602001600482018054610c5b9061231c565b80601f0160208091040260200160405190810160405280929190818152602001828054610c879061231c565b8015610cd45780601f10610ca957610100808354040283529160200191610cd4565b820191906000526020600020905b815481529060010190602001808311610cb757829003601f168201915b50505050508152602001600582015481525050935083602001516001600160401b03811115610d0557610d05611c53565b604051908082528060200260200182016040528015610d5757816020015b604080516080810182526000808252602080830182905292820181905260608201528252600019909201910181610d235790505b50925060005b8460200151811015610e1757604080516020810184905290810182905260029060600160408051601f1981840301815290829052610d9a916122d9565b908152604080519182900360209081018320608084018352805460ff811685526001600160a01b0361010090910416918401919091526001810154918301919091526002015460608201528451859083908110610df957610df9612238565b60200260200101819052508080610e0f906122f5565b915050610d5d565b505050915091565b7ff0c57e16840df040f15088dc2f81fe391c3923bec73e23a9662efc9c229c6a008054600160401b810460ff1615906001600160401b0316600081158015610e645750825b90506000826001600160401b03166001148015610e805750303b155b905081158015610e8e575080155b15610eac5760405163f92ee8a960e01b815260040160405180910390fd5b845467ffffffffffffffff191660011785558315610ed657845460ff60401b1916600160401b1785555b8315610f1c57845460ff60401b19168555604051600181527fc7f505b2f371ae2175ee4913f4499e1f2633a7b5936321eed1cdaeb6115181d29060200160405180910390a15b5050505050565b80610f705760405162461bcd60e51b815260206004820181905260248201527f5661756c743a2054686973207661756c7420646f6573206e6f7420657869737460448201526064016103ab565b600081815260208181526040808320815160c08101835281546001600160a01b03168152600182015493810193909352600281015491830191909152600381018054606084019190610fc19061231c565b80601f0160208091040260200160405190810160405280929190818152602001828054610fed9061231c565b801561103a5780601f1061100f5761010080835404028352916020019161103a565b820191906000526020600020905b81548152906001019060200180831161101d57829003601f168201915b505050505081526020016004820180546110539061231c565b80601f016020809104026020016040519081016040528092919081815260200182805461107f9061231c565b80156110cc5780601f106110a1576101008083540402835291602001916110cc565b820191906000526020600020905b8154815290600101906020018083116110af57829003601f168201915b50505091835250506005919091015460209091015280519091506001600160a01b031633146111635760405162461bcd60e51b815260206004820152603d60248201527f5661756c743a20596f75206d757374206265207468652073656e64657220746f60448201527f2072657472696576652065787069726564206174746163686d656e747300000060648201526084016103ab565b600082815260208190526040812080546001600160a01b031916815560018101829055600281018290559061119b6003830182611bb0565b6111a9600483016000611bb0565b50600060059190910181905560a082015181526001602052604081205580516001600160a01b0316331461121f5760405162461bcd60e51b815260206004820152601d60248201527f5661756c743a20596f7520617265206e6f74207468652073656e64657200000060448201526064016103ab565b428160400151106112805760405162461bcd60e51b815260206004820152602560248201527f5661756c743a20546865206c657474657220686173206e6f742065787069726560448201526419081e595d60da1b60648201526084016103ab565b60005b8160200151811015611567576040805160208101859052908101829052600090606001604051602081830303815290604052905060006002826040516112c991906122d9565b9081526040805160209281900383018120608082018352805460ff81168084526101009091046001600160a01b0316948301949094526001810154928201929092526002909101546060820152915061134e576040808201519051339180156108fc02916000818181858888f1935050505015801561134c573d6000803e3d6000fd5b505b805160ff16600019016113da576020810151604080830151905163a9059cbb60e01b815233600482015260248101919091526001600160a01b039091169063a9059cbb906044016020604051808303816000875af11580156113b4573d6000803e3d6000fd5b505050506040513d601f19601f820116820180604052508101906113d89190612272565b505b805160ff16600119016114535760208101516060820151604051632142170760e11b81526001600160a01b03909216916342842e0e91611420913091339160040161224e565b600060405180830381600087803b15801561143a57600080fd5b505af115801561144e573d6000803e3d6000fd5b505050505b805160ff16600219016115165780602001516001600160a01b031663f242432a30338460600151856040015160006001600160401b0381111561149857611498611c53565b6040519080825280601f01601f1916602001820160405280156114c2576020820181803683370190505b506040518663ffffffff1660e01b81526004016114e3959493929190612294565b600060405180830381600087803b1580156114fd57600080fd5b505af1158015611511573d6000803e3d6000fd5b505050505b60028260405161152691906122d9565b90815260405190819003602001902080546001600160a81b03191681556000600182018190556002909101555081905061155f816122f5565b915050611283565b506040518281527fb7b05d3a6508c3fc98e29961e39eff690a7e939862c71ad741250a5d2d30d04c9060200160405180910390a15050565b6000858585858544426040516020016115be9796959493929190612515565b60405160208183030381529060405280519060200120905095945050505050565b600033826040516020016115f49291906124dd565b60408051601f19818403018152918152815160209283012060008181526001909352912054909150806116695760405162461bcd60e51b815260206004820181905260248201527f5661756c743a2054686973207661756c7420646f6573206e6f7420657869737460448201526064016103ab565b600081815260208181526040808320815160c08101835281546001600160a01b031681526001820154938101939093526002810154918301919091526003810180546060840191906116ba9061231c565b80601f01602080910402602001604051908101604052809291908181526020018280546116e69061231c565b80156117335780601f1061170857610100808354040283529160200191611733565b820191906000526020600020905b81548152906001019060200180831161171657829003601f168201915b5050505050815260200160048201805461174c9061231c565b80601f01602080910402602001604051908101604052809291908181526020018280546117789061231c565b80156117c55780601f1061179a576101008083540402835291602001916117c5565b820191906000526020600020905b8154815290600101906020018083116117a857829003601f168201915b5050509183525050600591909101546020918201526000848152908190526040812080546001600160a01b031916815560018101829055600281018290559192506118136003830182611bb0565b611821600483016000611bb0565b5060006005919091018190558381526001602052604080822091909155810151421061188f5760405162461bcd60e51b815260206004820152601b60248201527f5661756c743a204c6574746572206861732074696d6564206f7574000000000060448201526064016103ab565b60005b8160200151811015611b76576040805160208101859052908101829052600090606001604051602081830303815290604052905060006002826040516118d891906122d9565b9081526040805160209281900383018120608082018352805460ff81168084526101009091046001600160a01b0316948301949094526001810154928201929092526002909101546060820152915061195d576040808201519051339180156108fc02916000818181858888f1935050505015801561195b573d6000803e3d6000fd5b505b805160ff16600019016119e9576020810151604080830151905163a9059cbb60e01b815233600482015260248101919091526001600160a01b039091169063a9059cbb906044016020604051808303816000875af11580156119c3573d6000803e3d6000fd5b505050506040513d601f19601f820116820180604052508101906119e79190612272565b505b805160ff1660011901611a625760208101516060820151604051632142170760e11b81526001600160a01b03909216916342842e0e91611a2f913091339160040161224e565b600060405180830381600087803b158015611a4957600080fd5b505af1158015611a5d573d6000803e3d6000fd5b505050505b805160ff1660021901611b255780602001516001600160a01b031663f242432a30338460600151856040015160006001600160401b03811115611aa757611aa7611c53565b6040519080825280601f01601f191660200182016040528015611ad1576020820181803683370190505b506040518663ffffffff1660e01b8152600401611af2959493929190612294565b600060405180830381600087803b158015611b0c57600080fd5b505af1158015611b20573d6000803e3d6000fd5b505050505b600282604051611b3591906122d9565b90815260405190819003602001902080546001600160a81b031916815560006001820181905560029091015550819050611b6e816122f5565b915050611892565b506040518281527f8c1d64e3bd87387709175b9ef4e7a1d7a8364559fc0e2ad9d77953909a0d1eb39060200160405180910390a150505050565b508054611bbc9061231c565b6000825580601f10611bcc575050565b601f016020900490600052602060002090810190611bea9190611bed565b50565b5b80821115611c025760008155600101611bee565b5090565b600060208284031215611c1857600080fd5b81356001600160e01b031981168114611c3057600080fd5b9392505050565b80356001600160a01b0381168114611c4e57600080fd5b919050565b634e487b7160e01b600052604160045260246000fd5b604051608081016001600160401b0381118282101715611c8b57611c8b611c53565b60405290565b604051601f8201601f191681016001600160401b0381118282101715611cb957611cb9611c53565b604052919050565b600082601f830112611cd257600080fd5b81356001600160401b03811115611ceb57611ceb611c53565b611cfe601f8201601f1916602001611c91565b818152846020838601011115611d1357600080fd5b816020850160208301376000918101602001919091529392505050565b60008060008060808587031215611d4657600080fd5b611d4f85611c37565b9350611d5d60208601611c37565b92506040850135915060608501356001600160401b03811115611d7f57600080fd5b611d8b87828801611cc1565b91505092959194509250565b60006001600160401b03821115611db057611db0611c53565b5060051b60200190565b600080600080600060a08688031215611dd257600080fd5b85356001600160401b0380821115611de957600080fd5b818801915088601f830112611dfd57600080fd5b81356020611e12611e0d83611d97565b611c91565b82815260079290921b8401810191818101908c841115611e3157600080fd5b948201945b83861015611e9f576080868e031215611e4f5760008081fd5b611e57611c69565b863560ff81168114611e695760008081fd5b8152611e76878501611c37565b818501526040878101359082015260608088013590820152825260809095019490820190611e36565b99505089013592505080821115611eb557600080fd5b611ec189838a01611cc1565b95506040880135915080821115611ed757600080fd5b50611ee488828901611cc1565b9598949750949560608101359550608001359392505050565b600060208284031215611f0f57600080fd5b5035919050565b60005b83811015611f31578181015183820152602001611f19565b50506000910152565b60008151808452611f52816020860160208601611f16565b601f01601f19169290920160200192915050565b6001600160a01b0384168152606060208201819052600090611f8a90830185611f3a565b9050826040830152949350505050565b600060208284031215611fac57600080fd5b81356001600160401b03811115611fc257600080fd5b611fce84828501611cc1565b949350505050565b600081518084526020808501945080840160005b83811015612032578151805160ff168852838101516001600160a01b031684890152604080820151908901526060908101519088015260809096019590820190600101611fea565b509495945050505050565b6040815260018060a01b03835116604082015260208301516060820152604083015160808201526000606084015160c060a0840152612080610100840182611f3a565b90506080850151603f198483030160c085015261209d8282611f3a565b91505060a085015160e084015282810360208401526120bc8185611fd6565b95945050505050565b600082601f8301126120d657600080fd5b813560206120e6611e0d83611d97565b82815260059290921b8401810191818101908684111561210557600080fd5b8286015b848110156121205780358352918301918301612109565b509695505050505050565b600080600080600060a0868803121561214357600080fd5b61214c86611c37565b945061215a60208701611c37565b935060408601356001600160401b038082111561217657600080fd5b61218289838a016120c5565b9450606088013591508082111561219857600080fd5b6121a489838a016120c5565b935060808801359150808211156121ba57600080fd5b506121c788828901611cc1565b9150509295509295909350565b600080600080600060a086880312156121ec57600080fd5b6121f586611c37565b945061220360208701611c37565b9350604086013592506060860135915060808601356001600160401b0381111561222c57600080fd5b6121c788828901611cc1565b634e487b7160e01b600052603260045260246000fd5b6001600160a01b039384168152919092166020820152604081019190915260600190565b60006020828403121561228457600080fd5b81518015158114611c3057600080fd5b6001600160a01b03868116825285166020820152604081018490526060810183905260a0608082018190526000906122ce90830184611f3a565b979650505050505050565b600082516122eb818460208701611f16565b9190910192915050565b60006001820161231557634e487b7160e01b600052601160045260246000fd5b5060010190565b600181811c9082168061233057607f821691505b60208210810361235057634e487b7160e01b600052602260045260246000fd5b50919050565b601f8211156123a057600081815260208120601f850160051c8101602086101561237d5750805b601f850160051c820191505b8181101561239c57828155600101612389565b5050505b505050565b81516001600160401b038111156123be576123be611c53565b6123d2816123cc845461231c565b84612356565b602080601f83116001811461240757600084156123ef5750858301515b600019600386901b1c1916600185901b17855561239c565b600085815260208120601f198616915b8281101561243657888601518255948401946001909101908401612417565b50858210156124545787850151600019600388901b60f8161c191681555b5050505050600190811b01905550565b600060608201858352602060018060a01b038616818501526060604085015281855180845260808601915060808160051b870101935082870160005b828110156124ce57607f198887030184526124bc868351611f3a565b955092840192908401906001016124a0565b50939998505050505050505050565b6bffffffffffffffffffffffff198360601b16815260008251612507816014850160208701611f16565b919091016014019392505050565b60e08152600061252860e083018a611fd6565b828103602084015261253a818a611f3a565b9050828103604084015261254e8189611f3a565b9150508560608301528460808301528360a08301528260c08301529897505050505050505056fea26469706673582212203e121d580c205af3f5bada44e226ff9ffa5dffd63c155c504ded4697f1b4b9bb64736f6c63430008140033",
  "devdoc": {
    "errors": {
      "InvalidInitialization()": [
        {
          "details": "The contract is already initialized."
        }
      ],
      "NotInitializing()": [
        {
          "details": "The contract is not initializing."
        }
      ]
    },
    "events": {
      "Initialized(uint64)": {
        "details": "Triggered when the contract has been initialized or reinitialized."
      }
    },
    "kind": "dev",
    "methods": {
      "onERC721Received(address,address,uint256,bytes)": {
        "details": "See {IERC721Receiver-onERC721Received}. Always returns `IERC721Receiver.onERC721Received.selector`."
      },
      "supportsInterface(bytes4)": {
        "details": "See {IERC165-supportsInterface}."
      }
    },
    "version": 1
  },
  "userdoc": {
    "kind": "user",
    "methods": {},
    "version": 1
  },
  "storageLayout": {
    "storage": [
      {
        "astId": 2056,
        "contract": "contracts/Vault.sol:Vault",
        "label": "letters",
        "offset": 0,
        "slot": "0",
        "type": "t_mapping(t_bytes32,t_struct(Letter)2051_storage)"
      },
      {
        "astId": 2060,
        "contract": "contracts/Vault.sol:Vault",
        "label": "passwords",
        "offset": 0,
        "slot": "1",
        "type": "t_mapping(t_bytes32,t_bytes32)"
      },
      {
        "astId": 2065,
        "contract": "contracts/Vault.sol:Vault",
        "label": "annex",
        "offset": 0,
        "slot": "2",
        "type": "t_mapping(t_bytes_memory_ptr,t_struct(Annex)2038_storage)"
      }
    ],
    "types": {
      "t_address": {
        "encoding": "inplace",
        "label": "address",
        "numberOfBytes": "20"
      },
      "t_bytes32": {
        "encoding": "inplace",
        "label": "bytes32",
        "numberOfBytes": "32"
      },
      "t_bytes_memory_ptr": {
        "encoding": "bytes",
        "label": "bytes",
        "numberOfBytes": "32"
      },
      "t_mapping(t_bytes32,t_bytes32)": {
        "encoding": "mapping",
        "key": "t_bytes32",
        "label": "mapping(bytes32 => bytes32)",
        "numberOfBytes": "32",
        "value": "t_bytes32"
      },
      "t_mapping(t_bytes32,t_struct(Letter)2051_storage)": {
        "encoding": "mapping",
        "key": "t_bytes32",
        "label": "mapping(bytes32 => struct Vault.Letter)",
        "numberOfBytes": "32",
        "value": "t_struct(Letter)2051_storage"
      },
      "t_mapping(t_bytes_memory_ptr,t_struct(Annex)2038_storage)": {
        "encoding": "mapping",
        "key": "t_bytes_memory_ptr",
        "label": "mapping(bytes => struct Vault.Annex)",
        "numberOfBytes": "32",
        "value": "t_struct(Annex)2038_storage"
      },
      "t_string_storage": {
        "encoding": "bytes",
        "label": "string",
        "numberOfBytes": "32"
      },
      "t_struct(Annex)2038_storage": {
        "encoding": "inplace",
        "label": "struct Vault.Annex",
        "members": [
          {
            "astId": 2031,
            "contract": "contracts/Vault.sol:Vault",
            "label": "_type",
            "offset": 0,
            "slot": "0",
            "type": "t_uint8"
          },
          {
            "astId": 2033,
            "contract": "contracts/Vault.sol:Vault",
            "label": "_address",
            "offset": 1,
            "slot": "0",
            "type": "t_address"
          },
          {
            "astId": 2035,
            "contract": "contracts/Vault.sol:Vault",
            "label": "_amount",
            "offset": 0,
            "slot": "1",
            "type": "t_uint256"
          },
          {
            "astId": 2037,
            "contract": "contracts/Vault.sol:Vault",
            "label": "_id",
            "offset": 0,
            "slot": "2",
            "type": "t_uint256"
          }
        ],
        "numberOfBytes": "96"
      },
      "t_struct(Letter)2051_storage": {
        "encoding": "inplace",
        "label": "struct Vault.Letter",
        "members": [
          {
            "astId": 2040,
            "contract": "contracts/Vault.sol:Vault",
            "label": "_sender",
            "offset": 0,
            "slot": "0",
            "type": "t_address"
          },
          {
            "astId": 2042,
            "contract": "contracts/Vault.sol:Vault",
            "label": "_annexAmount",
            "offset": 0,
            "slot": "1",
            "type": "t_uint256"
          },
          {
            "astId": 2044,
            "contract": "contracts/Vault.sol:Vault",
            "label": "_deadline",
            "offset": 0,
            "slot": "2",
            "type": "t_uint256"
          },
          {
            "astId": 2046,
            "contract": "contracts/Vault.sol:Vault",
            "label": "_message",
            "offset": 0,
            "slot": "3",
            "type": "t_string_storage"
          },
          {
            "astId": 2048,
            "contract": "contracts/Vault.sol:Vault",
            "label": "_secretWords",
            "offset": 0,
            "slot": "4",
            "type": "t_string_storage"
          },
          {
            "astId": 2050,
            "contract": "contracts/Vault.sol:Vault",
            "label": "_password",
            "offset": 0,
            "slot": "5",
            "type": "t_bytes32"
          }
        ],
        "numberOfBytes": "192"
      },
      "t_uint256": {
        "encoding": "inplace",
        "label": "uint256",
        "numberOfBytes": "32"
      },
      "t_uint8": {
        "encoding": "inplace",
        "label": "uint8",
        "numberOfBytes": "1"
      }
    }
  }
}