{
  "address": "0xe9e3b0F1F45E20C41233644e50C2329dBDE44433",
  "abi": [
    {
      "inputs": [],
      "name": "InvalidInitialization",
      "type": "error"
    },
    {
      "inputs": [],
      "name": "NotInitializing",
      "type": "error"
    },
    {
      "anonymous": false,
      "inputs": [
        {
          "indexed": false,
          "internalType": "bytes32",
          "name": "_letterId",
          "type": "bytes32"
        }
      ],
      "name": "Claim",
      "type": "event"
    },
    {
      "anonymous": false,
      "inputs": [
        {
          "indexed": false,
          "internalType": "uint64",
          "name": "version",
          "type": "uint64"
        }
      ],
      "name": "Initialized",
      "type": "event"
    },
    {
      "anonymous": false,
      "inputs": [
        {
          "indexed": false,
          "internalType": "bytes32",
          "name": "_letterId",
          "type": "bytes32"
        },
        {
          "indexed": false,
          "internalType": "address",
          "name": "_sender",
          "type": "address"
        },
        {
          "indexed": false,
          "internalType": "address",
          "name": "_receiver",
          "type": "address"
        },
        {
          "indexed": false,
          "internalType": "bytes[]",
          "name": "_annexKeys",
          "type": "bytes[]"
        }
      ],
      "name": "SendLetter",
      "type": "event"
    },
    {
      "anonymous": false,
      "inputs": [
        {
          "indexed": false,
          "internalType": "bytes32",
          "name": "_letterId",
          "type": "bytes32"
        }
      ],
      "name": "TimeoutClaim",
      "type": "event"
    },
    {
      "inputs": [],
      "name": "ERC1155_TYPE",
      "outputs": [
        {
          "internalType": "uint8",
          "name": "",
          "type": "uint8"
        }
      ],
      "stateMutability": "view",
      "type": "function"
    },
    {
      "inputs": [],
      "name": "ERC20_TYPE",
      "outputs": [
        {
          "internalType": "uint8",
          "name": "",
          "type": "uint8"
        }
      ],
      "stateMutability": "view",
      "type": "function"
    },
    {
      "inputs": [],
      "name": "ERC721_TYPE",
      "outputs": [
        {
          "internalType": "uint8",
          "name": "",
          "type": "uint8"
        }
      ],
      "stateMutability": "view",
      "type": "function"
    },
    {
      "inputs": [],
      "name": "ETH_TYPE",
      "outputs": [
        {
          "internalType": "uint8",
          "name": "",
          "type": "uint8"
        }
      ],
      "stateMutability": "view",
      "type": "function"
    },
    {
      "inputs": [
        {
          "components": [
            {
              "internalType": "uint8",
              "name": "_type",
              "type": "uint8"
            },
            {
              "internalType": "address",
              "name": "_address",
              "type": "address"
            },
            {
              "internalType": "uint256",
              "name": "_amount",
              "type": "uint256"
            },
            {
              "internalType": "uint256",
              "name": "_id",
              "type": "uint256"
            }
          ],
          "internalType": "struct Vault.Annex[]",
          "name": "_annex",
          "type": "tuple[]"
        },
        {
          "internalType": "string",
          "name": "_message",
          "type": "string"
        },
        {
          "internalType": "string",
          "name": "_secretWords",
          "type": "string"
        },
        {
          "internalType": "string",
          "name": "_password",
          "type": "string"
        },
        {
          "internalType": "address",
          "name": "_receiver",
          "type": "address"
        },
        {
          "internalType": "uint256",
          "name": "_deadline",
          "type": "uint256"
        }
      ],
      "name": "buildId",
      "outputs": [
        {
          "internalType": "bytes32",
          "name": "",
          "type": "bytes32"
        }
      ],
      "stateMutability": "view",
      "type": "function"
    },
    {
      "inputs": [
        {
          "internalType": "string",
          "name": "_password",
          "type": "string"
        }
      ],
      "name": "claim",
      "outputs": [],
      "stateMutability": "nonpayable",
      "type": "function"
    },
    {
      "inputs": [],
      "name": "initialize",
      "outputs": [],
      "stateMutability": "nonpayable",
      "type": "function"
    },
    {
      "inputs": [
        {
          "internalType": "string",
          "name": "_password",
          "type": "string"
        }
      ],
      "name": "letterAllParams",
      "outputs": [
        {
          "components": [
            {
              "internalType": "address",
              "name": "_sender",
              "type": "address"
            },
            {
              "internalType": "address",
              "name": "_receiver",
              "type": "address"
            },
            {
              "internalType": "uint256",
              "name": "_annexAmount",
              "type": "uint256"
            },
            {
              "internalType": "uint256",
              "name": "_deadline",
              "type": "uint256"
            },
            {
              "internalType": "string",
              "name": "_message",
              "type": "string"
            },
            {
              "internalType": "string",
              "name": "_secretWords",
              "type": "string"
            },
            {
              "internalType": "string",
              "name": "_password",
              "type": "string"
            }
          ],
          "internalType": "struct Vault.Letter",
          "name": "_letter",
          "type": "tuple"
        },
        {
          "components": [
            {
              "internalType": "uint8",
              "name": "_type",
              "type": "uint8"
            },
            {
              "internalType": "address",
              "name": "_address",
              "type": "address"
            },
            {
              "internalType": "uint256",
              "name": "_amount",
              "type": "uint256"
            },
            {
              "internalType": "uint256",
              "name": "_id",
              "type": "uint256"
            }
          ],
          "internalType": "struct Vault.Annex[]",
          "name": "_annexes",
          "type": "tuple[]"
        }
      ],
      "stateMutability": "view",
      "type": "function"
    },
    {
      "inputs": [
        {
          "internalType": "bytes32",
          "name": "_letterId",
          "type": "bytes32"
        }
      ],
      "name": "letterPublicParams",
      "outputs": [
        {
          "internalType": "address",
          "name": "_sender",
          "type": "address"
        },
        {
          "internalType": "address",
          "name": "_receiver",
          "type": "address"
        },
        {
          "internalType": "string",
          "name": "_message",
          "type": "string"
        }
      ],
      "stateMutability": "view",
      "type": "function"
    },
    {
      "inputs": [
        {
          "internalType": "address",
          "name": "",
          "type": "address"
        },
        {
          "internalType": "address",
          "name": "",
          "type": "address"
        },
        {
          "internalType": "uint256[]",
          "name": "",
          "type": "uint256[]"
        },
        {
          "internalType": "uint256[]",
          "name": "",
          "type": "uint256[]"
        },
        {
          "internalType": "bytes",
          "name": "",
          "type": "bytes"
        }
      ],
      "name": "onERC1155BatchReceived",
      "outputs": [
        {
          "internalType": "bytes4",
          "name": "",
          "type": "bytes4"
        }
      ],
      "stateMutability": "nonpayable",
      "type": "function"
    },
    {
      "inputs": [
        {
          "internalType": "address",
          "name": "",
          "type": "address"
        },
        {
          "internalType": "address",
          "name": "",
          "type": "address"
        },
        {
          "internalType": "uint256",
          "name": "",
          "type": "uint256"
        },
        {
          "internalType": "uint256",
          "name": "",
          "type": "uint256"
        },
        {
          "internalType": "bytes",
          "name": "",
          "type": "bytes"
        }
      ],
      "name": "onERC1155Received",
      "outputs": [
        {
          "internalType": "bytes4",
          "name": "",
          "type": "bytes4"
        }
      ],
      "stateMutability": "nonpayable",
      "type": "function"
    },
    {
      "inputs": [
        {
          "internalType": "address",
          "name": "",
          "type": "address"
        },
        {
          "internalType": "address",
          "name": "",
          "type": "address"
        },
        {
          "internalType": "uint256",
          "name": "",
          "type": "uint256"
        },
        {
          "internalType": "bytes",
          "name": "",
          "type": "bytes"
        }
      ],
      "name": "onERC721Received",
      "outputs": [
        {
          "internalType": "bytes4",
          "name": "",
          "type": "bytes4"
        }
      ],
      "stateMutability": "nonpayable",
      "type": "function"
    },
    {
      "inputs": [
        {
          "components": [
            {
              "internalType": "uint8",
              "name": "_type",
              "type": "uint8"
            },
            {
              "internalType": "address",
              "name": "_address",
              "type": "address"
            },
            {
              "internalType": "uint256",
              "name": "_amount",
              "type": "uint256"
            },
            {
              "internalType": "uint256",
              "name": "_id",
              "type": "uint256"
            }
          ],
          "internalType": "struct Vault.Annex[]",
          "name": "_annex",
          "type": "tuple[]"
        },
        {
          "internalType": "string",
          "name": "_message",
          "type": "string"
        },
        {
          "internalType": "string",
          "name": "_secretWords",
          "type": "string"
        },
        {
          "internalType": "string",
          "name": "_password",
          "type": "string"
        },
        {
          "internalType": "address",
          "name": "_receiver",
          "type": "address"
        },
        {
          "internalType": "uint256",
          "name": "_deadline",
          "type": "uint256"
        }
      ],
      "name": "sendLetter",
      "outputs": [
        {
          "internalType": "bytes32",
          "name": "_letterId",
          "type": "bytes32"
        }
      ],
      "stateMutability": "payable",
      "type": "function"
    },
    {
      "inputs": [
        {
          "internalType": "bytes4",
          "name": "interfaceId",
          "type": "bytes4"
        }
      ],
      "name": "supportsInterface",
      "outputs": [
        {
          "internalType": "bool",
          "name": "",
          "type": "bool"
        }
      ],
      "stateMutability": "view",
      "type": "function"
    },
    {
      "inputs": [
        {
          "internalType": "string",
          "name": "_password",
          "type": "string"
        }
      ],
      "name": "timeoutClaim",
      "outputs": [],
      "stateMutability": "nonpayable",
      "type": "function"
    },
    {
      "stateMutability": "payable",
      "type": "receive"
    }
  ],
  "transactionHash": "0xb1709209f78b230f7adf93f0e14e88766a6b5822c23678ee1240fcc905988c25",
  "args": [],
  "numDeployments": 1,
  "solcInputHash": "cbc77441dd975823ad4e80edfb21c34f",
  "bytecode": "0x608060405234801561001057600080fd5b506128b1806100206000396000f3fe6080604052600436106100ec5760003560e01c80638129fc1c1161008a578063bc197c8111610059578063bc197c811461028c578063f23a6e61146102b8578063f2c11eb7146102e4578063f3fe12c91461030457600080fd5b80638129fc1c1461021f5780638fa9c80014610236578063916e4ed114610257578063ad17456c1461026c57600080fd5b8063527dbe14116100c6578063527dbe14146101985780635a83151a146101c75780636f3769c0146101f557806372798a891461020a57600080fd5b806301ffc9a7146100f8578063150b7a021461012d5780632480aa421461017157600080fd5b366100f357005b600080fd5b34801561010457600080fd5b50610118610113366004611ecb565b610324565b60405190151581526020015b60405180910390f35b34801561013957600080fd5b50610158610148366004611ff5565b630a85bd0160e11b949350505050565b6040516001600160e01b03199091168152602001610124565b34801561017d57600080fd5b50610186600081565b60405160ff9091168152602001610124565b3480156101a457600080fd5b506101b86101b336600461205c565b61035b565b604051610124939291906120c5565b3480156101d357600080fd5b506101e76101e23660046120fa565b610588565b60405161012492919061219d565b34801561020157600080fd5b50610186600181565b34801561021657600080fd5b50610186600281565b34801561022b57600080fd5b5061023461094a565b005b61024961024436600461231d565b610a4e565b604051908152602001610124565b34801561026357600080fd5b50610186600381565b34801561027857600080fd5b506102346102873660046120fa565b61108c565b34801561029857600080fd5b506101586102a736600461243d565b63bc197c8160e01b95945050505050565b3480156102c457600080fd5b506101586102d33660046124e6565b63f23a6e6160e01b95945050505050565b3480156102f057600080fd5b506102496102ff36600461231d565b611765565b34801561031057600080fd5b5061023461031f3660046120fa565b6117a8565b60006001600160e01b03198216630271189760e51b148061035557506301ffc9a760e01b6001600160e01b03198316145b92915050565b600081815260208181526040808320815160e08101835281546001600160a01b0390811682526001830154169381019390935260028101549183019190915260038101546060838101919091526004820180548594929385939290916080840191906103c69061254a565b80601f01602080910402602001604051908101604052809291908181526020018280546103f29061254a565b801561043f5780601f106104145761010080835404028352916020019161043f565b820191906000526020600020905b81548152906001019060200180831161042257829003601f168201915b505050505081526020016005820180546104589061254a565b80601f01602080910402602001604051908101604052809291908181526020018280546104849061254a565b80156104d15780601f106104a6576101008083540402835291602001916104d1565b820191906000526020600020905b8154815290600101906020018083116104b457829003601f168201915b505050505081526020016006820180546104ea9061254a565b80601f01602080910402602001604051908101604052809291908181526020018280546105169061254a565b80156105635780601f1061053857610100808354040283529160200191610563565b820191906000526020600020905b81548152906001019060200180831161054657829003601f168201915b5050509190925250508151602083015160809093015190989297509550909350505050565b6105da6040518060e0016040528060006001600160a01b0316815260200160006001600160a01b0316815260200160008152602001600081526020016060815260200160608152602001606081525090565b606060006001846040516105ee9190612584565b9081526040519081900360200190205490508061060b5750915091565b60008181526020818152604091829020825160e08101845281546001600160a01b039081168252600183015416928101929092526002810154928201929092526003820154606082015260048201805491929160808401919061066d9061254a565b80601f01602080910402602001604051908101604052809291908181526020018280546106999061254a565b80156106e65780601f106106bb576101008083540402835291602001916106e6565b820191906000526020600020905b8154815290600101906020018083116106c957829003601f168201915b505050505081526020016005820180546106ff9061254a565b80601f016020809104026020016040519081016040528092919081815260200182805461072b9061254a565b80156107785780601f1061074d57610100808354040283529160200191610778565b820191906000526020600020905b81548152906001019060200180831161075b57829003601f168201915b505050505081526020016006820180546107919061254a565b80601f01602080910402602001604051908101604052809291908181526020018280546107bd9061254a565b801561080a5780601f106107df5761010080835404028352916020019161080a565b820191906000526020600020905b8154815290600101906020018083116107ed57829003601f168201915b505050505081525050925082604001516001600160401b0381111561083157610831611f18565b60405190808252806020026020018201604052801561088357816020015b60408051608081018252600080825260208083018290529282018190526060820152825260001990920191018161084f5790505b50915060005b836040015181101561094357604080516020810184905290810182905260029060600160408051601f19818403018152908290526108c691612584565b908152604080519182900360209081018320608084018352805460ff811685526001600160a01b0361010090910416918401919091526001810154918301919091526002015460608201528351849083908110610925576109256125a0565b6020026020010181905250808061093b906125b6565b915050610889565b5050915091565b7ff0c57e16840df040f15088dc2f81fe391c3923bec73e23a9662efc9c229c6a008054600160401b810460ff1615906001600160401b031660008115801561098f5750825b90506000826001600160401b031660011480156109ab5750303b155b9050811580156109b9575080155b156109d75760405163f92ee8a960e01b815260040160405180910390fd5b845467ffffffffffffffff191660011785558315610a0157845460ff60401b1916600160401b1785555b8315610a4757845460ff60401b19168555604051600181527fc7f505b2f371ae2175ee4913f4499e1f2633a7b5936321eed1cdaeb6115181d29060200160405180910390a15b5050505050565b60008060001b600185604051610a649190612584565b90815260200160405180910390205414610abd5760405162461bcd60e51b81526020600482015260156024820152745661756c743a20416c72656164792065786973747360581b60448201526064015b60405180910390fd5b610acb878787878787611765565b9050600087516001600160401b03811115610ae857610ae8611f18565b604051908082528060200260200182016040528015610b1b57816020015b6060815260200190600190039081610b065790505b50905060005b8851811015610f7557600060ff16898281518110610b4157610b416125a0565b60200260200101516000015160ff1603610bcc57888181518110610b6757610b676125a0565b602002602001015160400151341015610bcc5760405162461bcd60e51b815260206004820152602160248201527f5661756c743a20496e73756666696369656e7420616d6f756e74206f662065746044820152600d60fb1b6064820152608401610ab4565b600160ff16898281518110610be357610be36125a0565b60200260200101516000015160ff1603610ca657888181518110610c0957610c096125a0565b6020026020010151602001516001600160a01b03166323b872dd33308c8581518110610c3757610c376125a0565b6020026020010151604001516040518463ffffffff1660e01b8152600401610c61939291906125dd565b6020604051808303816000875af1158015610c80573d6000803e3d6000fd5b505050506040513d601f19601f82011682018060405250810190610ca49190612601565b505b600260ff16898281518110610cbd57610cbd6125a0565b60200260200101516000015160ff1603610d6e57888181518110610ce357610ce36125a0565b6020026020010151602001516001600160a01b03166323b872dd33308c8581518110610d1157610d116125a0565b6020026020010151606001516040518463ffffffff1660e01b8152600401610d3b939291906125dd565b600060405180830381600087803b158015610d5557600080fd5b505af1158015610d69573d6000803e3d6000fd5b505050505b600360ff16898281518110610d8557610d856125a0565b60200260200101516000015160ff1603610e9a57888181518110610dab57610dab6125a0565b6020026020010151602001516001600160a01b031663f242432a33308c8581518110610dd957610dd96125a0565b6020026020010151606001518d8681518110610df757610df76125a0565b60200260200101516040015160006001600160401b03811115610e1c57610e1c611f18565b6040519080825280601f01601f191660200182016040528015610e46576020820181803683370190505b506040518663ffffffff1660e01b8152600401610e67959493929190612623565b600060405180830381600087803b158015610e8157600080fd5b505af1158015610e95573d6000803e3d6000fd5b505050505b60408051602081018590529081018290526000906060016040516020818303038152906040529050898281518110610ed457610ed46125a0565b6020026020010151600282604051610eec9190612584565b9081526040805191829003602090810190922083518154938501516001600160a01b0316610100026001600160a81b031990941660ff90911617929092178255820151600182015560609091015160029091015582518190849084908110610f5657610f566125a0565b6020026020010181905250508080610f6d906125b6565b915050610b21565b506040805160e0810182523381526001600160a01b0386811660208084019182528c5184860190815260608501898152608086018e815260a087018e905260c087018d905260008a81529384905296909220855181549086166001600160a01b03199182161782559351600182018054919096169416939093179093559151600282015590516003820155915190918291600482019061101590826126b7565b5060a0820151600582019061102a90826126b7565b5060c0820151600682019061103f90826126b7565b509050507fe681dee53a4e870bcaef63970bc1fb77925267c7e4c14f60e54725272d8cb798833387856040516110789493929190612776565b60405180910390a150509695505050505050565b600060018260405161109e9190612584565b908152604051908190036020019020549050806110fd5760405162461bcd60e51b815260206004820181905260248201527f5661756c743a2054686973207661756c7420646f6573206e6f742065786973746044820152606401610ab4565b600081815260208181526040808320815160e08101835281546001600160a01b039081168252600183015416938101939093526002810154918301919091526003810154606083015260048101805460808401919061115b9061254a565b80601f01602080910402602001604051908101604052809291908181526020018280546111879061254a565b80156111d45780601f106111a9576101008083540402835291602001916111d4565b820191906000526020600020905b8154815290600101906020018083116111b757829003601f168201915b505050505081526020016005820180546111ed9061254a565b80601f01602080910402602001604051908101604052809291908181526020018280546112199061254a565b80156112665780601f1061123b57610100808354040283529160200191611266565b820191906000526020600020905b81548152906001019060200180831161124957829003601f168201915b5050505050815260200160068201805461127f9061254a565b80601f01602080910402602001604051908101604052809291908181526020018280546112ab9061254a565b80156112f85780601f106112cd576101008083540402835291602001916112f8565b820191906000526020600020905b8154815290600101906020018083116112db57829003601f168201915b50505091909252505050600083815260208190526040812080546001600160a01b03199081168255600182018054909116905560028101829055600381018290559192506113496004830182611e75565b611357600583016000611e75565b611365600683016000611e75565b50506001836040516113779190612584565b9081526040519081900360200190206000905580516001600160a01b031633146113e35760405162461bcd60e51b815260206004820152601d60248201527f5661756c743a20596f7520617265206e6f74207468652073656e6465720000006044820152606401610ab4565b428160600151106114445760405162461bcd60e51b815260206004820152602560248201527f5661756c743a20546865206c657474657220686173206e6f742065787069726560448201526419081e595d60da1b6064820152608401610ab4565b60005b816040015181101561172b5760408051602081018590529081018290526000906060016040516020818303038152906040529050600060028260405161148d9190612584565b9081526040805160209281900383018120608082018352805460ff81168084526101009091046001600160a01b03169483019490945260018101549282019290925260029091015460608201529150611512576040808201519051339180156108fc02916000818181858888f19350505050158015611510573d6000803e3d6000fd5b505b805160ff166000190161159e576020810151604080830151905163a9059cbb60e01b815233600482015260248101919091526001600160a01b039091169063a9059cbb906044016020604051808303816000875af1158015611578573d6000803e3d6000fd5b505050506040513d601f19601f8201168201806040525081019061159c9190612601565b505b805160ff16600119016116175760208101516060820151604051632142170760e11b81526001600160a01b03909216916342842e0e916115e491309133916004016125dd565b600060405180830381600087803b1580156115fe57600080fd5b505af1158015611612573d6000803e3d6000fd5b505050505b805160ff16600219016116da5780602001516001600160a01b031663f242432a30338460600151856040015160006001600160401b0381111561165c5761165c611f18565b6040519080825280601f01601f191660200182016040528015611686576020820181803683370190505b506040518663ffffffff1660e01b81526004016116a7959493929190612623565b600060405180830381600087803b1580156116c157600080fd5b505af11580156116d5573d6000803e3d6000fd5b505050505b6002826040516116ea9190612584565b90815260405190819003602001902080546001600160a81b031916815560006001820181905560029091015550819050611723816125b6565b915050611447565b506040518281527fb7b05d3a6508c3fc98e29961e39eff690a7e939862c71ad741250a5d2d30d04c906020015b60405180910390a1505050565b600086868686868644426040516020016117869897969594939291906127fa565b6040516020818303038152906040528051906020012090509695505050505050565b60006001826040516117ba9190612584565b908152604051908190036020019020549050806118195760405162461bcd60e51b815260206004820181905260248201527f5661756c743a2054686973207661756c7420646f6573206e6f742065786973746044820152606401610ab4565b600081815260208181526040808320815160e08101835281546001600160a01b03908116825260018301541693810193909352600281015491830191909152600381015460608301526004810180546080840191906118779061254a565b80601f01602080910402602001604051908101604052809291908181526020018280546118a39061254a565b80156118f05780601f106118c5576101008083540402835291602001916118f0565b820191906000526020600020905b8154815290600101906020018083116118d357829003601f168201915b505050505081526020016005820180546119099061254a565b80601f01602080910402602001604051908101604052809291908181526020018280546119359061254a565b80156119825780601f1061195757610100808354040283529160200191611982565b820191906000526020600020905b81548152906001019060200180831161196557829003601f168201915b5050505050815260200160068201805461199b9061254a565b80601f01602080910402602001604051908101604052809291908181526020018280546119c79061254a565b8015611a145780601f106119e957610100808354040283529160200191611a14565b820191906000526020600020905b8154815290600101906020018083116119f757829003601f168201915b50505091909252505050600083815260208190526040812080546001600160a01b0319908116825560018201805490911690556002810182905560038101829055919250611a656004830182611e75565b611a73600583016000611e75565b611a81600683016000611e75565b5050600183604051611a939190612584565b908152602001604051809103902060009055336001600160a01b031681602001516001600160a01b031614611b0a5760405162461bcd60e51b815260206004820181905260248201527f5661756c743a20596f7520617265206e6f742074686520726563697069656e746044820152606401610ab4565b42816060015111611b5d5760405162461bcd60e51b815260206004820152601b60248201527f5661756c743a204c6574746572206861732074696d6564206f757400000000006044820152606401610ab4565b60005b8160400151811015611e4457604080516020810185905290810182905260009060600160405160208183030381529060405290506000600282604051611ba69190612584565b9081526040805160209281900383018120608082018352805460ff81168084526101009091046001600160a01b03169483019490945260018101549282019290925260029091015460608201529150611c2b576040808201519051339180156108fc02916000818181858888f19350505050158015611c29573d6000803e3d6000fd5b505b805160ff1660001901611cb7576020810151604080830151905163a9059cbb60e01b815233600482015260248101919091526001600160a01b039091169063a9059cbb906044016020604051808303816000875af1158015611c91573d6000803e3d6000fd5b505050506040513d601f19601f82011682018060405250810190611cb59190612601565b505b805160ff1660011901611d305760208101516060820151604051632142170760e11b81526001600160a01b03909216916342842e0e91611cfd91309133916004016125dd565b600060405180830381600087803b158015611d1757600080fd5b505af1158015611d2b573d6000803e3d6000fd5b505050505b805160ff1660021901611df35780602001516001600160a01b031663f242432a30338460600151856040015160006001600160401b03811115611d7557611d75611f18565b6040519080825280601f01601f191660200182016040528015611d9f576020820181803683370190505b506040518663ffffffff1660e01b8152600401611dc0959493929190612623565b600060405180830381600087803b158015611dda57600080fd5b505af1158015611dee573d6000803e3d6000fd5b505050505b600282604051611e039190612584565b90815260405190819003602001902080546001600160a81b031916815560006001820181905560029091015550819050611e3c816125b6565b915050611b60565b506040518281527f8c1d64e3bd87387709175b9ef4e7a1d7a8364559fc0e2ad9d77953909a0d1eb390602001611758565b508054611e819061254a565b6000825580601f10611e91575050565b601f016020900490600052602060002090810190611eaf9190611eb2565b50565b5b80821115611ec75760008155600101611eb3565b5090565b600060208284031215611edd57600080fd5b81356001600160e01b031981168114611ef557600080fd5b9392505050565b80356001600160a01b0381168114611f1357600080fd5b919050565b634e487b7160e01b600052604160045260246000fd5b604051608081016001600160401b0381118282101715611f5057611f50611f18565b60405290565b604051601f8201601f191681016001600160401b0381118282101715611f7e57611f7e611f18565b604052919050565b600082601f830112611f9757600080fd5b81356001600160401b03811115611fb057611fb0611f18565b611fc3601f8201601f1916602001611f56565b818152846020838601011115611fd857600080fd5b816020850160208301376000918101602001919091529392505050565b6000806000806080858703121561200b57600080fd5b61201485611efc565b935061202260208601611efc565b92506040850135915060608501356001600160401b0381111561204457600080fd5b61205087828801611f86565b91505092959194509250565b60006020828403121561206e57600080fd5b5035919050565b60005b83811015612090578181015183820152602001612078565b50506000910152565b600081518084526120b1816020860160208601612075565b601f01601f19169290920160200192915050565b6001600160a01b038481168252831660208201526060604082018190526000906120f190830184612099565b95945050505050565b60006020828403121561210c57600080fd5b81356001600160401b0381111561212257600080fd5b61212e84828501611f86565b949350505050565b600081518084526020808501945080840160005b83811015612192578151805160ff168852838101516001600160a01b03168489015260408082015190890152606090810151908801526080909601959082019060010161214a565b509495945050505050565b60408152600060018060a01b038085511660408401528060208601511660608401525060408401516080830152606084015160a0830152608084015160e060c08401526121ee610120840182612099565b905060a0850151603f19808584030160e086015261220c8383612099565b925060c0870151915080858403016101008601525061222b8282612099565b91505082810360208401526120f18185612136565b60006001600160401b0382111561225957612259611f18565b5060051b60200190565b600082601f83011261227457600080fd5b8135602061228961228483612240565b611f56565b82815260079290921b840181019181810190868411156122a857600080fd5b8286015b8481101561231257608081890312156122c55760008081fd5b6122cd611f2e565b813560ff811681146122df5760008081fd5b81526122ec828601611efc565b8186015260408281013590820152606080830135908201528352918301916080016122ac565b509695505050505050565b60008060008060008060c0878903121561233657600080fd5b86356001600160401b038082111561234d57600080fd5b6123598a838b01612263565b9750602089013591508082111561236f57600080fd5b61237b8a838b01611f86565b9650604089013591508082111561239157600080fd5b61239d8a838b01611f86565b955060608901359150808211156123b357600080fd5b506123c089828a01611f86565b9350506123cf60808801611efc565b915060a087013590509295509295509295565b600082601f8301126123f357600080fd5b8135602061240361228483612240565b82815260059290921b8401810191818101908684111561242257600080fd5b8286015b848110156123125780358352918301918301612426565b600080600080600060a0868803121561245557600080fd5b61245e86611efc565b945061246c60208701611efc565b935060408601356001600160401b038082111561248857600080fd5b61249489838a016123e2565b945060608801359150808211156124aa57600080fd5b6124b689838a016123e2565b935060808801359150808211156124cc57600080fd5b506124d988828901611f86565b9150509295509295909350565b600080600080600060a086880312156124fe57600080fd5b61250786611efc565b945061251560208701611efc565b9350604086013592506060860135915060808601356001600160401b0381111561253e57600080fd5b6124d988828901611f86565b600181811c9082168061255e57607f821691505b60208210810361257e57634e487b7160e01b600052602260045260246000fd5b50919050565b60008251612596818460208701612075565b9190910192915050565b634e487b7160e01b600052603260045260246000fd5b6000600182016125d657634e487b7160e01b600052601160045260246000fd5b5060010190565b6001600160a01b039384168152919092166020820152604081019190915260600190565b60006020828403121561261357600080fd5b81518015158114611ef557600080fd5b6001600160a01b03868116825285166020820152604081018490526060810183905260a06080820181905260009061265d90830184612099565b979650505050505050565b601f8211156126b257600081815260208120601f850160051c8101602086101561268f5750805b601f850160051c820191505b818110156126ae5782815560010161269b565b5050505b505050565b81516001600160401b038111156126d0576126d0611f18565b6126e4816126de845461254a565b84612668565b602080601f83116001811461271957600084156127015750858301515b600019600386901b1c1916600185901b1785556126ae565b600085815260208120601f198616915b8281101561274857888601518255948401946001909101908401612729565b50858210156127665787850151600019600388901b60f8161c191681555b5050505050600190811b01905550565b600060808201868352602060018060a01b03808816828601528087166040860152506080606085015281855180845260a08601915060a08160051b870101935082870160005b828110156127ea57609f198887030184526127d8868351612099565b955092840192908401906001016127bc565b50939a9950505050505050505050565b600061010080835261280e8184018c612136565b90508281036020840152612822818b612099565b90508281036040840152612836818a612099565b9050828103606084015261284a8189612099565b6001600160a01b03979097166080840152505060a081019390935260c083019190915260e09091015294935050505056fea264697066735822122056085b4d21bdb0f41c1c495dcda743a3fe46345555a7b8e9ce716bd5de62010b64736f6c63430008140033",
  "devdoc": {
    "errors": {
      "InvalidInitialization()": [
        {
          "details": "The contract is already initialized."
        }
      ],
      "NotInitializing()": [
        {
          "details": "The contract is not initializing."
        }
      ]
    },
    "events": {
      "Initialized(uint64)": {
        "details": "Triggered when the contract has been initialized or reinitialized."
      }
    },
    "kind": "dev",
    "methods": {
      "onERC721Received(address,address,uint256,bytes)": {
        "details": "See {IERC721Receiver-onERC721Received}. Always returns `IERC721Receiver.onERC721Received.selector`."
      },
      "supportsInterface(bytes4)": {
        "details": "See {IERC165-supportsInterface}."
      }
    },
    "version": 1
  },
  "userdoc": {
    "kind": "user",
    "methods": {},
    "version": 1
  },
  "storageLayout": {
    "storage": [
      {
        "astId": 849,
        "contract": "contracts/Vault.sol:Vault",
        "label": "letters",
        "offset": 0,
        "slot": "0",
        "type": "t_mapping(t_bytes32,t_struct(Letter)844_storage)"
      },
      {
        "astId": 853,
        "contract": "contracts/Vault.sol:Vault",
        "label": "passwords",
        "offset": 0,
        "slot": "1",
        "type": "t_mapping(t_string_memory_ptr,t_bytes32)"
      },
      {
        "astId": 858,
        "contract": "contracts/Vault.sol:Vault",
        "label": "annex",
        "offset": 0,
        "slot": "2",
        "type": "t_mapping(t_bytes_memory_ptr,t_struct(Annex)829_storage)"
      }
    ],
    "types": {
      "t_address": {
        "encoding": "inplace",
        "label": "address",
        "numberOfBytes": "20"
      },
      "t_bytes32": {
        "encoding": "inplace",
        "label": "bytes32",
        "numberOfBytes": "32"
      },
      "t_bytes_memory_ptr": {
        "encoding": "bytes",
        "label": "bytes",
        "numberOfBytes": "32"
      },
      "t_mapping(t_bytes32,t_struct(Letter)844_storage)": {
        "encoding": "mapping",
        "key": "t_bytes32",
        "label": "mapping(bytes32 => struct Vault.Letter)",
        "numberOfBytes": "32",
        "value": "t_struct(Letter)844_storage"
      },
      "t_mapping(t_bytes_memory_ptr,t_struct(Annex)829_storage)": {
        "encoding": "mapping",
        "key": "t_bytes_memory_ptr",
        "label": "mapping(bytes => struct Vault.Annex)",
        "numberOfBytes": "32",
        "value": "t_struct(Annex)829_storage"
      },
      "t_mapping(t_string_memory_ptr,t_bytes32)": {
        "encoding": "mapping",
        "key": "t_string_memory_ptr",
        "label": "mapping(string => bytes32)",
        "numberOfBytes": "32",
        "value": "t_bytes32"
      },
      "t_string_memory_ptr": {
        "encoding": "bytes",
        "label": "string",
        "numberOfBytes": "32"
      },
      "t_string_storage": {
        "encoding": "bytes",
        "label": "string",
        "numberOfBytes": "32"
      },
      "t_struct(Annex)829_storage": {
        "encoding": "inplace",
        "label": "struct Vault.Annex",
        "members": [
          {
            "astId": 822,
            "contract": "contracts/Vault.sol:Vault",
            "label": "_type",
            "offset": 0,
            "slot": "0",
            "type": "t_uint8"
          },
          {
            "astId": 824,
            "contract": "contracts/Vault.sol:Vault",
            "label": "_address",
            "offset": 1,
            "slot": "0",
            "type": "t_address"
          },
          {
            "astId": 826,
            "contract": "contracts/Vault.sol:Vault",
            "label": "_amount",
            "offset": 0,
            "slot": "1",
            "type": "t_uint256"
          },
          {
            "astId": 828,
            "contract": "contracts/Vault.sol:Vault",
            "label": "_id",
            "offset": 0,
            "slot": "2",
            "type": "t_uint256"
          }
        ],
        "numberOfBytes": "96"
      },
      "t_struct(Letter)844_storage": {
        "encoding": "inplace",
        "label": "struct Vault.Letter",
        "members": [
          {
            "astId": 831,
            "contract": "contracts/Vault.sol:Vault",
            "label": "_sender",
            "offset": 0,
            "slot": "0",
            "type": "t_address"
          },
          {
            "astId": 833,
            "contract": "contracts/Vault.sol:Vault",
            "label": "_receiver",
            "offset": 0,
            "slot": "1",
            "type": "t_address"
          },
          {
            "astId": 835,
            "contract": "contracts/Vault.sol:Vault",
            "label": "_annexAmount",
            "offset": 0,
            "slot": "2",
            "type": "t_uint256"
          },
          {
            "astId": 837,
            "contract": "contracts/Vault.sol:Vault",
            "label": "_deadline",
            "offset": 0,
            "slot": "3",
            "type": "t_uint256"
          },
          {
            "astId": 839,
            "contract": "contracts/Vault.sol:Vault",
            "label": "_message",
            "offset": 0,
            "slot": "4",
            "type": "t_string_storage"
          },
          {
            "astId": 841,
            "contract": "contracts/Vault.sol:Vault",
            "label": "_secretWords",
            "offset": 0,
            "slot": "5",
            "type": "t_string_storage"
          },
          {
            "astId": 843,
            "contract": "contracts/Vault.sol:Vault",
            "label": "_password",
            "offset": 0,
            "slot": "6",
            "type": "t_string_storage"
          }
        ],
        "numberOfBytes": "224"
      },
      "t_uint256": {
        "encoding": "inplace",
        "label": "uint256",
        "numberOfBytes": "32"
      },
      "t_uint8": {
        "encoding": "inplace",
        "label": "uint8",
        "numberOfBytes": "1"
      }
    }
  }
}